Archive member included to satisfy reference by file (symbol)

c:/program files (x86)/atollic/truestudio for stm32 9.3.0/armtools/bin/../lib/gcc/arm-atollic-eabi/6.3.1/../../../../arm-atollic-eabi/lib/armv7e-m/fpu\libc_nano.a(lib_a-calloc.o)
                              Src\ble_handler.o (calloc)
c:/program files (x86)/atollic/truestudio for stm32 9.3.0/armtools/bin/../lib/gcc/arm-atollic-eabi/6.3.1/../../../../arm-atollic-eabi/lib/armv7e-m/fpu\libc_nano.a(lib_a-impure.o)
                              c:/program files (x86)/atollic/truestudio for stm32 9.3.0/armtools/bin/../lib/gcc/arm-atollic-eabi/6.3.1/../../../../arm-atollic-eabi/lib/armv7e-m/fpu\libc_nano.a(lib_a-calloc.o) (_impure_ptr)
c:/program files (x86)/atollic/truestudio for stm32 9.3.0/armtools/bin/../lib/gcc/arm-atollic-eabi/6.3.1/../../../../arm-atollic-eabi/lib/armv7e-m/fpu\libc_nano.a(lib_a-init.o)
                              startup\startup_stm32f411xe.o (__libc_init_array)
c:/program files (x86)/atollic/truestudio for stm32 9.3.0/armtools/bin/../lib/gcc/arm-atollic-eabi/6.3.1/../../../../arm-atollic-eabi/lib/armv7e-m/fpu\libc_nano.a(lib_a-malloc.o)
                              Src\ble_handler.o (free)
c:/program files (x86)/atollic/truestudio for stm32 9.3.0/armtools/bin/../lib/gcc/arm-atollic-eabi/6.3.1/../../../../arm-atollic-eabi/lib/armv7e-m/fpu\libc_nano.a(lib_a-memcpy-stub.o)
                              Middlewares\ST\BlueNRG-MS\hci\controller\bluenrg_gap_aci.o (memcpy)
c:/program files (x86)/atollic/truestudio for stm32 9.3.0/armtools/bin/../lib/gcc/arm-atollic-eabi/6.3.1/../../../../arm-atollic-eabi/lib/armv7e-m/fpu\libc_nano.a(lib_a-memset.o)
                              Middlewares\ST\BlueNRG-MS\hci\hci_le.o (memset)
c:/program files (x86)/atollic/truestudio for stm32 9.3.0/armtools/bin/../lib/gcc/arm-atollic-eabi/6.3.1/../../../../arm-atollic-eabi/lib/armv7e-m/fpu\libc_nano.a(lib_a-nano-callocr.o)
                              c:/program files (x86)/atollic/truestudio for stm32 9.3.0/armtools/bin/../lib/gcc/arm-atollic-eabi/6.3.1/../../../../arm-atollic-eabi/lib/armv7e-m/fpu\libc_nano.a(lib_a-calloc.o) (_calloc_r)
c:/program files (x86)/atollic/truestudio for stm32 9.3.0/armtools/bin/../lib/gcc/arm-atollic-eabi/6.3.1/../../../../arm-atollic-eabi/lib/armv7e-m/fpu\libc_nano.a(lib_a-nano-freer.o)
                              c:/program files (x86)/atollic/truestudio for stm32 9.3.0/armtools/bin/../lib/gcc/arm-atollic-eabi/6.3.1/../../../../arm-atollic-eabi/lib/armv7e-m/fpu\libc_nano.a(lib_a-malloc.o) (_free_r)
c:/program files (x86)/atollic/truestudio for stm32 9.3.0/armtools/bin/../lib/gcc/arm-atollic-eabi/6.3.1/../../../../arm-atollic-eabi/lib/armv7e-m/fpu\libc_nano.a(lib_a-nano-mallocr.o)
                              c:/program files (x86)/atollic/truestudio for stm32 9.3.0/armtools/bin/../lib/gcc/arm-atollic-eabi/6.3.1/../../../../arm-atollic-eabi/lib/armv7e-m/fpu\libc_nano.a(lib_a-malloc.o) (_malloc_r)
c:/program files (x86)/atollic/truestudio for stm32 9.3.0/armtools/bin/../lib/gcc/arm-atollic-eabi/6.3.1/../../../../arm-atollic-eabi/lib/armv7e-m/fpu\libc_nano.a(lib_a-reent.o)
                              Src\syscalls.o (errno)
c:/program files (x86)/atollic/truestudio for stm32 9.3.0/armtools/bin/../lib/gcc/arm-atollic-eabi/6.3.1/../../../../arm-atollic-eabi/lib/armv7e-m/fpu\libc_nano.a(lib_a-sbrkr.o)
                              c:/program files (x86)/atollic/truestudio for stm32 9.3.0/armtools/bin/../lib/gcc/arm-atollic-eabi/6.3.1/../../../../arm-atollic-eabi/lib/armv7e-m/fpu\libc_nano.a(lib_a-nano-mallocr.o) (_sbrk_r)
c:/program files (x86)/atollic/truestudio for stm32 9.3.0/armtools/bin/../lib/gcc/arm-atollic-eabi/6.3.1/../../../../arm-atollic-eabi/lib/armv7e-m/fpu\libc_nano.a(lib_a-mlock.o)
                              c:/program files (x86)/atollic/truestudio for stm32 9.3.0/armtools/bin/../lib/gcc/arm-atollic-eabi/6.3.1/../../../../arm-atollic-eabi/lib/armv7e-m/fpu\libc_nano.a(lib_a-nano-freer.o) (__malloc_lock)
c:/program files (x86)/atollic/truestudio for stm32 9.3.0/armtools/bin/../lib/gcc/arm-atollic-eabi/6.3.1/../../../../arm-atollic-eabi/lib/armv7e-m/fpu\libm.a(lib_a-s_ceil.o)
                              Src\ble_handler.o (ceil)
c:/program files (x86)/atollic/truestudio for stm32 9.3.0/armtools/bin/../lib/gcc/arm-atollic-eabi/6.3.1/../../../../arm-atollic-eabi/lib/armv7e-m/fpu\libm.a(lib_a-s_floor.o)
                              Src\matrix_handler.o (floor)
c:/program files (x86)/atollic/truestudio for stm32 9.3.0/armtools/bin/../lib/gcc/arm-atollic-eabi/6.3.1/../../../../arm-atollic-eabi/lib/armv7e-m/fpu\libm.a(lib_a-w_log10.o)
                              Src\matrix_handler.o (log10)
c:/program files (x86)/atollic/truestudio for stm32 9.3.0/armtools/bin/../lib/gcc/arm-atollic-eabi/6.3.1/../../../../arm-atollic-eabi/lib/armv7e-m/fpu\libm.a(lib_a-e_log10.o)
                              c:/program files (x86)/atollic/truestudio for stm32 9.3.0/armtools/bin/../lib/gcc/arm-atollic-eabi/6.3.1/../../../../arm-atollic-eabi/lib/armv7e-m/fpu\libm.a(lib_a-w_log10.o) (__ieee754_log10)
c:/program files (x86)/atollic/truestudio for stm32 9.3.0/armtools/bin/../lib/gcc/arm-atollic-eabi/6.3.1/../../../../arm-atollic-eabi/lib/armv7e-m/fpu\libm.a(lib_a-s_lib_ver.o)
                              c:/program files (x86)/atollic/truestudio for stm32 9.3.0/armtools/bin/../lib/gcc/arm-atollic-eabi/6.3.1/../../../../arm-atollic-eabi/lib/armv7e-m/fpu\libm.a(lib_a-w_log10.o) (__fdlib_version)
c:/program files (x86)/atollic/truestudio for stm32 9.3.0/armtools/bin/../lib/gcc/arm-atollic-eabi/6.3.1/../../../../arm-atollic-eabi/lib/armv7e-m/fpu\libm.a(lib_a-s_matherr.o)
                              c:/program files (x86)/atollic/truestudio for stm32 9.3.0/armtools/bin/../lib/gcc/arm-atollic-eabi/6.3.1/../../../../arm-atollic-eabi/lib/armv7e-m/fpu\libm.a(lib_a-w_log10.o) (matherr)
c:/program files (x86)/atollic/truestudio for stm32 9.3.0/armtools/bin/../lib/gcc/arm-atollic-eabi/6.3.1/../../../../arm-atollic-eabi/lib/armv7e-m/fpu\libm.a(lib_a-s_nan.o)
                              c:/program files (x86)/atollic/truestudio for stm32 9.3.0/armtools/bin/../lib/gcc/arm-atollic-eabi/6.3.1/../../../../arm-atollic-eabi/lib/armv7e-m/fpu\libm.a(lib_a-w_log10.o) (nan)
c:/program files (x86)/atollic/truestudio for stm32 9.3.0/armtools/bin/../lib/gcc/arm-atollic-eabi/6.3.1/../../../../arm-atollic-eabi/lib/armv7e-m/fpu\libm.a(lib_a-e_log.o)
                              c:/program files (x86)/atollic/truestudio for stm32 9.3.0/armtools/bin/../lib/gcc/arm-atollic-eabi/6.3.1/../../../../arm-atollic-eabi/lib/armv7e-m/fpu\libm.a(lib_a-e_log10.o) (__ieee754_log)
c:/program files (x86)/atollic/truestudio for stm32 9.3.0/armtools/bin/../lib/gcc/arm-atollic-eabi/6.3.1/../../../../arm-atollic-eabi/lib/armv7e-m/fpu\libc_nano.a(lib_a-errno.o)
                              c:/program files (x86)/atollic/truestudio for stm32 9.3.0/armtools/bin/../lib/gcc/arm-atollic-eabi/6.3.1/../../../../arm-atollic-eabi/lib/armv7e-m/fpu\libm.a(lib_a-w_log10.o) (__errno)
c:/program files (x86)/atollic/truestudio for stm32 9.3.0/armtools/bin/../lib/gcc/arm-atollic-eabi/6.3.1/armv7e-m/fpu\libgcc.a(_arm_addsubdf3.o)
                              Src\ble_handler.o (__aeabi_dsub)
c:/program files (x86)/atollic/truestudio for stm32 9.3.0/armtools/bin/../lib/gcc/arm-atollic-eabi/6.3.1/armv7e-m/fpu\libgcc.a(_arm_muldivdf3.o)
                              Src\ble_handler.o (__aeabi_dmul)
c:/program files (x86)/atollic/truestudio for stm32 9.3.0/armtools/bin/../lib/gcc/arm-atollic-eabi/6.3.1/armv7e-m/fpu\libgcc.a(_arm_cmpdf2.o)
                              c:/program files (x86)/atollic/truestudio for stm32 9.3.0/armtools/bin/../lib/gcc/arm-atollic-eabi/6.3.1/../../../../arm-atollic-eabi/lib/armv7e-m/fpu\libm.a(lib_a-w_log10.o) (__aeabi_dcmpeq)
c:/program files (x86)/atollic/truestudio for stm32 9.3.0/armtools/bin/../lib/gcc/arm-atollic-eabi/6.3.1/armv7e-m/fpu\libgcc.a(_arm_unorddf2.o)
                              c:/program files (x86)/atollic/truestudio for stm32 9.3.0/armtools/bin/../lib/gcc/arm-atollic-eabi/6.3.1/../../../../arm-atollic-eabi/lib/armv7e-m/fpu\libm.a(lib_a-w_log10.o) (__aeabi_dcmpun)
c:/program files (x86)/atollic/truestudio for stm32 9.3.0/armtools/bin/../lib/gcc/arm-atollic-eabi/6.3.1/armv7e-m/fpu\libgcc.a(_arm_fixdfsi.o)
                              Src\ble_handler.o (__aeabi_d2iz)
c:/program files (x86)/atollic/truestudio for stm32 9.3.0/armtools/bin/../lib/gcc/arm-atollic-eabi/6.3.1/armv7e-m/fpu\libgcc.a(_aeabi_uldivmod.o)
                              Drivers\STM32F4xx_HAL_Driver\Src\stm32f4xx_hal_rcc.o (__aeabi_uldivmod)
c:/program files (x86)/atollic/truestudio for stm32 9.3.0/armtools/bin/../lib/gcc/arm-atollic-eabi/6.3.1/armv7e-m/fpu\libgcc.a(_udivmoddi4.o)
                              c:/program files (x86)/atollic/truestudio for stm32 9.3.0/armtools/bin/../lib/gcc/arm-atollic-eabi/6.3.1/armv7e-m/fpu\libgcc.a(_aeabi_uldivmod.o) (__udivmoddi4)
c:/program files (x86)/atollic/truestudio for stm32 9.3.0/armtools/bin/../lib/gcc/arm-atollic-eabi/6.3.1/armv7e-m/fpu\libgcc.a(_dvmd_tls.o)
                              c:/program files (x86)/atollic/truestudio for stm32 9.3.0/armtools/bin/../lib/gcc/arm-atollic-eabi/6.3.1/armv7e-m/fpu\libgcc.a(_aeabi_uldivmod.o) (__aeabi_ldiv0)

Allocating common symbols
Common symbol       size              file

matrixServHandle    0x2               Src\ble_handler.o
metaControllerTempCharHandle
                    0x2               Src\ble_handler.o
hexti0              0xc               Src\hci_tl_interface.o
errno               0x4               c:/program files (x86)/atollic/truestudio for stm32 9.3.0/armtools/bin/../lib/gcc/arm-atollic-eabi/6.3.1/../../../../arm-atollic-eabi/lib/armv7e-m/fpu\libc_nano.a(lib_a-reent.o)
hi2c1               0x54              Src\main.o
hciReadPktPool      0x8               Middlewares\ST\BlueNRG-MS\hci\hci_tl_patterns\Basic\hci_tl.o
uwTick              0x4               Drivers\STM32F4xx_HAL_Driver\Src\stm32f4xx_hal.o
pFlash              0x20              Drivers\STM32F4xx_HAL_Driver\Src\stm32f4xx_hal_flash.o
errHandle           0x2               Src\ble_handler.o
errIdCharHandle     0x2               Src\ble_handler.o
hadc1               0x48              Src\ble_handler.o
metaControllerHandle
                    0x2               Src\ble_handler.o
matrixHeaderCharHandle
                    0x2               Src\ble_handler.o
user_button_init_state
                    0x1               Src\app_x-cube-ble1.o
hspi1               0x58              Src\nucleo_f411re_bus.o
huart2              0x40              Src\main.o
matrixDataCharHandle
                    0x2               Src\ble_handler.o
new_matrix          0x4               Src\ble_handler.o
hciReadPktRxQueue   0x8               Middlewares\ST\BlueNRG-MS\hci\hci_tl_patterns\Basic\hci_tl.o

Discarded input sections

 .text          0x00000000        0x0 c:/program files (x86)/atollic/truestudio for stm32 9.3.0/armtools/bin/../lib/gcc/arm-atollic-eabi/6.3.1/armv7e-m/fpu/crti.o
 .data          0x00000000        0x0 c:/program files (x86)/atollic/truestudio for stm32 9.3.0/armtools/bin/../lib/gcc/arm-atollic-eabi/6.3.1/armv7e-m/fpu/crti.o
 .bss           0x00000000        0x0 c:/program files (x86)/atollic/truestudio for stm32 9.3.0/armtools/bin/../lib/gcc/arm-atollic-eabi/6.3.1/armv7e-m/fpu/crti.o
 .data          0x00000000        0x4 c:/program files (x86)/atollic/truestudio for stm32 9.3.0/armtools/bin/../lib/gcc/arm-atollic-eabi/6.3.1/armv7e-m/fpu/crtbegin.o
 .text          0x00000000        0x0 Drivers\STM32F4xx_HAL_Driver\Src\stm32f4xx_hal.o
 .data          0x00000000        0x0 Drivers\STM32F4xx_HAL_Driver\Src\stm32f4xx_hal.o
 .bss           0x00000000        0x0 Drivers\STM32F4xx_HAL_Driver\Src\stm32f4xx_hal.o
 .text.HAL_MspInit
                0x00000000        0x2 Drivers\STM32F4xx_HAL_Driver\Src\stm32f4xx_hal.o
 .text.HAL_MspDeInit
                0x00000000        0x2 Drivers\STM32F4xx_HAL_Driver\Src\stm32f4xx_hal.o
 .text.HAL_DeInit
                0x00000000       0x2c Drivers\STM32F4xx_HAL_Driver\Src\stm32f4xx_hal.o
 .text.HAL_GetTickPrio
                0x00000000        0xc Drivers\STM32F4xx_HAL_Driver\Src\stm32f4xx_hal.o
 .text.HAL_SetTickFreq
                0x00000000       0x24 Drivers\STM32F4xx_HAL_Driver\Src\stm32f4xx_hal.o
 .text.HAL_GetTickFreq
Memory Configuration

Name             Origin             Length             Attributes
RAM              0x20000000         0x00020000         xrw
FLASH            0x08000000         0x00080000         xr
*default*        0x00000000         0xffffffff

Linker script and memory map

LOAD c:/program files (x86)/atollic/truestudio for stm32 9.3.0/armtools/bin/../lib/gcc/arm-atollic-eabi/6.3.1/armv7e-m/fpu/crti.o
LOAD c:/program files (x86)/atollic/truestudio for stm32 9.3.0/armtools/bin/../lib/gcc/arm-atollic-eabi/6.3.1/armv7e-m/fpu/crtbegin.o
LOAD Drivers\STM32F4xx_HAL_Driver\Src\stm32f4xx_hal.o
LOAD Drivers\STM32F4xx_HAL_Driver\Src\stm32f4xx_hal_adc.o
LOAD Drivers\STM32F4xx_HAL_Driver\Src\stm32f4xx_hal_adc_ex.o
LOAD Drivers\STM32F4xx_HAL_Driver\Src\stm32f4xx_hal_cortex.o
LOAD Drivers\STM32F4xx_HAL_Driver\Src\stm32f4xx_hal_dma.o
LOAD Drivers\STM32F4xx_HAL_Driver\Src\stm32f4xx_hal_dma_ex.o
LOAD Drivers\STM32F4xx_HAL_Driver\Src\stm32f4xx_hal_exti.o
LOAD Drivers\STM32F4xx_HAL_Driver\Src\stm32f4xx_hal_flash.o
LOAD Drivers\STM32F4xx_HAL_Driver\Src\stm32f4xx_hal_flash_ex.o
LOAD Drivers\STM32F4xx_HAL_Driver\Src\stm32f4xx_hal_flash_ramfunc.o
LOAD Drivers\STM32F4xx_HAL_Driver\Src\stm32f4xx_hal_gpio.o
LOAD Drivers\STM32F4xx_HAL_Driver\Src\stm32f4xx_hal_i2c.o
LOAD Drivers\STM32F4xx_HAL_Driver\Src\stm32f4xx_hal_i2c_ex.o
LOAD Drivers\STM32F4xx_HAL_Driver\Src\stm32f4xx_hal_pwr.o
LOAD Drivers\STM32F4xx_HAL_Driver\Src\stm32f4xx_hal_pwr_ex.o
LOAD Drivers\STM32F4xx_HAL_Driver\Src\stm32f4xx_hal_rcc.o
LOAD Drivers\STM32F4xx_HAL_Driver\Src\stm32f4xx_hal_rcc_ex.o
LOAD Drivers\STM32F4xx_HAL_Driver\Src\stm32f4xx_hal_spi.o
LOAD Drivers\STM32F4xx_HAL_Driver\Src\stm32f4xx_hal_tim.o
LOAD Drivers\STM32F4xx_HAL_Driver\Src\stm32f4xx_hal_tim_ex.o
LOAD Drivers\STM32F4xx_HAL_Driver\Src\stm32f4xx_hal_uart.o
LOAD Middlewares\ST\BlueNRG-MS\hci\controller\bluenrg_gap_aci.o
LOAD Middlewares\ST\BlueNRG-MS\hci\controller\bluenrg_gatt_aci.o
LOAD Middlewares\ST\BlueNRG-MS\hci\controller\bluenrg_hal_aci.o
LOAD Middlewares\ST\BlueNRG-MS\hci\controller\bluenrg_l2cap_aci.o
LOAD Middlewares\ST\BlueNRG-MS\hci\controller\bluenrg_updater_aci.o
LOAD Middlewares\ST\BlueNRG-MS\hci\controller\bluenrg_utils_small.o
LOAD Middlewares\ST\BlueNRG-MS\hci\hci_le.o
LOAD Middlewares\ST\BlueNRG-MS\hci\hci_tl_patterns\Basic\hci_tl.o
LOAD Middlewares\ST\BlueNRG-MS\utils\ble_list.o
LOAD Src\app_x-cube-ble1.o
LOAD Src\ble_handler.o
LOAD Src\dwt_stm32_delay.o
LOAD Src\error_handler.o
LOAD Src\gatt_db.o
LOAD Src\hci_tl_interface.o
LOAD Src\main.o
LOAD Src\matrix_handler.o
LOAD Src\nucleo_f411re_bus.o
LOAD Src\stm32f4xx_hal_msp.o
LOAD Src\stm32f4xx_it.o
LOAD Src\syscalls.o
LOAD Src\system_stm32f4xx.o
LOAD startup\startup_stm32f411xe.o
                0x00000080                malloc_getpagesize_P = 0x80
START GROUP
LOAD c:/program files (x86)/atollic/truestudio for stm32 9.3.0/armtools/bin/../lib/gcc/arm-atollic-eabi/6.3.1/../../../../arm-atollic-eabi/lib/armv7e-m/fpu\libc_nano.a
LOAD c:/program files (x86)/atollic/truestudio for stm32 9.3.0/armtools/bin/../lib/gcc/arm-atollic-eabi/6.3.1/../../../../arm-atollic-eabi/lib/armv7e-m/fpu\libm.a
END GROUP
START GROUP
LOAD c:/program files (x86)/atollic/truestudio for stm32 9.3.0/armtools/bin/../lib/gcc/arm-atollic-eabi/6.3.1/armv7e-m/fpu\libgcc.a
LOAD c:/program files (x86)/atollic/truestudio for stm32 9.3.0/armtools/bin/../lib/gcc/arm-atollic-eabi/6.3.1/../../../../arm-atollic-eabi/lib/armv7e-m/fpu\libc_nano.a
END GROUP
START GROUP
LOAD c:/program files (x86)/atollic/truestudio for stm32 9.3.0/armtools/bin/../lib/gcc/arm-atollic-eabi/6.3.1/armv7e-m/fpu\libgcc.a
LOAD c:/program files (x86)/atollic/truestudio for stm32 9.3.0/armtools/bin/../lib/gcc/arm-atollic-eabi/6.3.1/../../../../arm-atollic-eabi/lib/armv7e-m/fpu\libc_nano.a
LOAD c:/program files (x86)/atollic/truestudio for stm32 9.3.0/armtools/bin/../lib/gcc/arm-atollic-eabi/6.3.1/../../../../arm-atollic-eabi/lib/armv7e-m/fpu\libnosys.a
END GROUP
START GROUP
LOAD c:/program files (x86)/atollic/truestudio for stm32 9.3.0/armtools/bin/../lib/gcc/arm-atollic-eabi/6.3.1/armv7e-m/fpu\libgcc.a
LOAD c:/program files (x86)/atollic/truestudio for stm32 9.3.0/armtools/bin/../lib/gcc/arm-atollic-eabi/6.3.1/../../../../arm-atollic-eabi/lib/armv7e-m/fpu\libc_nano.a
LOAD c:/program files (x86)/atollic/truestudio for stm32 9.3.0/armtools/bin/../lib/gcc/arm-atollic-eabi/6.3.1/../../../../arm-atollic-eabi/lib/armv7e-m/fpu\libnosys.a
END GROUP
LOAD c:/program files (x86)/atollic/truestudio for stm32 9.3.0/armtools/bin/../lib/gcc/arm-atollic-eabi/6.3.1/armv7e-m/fpu/crtend.o
LOAD c:/program files (x86)/atollic/truestudio for stm32 9.3.0/armtools/bin/../lib/gcc/arm-atollic-eabi/6.3.1/armv7e-m/fpu/crtn.o
                0x20020000                _estack = 0x20020000
                0x00000200                _Min_Heap_Size = 0x200
                0x00000400                _Min_Stack_Size = 0x400

.isr_vector     0x08000000      0x198
                0x08000000                . = ALIGN (0x4)
 *(.isr_vector)
 .isr_vector    0x08000000      0x198 startup\startup_stm32f411xe.o
                0x08000000                g_pfnVectors
                0x08000198                . = ALIGN (0x4)

.text           0x08000198     0x5724
                0x08000198                . = ALIGN (0x4)
 *(.text)
 .text          0x08000198       0x40 c:/program files (x86)/atollic/truestudio for stm32 9.3.0/armtools/bin/../lib/gcc/arm-atollic-eabi/6.3.1/armv7e-m/fpu/crtbegin.o
 .text          0x080001d8      0x370 c:/program files (x86)/atollic/truestudio for stm32 9.3.0/armtools/bin/../lib/gcc/arm-atollic-eabi/6.3.1/armv7e-m/fpu\libgcc.a(_arm_addsubdf3.o)
                0x080001d8                __aeabi_drsub
                0x080001e0                __aeabi_dsub
                0x080001e0                __subdf3
                0x080001e4                __aeabi_dadd
                0x080001e4                __adddf3
                0x0800045c                __floatunsidf
                0x0800045c                __aeabi_ui2d
                0x0800047c                __floatsidf
                0x0800047c                __aeabi_i2d
                0x080004a0                __aeabi_f2d
                0x080004a0                __extendsfdf2
                0x080004dc                __floatundidf
                0x080004dc                __aeabi_ul2d
                0x080004ec                __floatdidf
                0x080004ec                __aeabi_l2d
 .text          0x08000548      0x424 c:/program files (x86)/atollic/truestudio for stm32 9.3.0/armtools/bin/../lib/gcc/arm-atollic-eabi/6.3.1/armv7e-m/fpu\libgcc.a(_arm_muldivdf3.o)
                0x08000548                __aeabi_dmul
                0x08000548                __muldf3
                0x0800079c                __divdf3
                0x0800079c                __aeabi_ddiv
 .text          0x0800096c      0x110 c:/program files (x86)/atollic/truestudio for stm32 9.3.0/armtools/bin/../lib/gcc/arm-atollic-eabi/6.3.1/armv7e-m/fpu\libgcc.a(_arm_cmpdf2.o)
                0x0800096c                __gtdf2
                0x0800096c                __gedf2
                0x08000974                __ltdf2
                0x08000974                __ledf2
                0x0800097c                __nedf2
                0x0800097c                __eqdf2
                0x0800097c                __cmpdf2
                0x080009f8                __aeabi_cdrcmple
                0x08000a08                __aeabi_cdcmpeq
                0x08000a08                __aeabi_cdcmple
                0x08000a18                __aeabi_dcmpeq
                0x08000a2c                __aeabi_dcmplt
                0x08000a40                __aeabi_dcmple
                0x08000a54                __aeabi_dcmpge
                0x08000a68                __aeabi_dcmpgt
 .text          0x08000a7c       0x2c c:/program files (x86)/atollic/truestudio for stm32 9.3.0/armtools/bin/../lib/gcc/arm-atollic-eabi/6.3.1/armv7e-m/fpu\libgcc.a(_arm_unorddf2.o)
                0x08000a7c                __unorddf2
                0x08000a7c                __aeabi_dcmpun
 .text          0x08000aa8       0x50 c:/program files (x86)/atollic/truestudio for stm32 9.3.0/armtools/bin/../lib/gcc/arm-atollic-eabi/6.3.1/armv7e-m/fpu\libgcc.a(_arm_fixdfsi.o)
                0x08000aa8                __aeabi_d2iz
                0x08000aa8                __fixdfsi
 .text          0x08000af8       0x30 c:/program files (x86)/atollic/truestudio for stm32 9.3.0/armtools/bin/../lib/gcc/arm-atollic-eabi/6.3.1/armv7e-m/fpu\libgcc.a(_aeabi_uldivmod.o)
                0x08000af8                __aeabi_uldivmod
 .text          0x08000b28      0x2dc c:/program files (x86)/atollic/truestudio for stm32 9.3.0/armtools/bin/../lib/gcc/arm-atollic-eabi/6.3.1/armv7e-m/fpu\libgcc.a(_udivmoddi4.o)
                0x08000b28                __udivmoddi4
 .text          0x08000e04        0x4 c:/program files (x86)/atollic/truestudio for stm32 9.3.0/armtools/bin/../lib/gcc/arm-atollic-eabi/6.3.1/armv7e-m/fpu\libgcc.a(_dvmd_tls.o)
                0x08000e04                __aeabi_idiv0
                0x08000e04                __aeabi_ldiv0
 *(.text*)
 .text.HAL_InitTick
                0x08000e08       0x4c Drivers\STM32F4xx_HAL_Driver\Src\stm32f4xx_hal.o
                0x08000e08                HAL_InitTick
 .text.HAL_Init
                0x08000e54       0x34 Drivers\STM32F4xx_HAL_Driver\Src\stm32f4xx_hal.o
                0x08000e54                HAL_Init
 .text.HAL_IncTick
                0x08000e88       0x18 Drivers\STM32F4xx_HAL_Driver\Src\stm32f4xx_hal.o
                0x08000e88                HAL_IncTick
 .text.HAL_GetTick
                0x08000ea0        0xc Drivers\STM32F4xx_HAL_Driver\Src\stm32f4xx_hal.o
                0x08000ea0                HAL_GetTick
 .text.HAL_Delay
                0x08000eac       0x28 Drivers\STM32F4xx_HAL_Driver\Src\stm32f4xx_hal.o
                0x08000eac                HAL_Delay
 .text.ADC_Init
                0x08000ed4      0x134 Drivers\STM32F4xx_HAL_Driver\Src\stm32f4xx_hal_adc.o
 .text.HAL_ADC_Init
                0x08001008       0x56 Drivers\STM32F4xx_HAL_Driver\Src\stm32f4xx_hal_adc.o
                0x08001008                HAL_ADC_Init
 *fill*         0x0800105e        0x2 
 .text.HAL_ADC_Start
                0x08001060       0xf8 Drivers\STM32F4xx_HAL_Driver\Src\stm32f4xx_hal_adc.o
                0x08001060                HAL_ADC_Start
 .text.HAL_ADC_Stop
                0x08001158       0x40 Drivers\STM32F4xx_HAL_Driver\Src\stm32f4xx_hal_adc.o
                0x08001158                HAL_ADC_Stop
 .text.HAL_ADC_PollForConversion
                0x08001198       0xb6 Drivers\STM32F4xx_HAL_Driver\Src\stm32f4xx_hal_adc.o
                0x08001198                HAL_ADC_PollForConversion
 .text.HAL_ADC_GetValue
                0x0800124e        0x6 Drivers\STM32F4xx_HAL_Driver\Src\stm32f4xx_hal_adc.o
                0x0800124e                HAL_ADC_GetValue
 .text.HAL_ADC_ConfigChannel
                0x08001254      0x1a4 Drivers\STM32F4xx_HAL_Driver\Src\stm32f4xx_hal_adc.o
                0x08001254                HAL_ADC_ConfigChannel
 .text.HAL_NVIC_SetPriorityGrouping
                0x080013f8       0x24 Drivers\STM32F4xx_HAL_Driver\Src\stm32f4xx_hal_cortex.o
                0x080013f8                HAL_NVIC_SetPriorityGrouping
 .text.HAL_NVIC_SetPriority
                0x0800141c       0x64 Drivers\STM32F4xx_HAL_Driver\Src\stm32f4xx_hal_cortex.o
                0x0800141c                HAL_NVIC_SetPriority
 .text.HAL_NVIC_EnableIRQ
                0x08001480       0x1c Drivers\STM32F4xx_HAL_Driver\Src\stm32f4xx_hal_cortex.o
                0x08001480                HAL_NVIC_EnableIRQ
 .text.HAL_SYSTICK_Config
                0x0800149c       0x2c Drivers\STM32F4xx_HAL_Driver\Src\stm32f4xx_hal_cortex.o
                0x0800149c                HAL_SYSTICK_Config
 .text.HAL_EXTI_RegisterCallback
                0x080014c8        0xc Drivers\STM32F4xx_HAL_Driver\Src\stm32f4xx_hal_exti.o
                0x080014c8                HAL_EXTI_RegisterCallback
 .text.HAL_EXTI_GetHandle
                0x080014d4        0xc Drivers\STM32F4xx_HAL_Driver\Src\stm32f4xx_hal_exti.o
                0x080014d4                HAL_EXTI_GetHandle
 .text.HAL_EXTI_IRQHandler
                0x080014e0       0x1c Drivers\STM32F4xx_HAL_Driver\Src\stm32f4xx_hal_exti.o
                0x080014e0                HAL_EXTI_IRQHandler
 .text.HAL_GPIO_Init
                0x080014fc      0x1a8 Drivers\STM32F4xx_HAL_Driver\Src\stm32f4xx_hal_gpio.o
                0x080014fc                HAL_GPIO_Init
 .text.HAL_GPIO_DeInit
                0x080016a4      0x100 Drivers\STM32F4xx_HAL_Driver\Src\stm32f4xx_hal_gpio.o
                0x080016a4                HAL_GPIO_DeInit
 .text.HAL_GPIO_ReadPin
                0x080017a4        0xe Drivers\STM32F4xx_HAL_Driver\Src\stm32f4xx_hal_gpio.o
                0x080017a4                HAL_GPIO_ReadPin
 .text.HAL_GPIO_WritePin
                0x080017b2        0xc Drivers\STM32F4xx_HAL_Driver\Src\stm32f4xx_hal_gpio.o
                0x080017b2                HAL_GPIO_WritePin
 .text.I2C_IsAcknowledgeFailed
                0x080017be       0x32 Drivers\STM32F4xx_HAL_Driver\Src\stm32f4xx_hal_i2c.o
 .text.I2C_WaitOnFlagUntilTimeout
                0x080017f0       0x70 Drivers\STM32F4xx_HAL_Driver\Src\stm32f4xx_hal_i2c.o
 .text.I2C_WaitOnMasterAddressFlagUntilTimeout
                0x08001860       0xa4 Drivers\STM32F4xx_HAL_Driver\Src\stm32f4xx_hal_i2c.o
 .text.I2C_MasterRequestWrite
                0x08001904       0xa8 Drivers\STM32F4xx_HAL_Driver\Src\stm32f4xx_hal_i2c.o
 .text.I2C_WaitOnTXEFlagUntilTimeout
                0x080019ac       0x54 Drivers\STM32F4xx_HAL_Driver\Src\stm32f4xx_hal_i2c.o
 .text.I2C_WaitOnBTFFlagUntilTimeout
                0x08001a00       0x54 Drivers\STM32F4xx_HAL_Driver\Src\stm32f4xx_hal_i2c.o
 .text.HAL_I2C_Init
                0x08001a54      0x1a0 Drivers\STM32F4xx_HAL_Driver\Src\stm32f4xx_hal_i2c.o
                0x08001a54                HAL_I2C_Init
 .text.HAL_I2C_Master_Transmit
                0x08001bf4      0x174 Drivers\STM32F4xx_HAL_Driver\Src\stm32f4xx_hal_i2c.o
                0x08001bf4                HAL_I2C_Master_Transmit
 .text.HAL_I2C_IsDeviceReady
                0x08001d68      0x184 Drivers\STM32F4xx_HAL_Driver\Src\stm32f4xx_hal_i2c.o
                0x08001d68                HAL_I2C_IsDeviceReady
 .text.HAL_RCC_OscConfig
                0x08001eec      0x398 Drivers\STM32F4xx_HAL_Driver\Src\stm32f4xx_hal_rcc.o
                0x08001eec                HAL_RCC_OscConfig
 .text.HAL_RCC_GetSysClockFreq
                0x08002284       0xd4 Drivers\STM32F4xx_HAL_Driver\Src\stm32f4xx_hal_rcc.o
                0x08002284                HAL_RCC_GetSysClockFreq
 .text.HAL_RCC_ClockConfig
                0x08002358      0x158 Drivers\STM32F4xx_HAL_Driver\Src\stm32f4xx_hal_rcc.o
                0x08002358                HAL_RCC_ClockConfig
 .text.HAL_RCC_GetHCLKFreq
                0x080024b0        0xc Drivers\STM32F4xx_HAL_Driver\Src\stm32f4xx_hal_rcc.o
                0x080024b0                HAL_RCC_GetHCLKFreq
 .text.HAL_RCC_GetPCLK1Freq
                0x080024bc       0x20 Drivers\STM32F4xx_HAL_Driver\Src\stm32f4xx_hal_rcc.o
                0x080024bc                HAL_RCC_GetPCLK1Freq
 .text.HAL_RCC_GetPCLK2Freq
                0x080024dc       0x20 Drivers\STM32F4xx_HAL_Driver\Src\stm32f4xx_hal_rcc.o
                0x080024dc                HAL_RCC_GetPCLK2Freq
 .text.SPI_WaitFlagStateUntilTimeout
                0x080024fc       0x90 Drivers\STM32F4xx_HAL_Driver\Src\stm32f4xx_hal_spi.o
 .text.SPI_EndRxTxTransaction
                0x0800258c       0x26 Drivers\STM32F4xx_HAL_Driver\Src\stm32f4xx_hal_spi.o
 .text.HAL_SPI_MspInit
                0x080025b2        0x2 Drivers\STM32F4xx_HAL_Driver\Src\stm32f4xx_hal_spi.o
                0x080025b2                HAL_SPI_MspInit
 .text.HAL_SPI_Init
                0x080025b4       0x80 Drivers\STM32F4xx_HAL_Driver\Src\stm32f4xx_hal_spi.o
                0x080025b4                HAL_SPI_Init
 .text.HAL_SPI_TransmitReceive
                0x08002634      0x238 Drivers\STM32F4xx_HAL_Driver\Src\stm32f4xx_hal_spi.o
                0x08002634                HAL_SPI_TransmitReceive
 .text.HAL_SPI_GetState
                0x0800286c        0x6 Drivers\STM32F4xx_HAL_Driver\Src\stm32f4xx_hal_spi.o
                0x0800286c                HAL_SPI_GetState
 *fill*         0x08002872        0x2 
 .text.UART_SetConfig
                0x08002874      0x344 Drivers\STM32F4xx_HAL_Driver\Src\stm32f4xx_hal_uart.o
 .text.HAL_UART_Init
                0x08002bb8       0x5e Drivers\STM32F4xx_HAL_Driver\Src\stm32f4xx_hal_uart.o
                0x08002bb8                HAL_UART_Init
 .text.aci_gap_init_IDB05A1
                0x08002c16       0x66 Middlewares\ST\BlueNRG-MS\hci\controller\bluenrg_gap_aci.o
                0x08002c16                aci_gap_init_IDB05A1
 .text.aci_gap_init_IDB04A1
                0x08002c7c       0x5e Middlewares\ST\BlueNRG-MS\hci\controller\bluenrg_gap_aci.o
                0x08002c7c                aci_gap_init_IDB04A1
 .text.aci_gap_set_discoverable
                0x08002cda       0xb4 Middlewares\ST\BlueNRG-MS\hci\controller\bluenrg_gap_aci.o
                0x08002cda                aci_gap_set_discoverable
 .text.aci_gap_set_auth_requirement
                0x08002d8e       0x7e Middlewares\ST\BlueNRG-MS\hci\controller\bluenrg_gap_aci.o
                0x08002d8e                aci_gap_set_auth_requirement
 .text.aci_gap_delete_ad_type
                0x08002e0c       0x40 Middlewares\ST\BlueNRG-MS\hci\controller\bluenrg_gap_aci.o
                0x08002e0c                aci_gap_delete_ad_type
 .text.aci_gatt_init
                0x08002e4c       0x3c Middlewares\ST\BlueNRG-MS\hci\controller\bluenrg_gatt_aci.o
                0x08002e4c                aci_gatt_init
 .text.aci_gatt_add_serv
                0x08002e88       0x7c Middlewares\ST\BlueNRG-MS\hci\controller\bluenrg_gatt_aci.o
                0x08002e88                aci_gatt_add_serv
 .text.aci_gatt_add_char
                0x08002f04       0xc0 Middlewares\ST\BlueNRG-MS\hci\controller\bluenrg_gatt_aci.o
                0x08002f04                aci_gatt_add_char
 .text.aci_gatt_update_char_value
                0x08002fc4       0x68 Middlewares\ST\BlueNRG-MS\hci\controller\bluenrg_gatt_aci.o
                0x08002fc4                aci_gatt_update_char_value
 .text.aci_gatt_allow_read
                0x0800302c       0x44 Middlewares\ST\BlueNRG-MS\hci\controller\bluenrg_gatt_aci.o
                0x0800302c                aci_gatt_allow_read
 .text.aci_hal_write_config_data
                0x08003070       0x60 Middlewares\ST\BlueNRG-MS\hci\controller\bluenrg_hal_aci.o
                0x08003070                aci_hal_write_config_data
 .text.aci_hal_set_tx_power_level
                0x080030d0       0x46 Middlewares\ST\BlueNRG-MS\hci\controller\bluenrg_hal_aci.o
                0x080030d0                aci_hal_set_tx_power_level
 .text.getBlueNRGVersion
                0x08003116       0x4e Middlewares\ST\BlueNRG-MS\hci\controller\bluenrg_utils_small.o
                0x08003116                getBlueNRGVersion
 .text.hci_reset
                0x08003164       0x38 Middlewares\ST\BlueNRG-MS\hci\hci_le.o
                0x08003164                hci_reset
 .text.hci_le_read_local_version
                0x0800319c       0x6a Middlewares\ST\BlueNRG-MS\hci\hci_le.o
                0x0800319c                hci_le_read_local_version
 .text.hci_le_set_scan_resp_data
                0x08003206       0x62 Middlewares\ST\BlueNRG-MS\hci\hci_le.o
                0x08003206                hci_le_set_scan_resp_data
 .text.verify_packet
                0x08003268       0x1e Middlewares\ST\BlueNRG-MS\hci\hci_tl_patterns\Basic\hci_tl.o
 *fill*         0x08003286        0x2 
 .text.send_cmd
                0x08003288       0x40 Middlewares\ST\BlueNRG-MS\hci\hci_tl_patterns\Basic\hci_tl.o
 .text.free_event_list
                0x080032c8       0x30 Middlewares\ST\BlueNRG-MS\hci\hci_tl_patterns\Basic\hci_tl.o
 .text.move_list
                0x080032f8       0x28 Middlewares\ST\BlueNRG-MS\hci\hci_tl_patterns\Basic\hci_tl.o
 .text.hci_init
                0x08003320       0x58 Middlewares\ST\BlueNRG-MS\hci\hci_tl_patterns\Basic\hci_tl.o
                0x08003320                hci_init
 .text.hci_register_io_bus
                0x08003378       0x1c Middlewares\ST\BlueNRG-MS\hci\hci_tl_patterns\Basic\hci_tl.o
                0x08003378                hci_register_io_bus
 .text.hci_send_req
                0x08003394      0x14c Middlewares\ST\BlueNRG-MS\hci\hci_tl_patterns\Basic\hci_tl.o
                0x08003394                hci_send_req
 .text.hci_user_evt_proc
                0x080034e0       0x44 Middlewares\ST\BlueNRG-MS\hci\hci_tl_patterns\Basic\hci_tl.o
                0x080034e0                hci_user_evt_proc
 .text.hci_notify_asynch_evt
                0x08003524       0x68 Middlewares\ST\BlueNRG-MS\hci\hci_tl_patterns\Basic\hci_tl.o
                0x08003524                hci_notify_asynch_evt
 .text.list_init_head
                0x0800358c        0x6 Middlewares\ST\BlueNRG-MS\utils\ble_list.o
                0x0800358c                list_init_head
 .text.list_is_empty
                0x08003592       0x18 Middlewares\ST\BlueNRG-MS\utils\ble_list.o
                0x08003592                list_is_empty
 .text.list_insert_head
                0x080035aa       0x18 Middlewares\ST\BlueNRG-MS\utils\ble_list.o
                0x080035aa                list_insert_head
 .text.list_insert_tail
                0x080035c2       0x18 Middlewares\ST\BlueNRG-MS\utils\ble_list.o
                0x080035c2                list_insert_tail
 .text.list_remove_node
                0x080035da       0x18 Middlewares\ST\BlueNRG-MS\utils\ble_list.o
                0x080035da                list_remove_node
 .text.list_remove_head
                0x080035f2       0x24 Middlewares\ST\BlueNRG-MS\utils\ble_list.o
                0x080035f2                list_remove_head
 .text.list_remove_tail
                0x08003616       0x24 Middlewares\ST\BlueNRG-MS\utils\ble_list.o
                0x08003616                list_remove_tail
 .text.list_get_size
                0x0800363a       0x1c Middlewares\ST\BlueNRG-MS\utils\ble_list.o
                0x0800363a                list_get_size
 *fill*         0x08003656        0x2 
 .text.MX_BlueNRG_MS_Init
                0x08003658      0x124 Src\app_x-cube-ble1.o
                0x08003658                MX_BlueNRG_MS_Init
 .text.MX_BlueNRG_MS_Process
                0x0800377c       0x28 Src\app_x-cube-ble1.o
                0x0800377c                MX_BlueNRG_MS_Process
 .text.Add_Services
                0x080037a4      0x128 Src\ble_handler.o
                0x080037a4                Add_Services
 .text.Temp_Update
                0x080038cc      0x100 Src\ble_handler.o
                0x080038cc                Temp_Update
 .text.Update_Error_Id_Characteristic
                0x080039cc       0x48 Src\ble_handler.o
                0x080039cc                Update_Error_Id_Characteristic
 .text.setConnectable
                0x08003a14       0x44 Src\ble_handler.o
                0x08003a14                setConnectable
 .text.GAP_ConnectionComplete_CB
                0x08003a58       0x20 Src\ble_handler.o
                0x08003a58                GAP_ConnectionComplete_CB
 .text.GAP_DisconnectionComplete_CB
                0x08003a78       0x20 Src\ble_handler.o
                0x08003a78                GAP_DisconnectionComplete_CB
 .text.Read_Request_CB
                0x08003a98       0x14 Src\ble_handler.o
                0x08003a98                Read_Request_CB
 .text.Matrix_Header_Modified
                0x08003aac       0x5c Src\ble_handler.o
                0x08003aac                Matrix_Header_Modified
 .text.Matrix_Data_Modified
                0x08003b08      0x1f8 Src\ble_handler.o
                0x08003b08                Matrix_Data_Modified
 .text.user_notify
                0x08003d00       0x8c Src\ble_handler.o
                0x08003d00                user_notify
 .text.getMatrix
                0x08003d8c        0xc Src\ble_handler.o
                0x08003d8c                getMatrix
 .text.getMatrixDisplayTime
                0x08003d98        0xc Src\ble_handler.o
                0x08003d98                getMatrixDisplayTime
 .text.getMatrixLen
                0x08003da4        0xc Src\ble_handler.o
                0x08003da4                getMatrixLen
 .text.setHadc  0x08003db0       0x24 Src\ble_handler.o
                0x08003db0                setHadc
 .text.getShouldResetOffset
                0x08003dd4        0xc Src\ble_handler.o
                0x08003dd4                getShouldResetOffset
 .text.offsetReseted
                0x08003de0        0xc Src\ble_handler.o
                0x08003de0                offsetReseted
 .text.getUs    0x08003dec       0x3c Src\dwt_stm32_delay.o
                0x08003dec                getUs
 .text.delayUS  0x08003e28       0x1a Src\dwt_stm32_delay.o
                0x08003e28                delayUS
 *fill*         0x08003e42        0x2 
 .text.setErrorId
                0x08003e44       0x30 Src\error_handler.o
                0x08003e44                setErrorId
 .text.resetErrorId
                0x08003e74        0xa Src\error_handler.o
                0x08003e74                resetErrorId
 *fill*         0x08003e7e        0x2 
 .text.getErrorId
                0x08003e80        0xc Src\error_handler.o
                0x08003e80                getErrorId
 .text.hasErrorIdChanged
                0x08003e8c        0xc Src\error_handler.o
                0x08003e8c                hasErrorIdChanged
 .text.HCI_TL_SPI_Init
                0x08003e98       0x6c Src\hci_tl_interface.o
                0x08003e98                HCI_TL_SPI_Init
 .text.HCI_TL_SPI_DeInit
                0x08003f04       0x28 Src\hci_tl_interface.o
                0x08003f04                HCI_TL_SPI_DeInit
 .text.HCI_TL_SPI_Reset
                0x08003f2c       0x30 Src\hci_tl_interface.o
                0x08003f2c                HCI_TL_SPI_Reset
 .text.HCI_TL_SPI_Receive
                0x08003f5c       0x94 Src\hci_tl_interface.o
                0x08003f5c                HCI_TL_SPI_Receive
 .text.HCI_TL_SPI_Send
                0x08003ff0       0x90 Src\hci_tl_interface.o
                0x08003ff0                HCI_TL_SPI_Send
 .text.IsDataAvailable
                0x08004080       0x18 Src\hci_tl_interface.o
 .text.hci_tl_lowlevel_isr
                0x08004098       0x14 Src\hci_tl_interface.o
                0x08004098                hci_tl_lowlevel_isr
 .text.hci_tl_lowlevel_init
                0x080040ac       0x6c Src\hci_tl_interface.o
                0x080040ac                hci_tl_lowlevel_init
 .text.__NVIC_SystemReset
                0x08004118       0x24 Src\main.o
 .text.MX_GPIO_Init
                0x0800413c      0x130 Src\main.o
 .text.MX_I2C1_Init
                0x0800426c       0x40 Src\main.o
 .text.MX_USART2_UART_Init
                0x080042ac       0x38 Src\main.o
 .text.MX_ADC1_Init
                0x080042e4       0x7c Src\main.o
 .text.SystemClock_Config
                0x08004360       0xac Src\main.o
                0x08004360                SystemClock_Config
 .text.main     0x0800440c       0xf8 Src\main.o
                0x0800440c                main
 .text.setHi2c  0x08004504       0x24 Src\matrix_handler.o
                0x08004504                setHi2c
 .text.setBrightMode
                0x08004528        0xc Src\matrix_handler.o
                0x08004528                setBrightMode
 .text.getBrightMode
                0x08004534        0xc Src\matrix_handler.o
                0x08004534                getBrightMode
 .text.getLenOfDigitArry
                0x08004540       0x1e Src\matrix_handler.o
                0x08004540                getLenOfDigitArry
 *fill*         0x0800455e        0x2 
 .text.getDigitArry
                0x08004560       0x68 Src\matrix_handler.o
                0x08004560                getDigitArry
 .text.writeI2c
                0x080045c8       0x24 Src\matrix_handler.o
                0x080045c8                writeI2c
 .text.writeVPin
                0x080045ec       0x5c Src\matrix_handler.o
                0x080045ec                writeVPin
 .text.writeMPin
                0x08004648       0x60 Src\matrix_handler.o
                0x08004648                writeMPin
 .text.drawPictureBright
                0x080046a8       0x70 Src\matrix_handler.o
                0x080046a8                drawPictureBright
 .text.drawPicture
                0x08004718       0x84 Src\matrix_handler.o
                0x08004718                drawPicture
 .text.displayCalculatedPicture
                0x0800479c       0x38 Src\matrix_handler.o
                0x0800479c                displayCalculatedPicture
 .text.drawArray
                0x080047d4      0x13c Src\matrix_handler.o
                0x080047d4                drawArray
 .text.drawErrorArray
                0x08004910      0x1a4 Src\matrix_handler.o
                0x08004910                drawErrorArray
 .text.Matrix_Process
                0x08004ab4       0x22 Src\matrix_handler.o
                0x08004ab4                Matrix_Process
 *fill*         0x08004ad6        0x2 
 .text.SPI1_MspInit
                0x08004ad8       0x84 Src\nucleo_f411re_bus.o
 .text.BSP_SPI1_SendRecv
                0x08004b5c       0x2c Src\nucleo_f411re_bus.o
                0x08004b5c                BSP_SPI1_SendRecv
 .text.BSP_GetTick
                0x08004b88        0x8 Src\nucleo_f411re_bus.o
                0x08004b88                BSP_GetTick
 .text.MX_SPI1_Init
                0x08004b90       0x3c Src\nucleo_f411re_bus.o
                0x08004b90                MX_SPI1_Init
 .text.BSP_SPI1_Init
                0x08004bcc       0x34 Src\nucleo_f411re_bus.o
                0x08004bcc                BSP_SPI1_Init
 .text.HAL_MspInit
                0x08004c00       0x40 Src\stm32f4xx_hal_msp.o
                0x08004c00                HAL_MspInit
 .text.HAL_ADC_MspInit
                0x08004c40       0x68 Src\stm32f4xx_hal_msp.o
                0x08004c40                HAL_ADC_MspInit
 .text.HAL_I2C_MspInit
                0x08004ca8       0x74 Src\stm32f4xx_hal_msp.o
                0x08004ca8                HAL_I2C_MspInit
 .text.HAL_UART_MspInit
                0x08004d1c       0x74 Src\stm32f4xx_hal_msp.o
                0x08004d1c                HAL_UART_MspInit
 .text.NMI_Handler
                0x08004d90        0x2 Src\stm32f4xx_it.o
                0x08004d90                NMI_Handler
 .text.HardFault_Handler
                0x08004d92        0x2 Src\stm32f4xx_it.o
                0x08004d92                HardFault_Handler
 .text.MemManage_Handler
                0x08004d94        0x2 Src\stm32f4xx_it.o
                0x08004d94                MemManage_Handler
 .text.BusFault_Handler
                0x08004d96        0x2 Src\stm32f4xx_it.o
                0x08004d96                BusFault_Handler
 .text.UsageFault_Handler
                0x08004d98        0x2 Src\stm32f4xx_it.o
                0x08004d98                UsageFault_Handler
 .text.SVC_Handler
                0x08004d9a        0x2 Src\stm32f4xx_it.o
                0x08004d9a                SVC_Handler
 .text.DebugMon_Handler
                0x08004d9c        0x2 Src\stm32f4xx_it.o
                0x08004d9c                DebugMon_Handler
 .text.PendSV_Handler
                0x08004d9e        0x2 Src\stm32f4xx_it.o
                0x08004d9e                PendSV_Handler
 .text.SysTick_Handler
                0x08004da0        0x8 Src\stm32f4xx_it.o
                0x08004da0                SysTick_Handler
 .text.EXTI0_IRQHandler
                0x08004da8       0x10 Src\stm32f4xx_it.o
                0x08004da8                EXTI0_IRQHandler
 .text._sbrk    0x08004db8       0x24 Src\syscalls.o
                0x08004db8                _sbrk
 .text.SystemInit
                0x08004ddc       0x4c Src\system_stm32f4xx.o
                0x08004ddc                SystemInit
 .text.Reset_Handler
                0x08004e28       0x50 startup\startup_stm32f411xe.o
                0x08004e28                Reset_Handler
 .text.Default_Handler
                0x08004e78        0x2 startup\startup_stm32f411xe.o
                0x08004e78                RTC_Alarm_IRQHandler
                0x08004e78                EXTI2_IRQHandler
                0x08004e78                SPI4_IRQHandler
                0x08004e78                TIM1_CC_IRQHandler
                0x08004e78                DMA2_Stream5_IRQHandler
                0x08004e78                DMA1_Stream5_IRQHandler
                0x08004e78                PVD_IRQHandler
                0x08004e78                SDIO_IRQHandler
                0x08004e78                TAMP_STAMP_IRQHandler
                0x08004e78                EXTI3_IRQHandler
                0x08004e78                TIM1_UP_TIM10_IRQHandler
                0x08004e78                I2C3_ER_IRQHandler
                0x08004e78                I2C2_EV_IRQHandler
                0x08004e78                DMA1_Stream2_IRQHandler
                0x08004e78                FPU_IRQHandler
                0x08004e78                DMA2_Stream2_IRQHandler
                0x08004e78                SPI1_IRQHandler
                0x08004e78                TIM1_BRK_TIM9_IRQHandler
                0x08004e78                DMA2_Stream3_IRQHandler
                0x08004e78                USART6_IRQHandler
                0x08004e78                DMA2_Stream0_IRQHandler
                0x08004e78                TIM4_IRQHandler
                0x08004e78                I2C1_EV_IRQHandler
                0x08004e78                DMA1_Stream6_IRQHandler
                0x08004e78                DMA1_Stream1_IRQHandler
                0x08004e78                TIM3_IRQHandler
                0x08004e78                RCC_IRQHandler
                0x08004e78                Default_Handler
                0x08004e78                EXTI15_10_IRQHandler
                0x08004e78                ADC_IRQHandler
                0x08004e78                DMA1_Stream7_IRQHandler
                0x08004e78                SPI5_IRQHandler
                0x08004e78                TIM5_IRQHandler
                0x08004e78                DMA2_Stream7_IRQHandler
                0x08004e78                I2C3_EV_IRQHandler
                0x08004e78                EXTI9_5_IRQHandler
                0x08004e78                RTC_WKUP_IRQHandler
                0x08004e78                SPI2_IRQHandler
                0x08004e78                DMA1_Stream0_IRQHandler
                0x08004e78                EXTI4_IRQHandler
                0x08004e78                WWDG_IRQHandler
                0x08004e78                TIM2_IRQHandler
                0x08004e78                OTG_FS_WKUP_IRQHandler
                0x08004e78                TIM1_TRG_COM_TIM11_IRQHandler
                0x08004e78                EXTI1_IRQHandler
                0x08004e78                USART2_IRQHandler
                0x08004e78                I2C2_ER_IRQHandler
                0x08004e78                DMA2_Stream1_IRQHandler
                0x08004e78                FLASH_IRQHandler
                0x08004e78                DMA2_Stream4_IRQHandler
                0x08004e78                USART1_IRQHandler
                0x08004e78                OTG_FS_IRQHandler
                0x08004e78                SPI3_IRQHandler
                0x08004e78                DMA1_Stream4_IRQHandler
                0x08004e78                I2C1_ER_IRQHandler
                0x08004e78                DMA2_Stream6_IRQHandler
                0x08004e78                DMA1_Stream3_IRQHandler
 *fill*         0x08004e7a        0x2 
 .text.calloc   0x08004e7c       0x10 c:/program files (x86)/atollic/truestudio for stm32 9.3.0/armtools/bin/../lib/gcc/arm-atollic-eabi/6.3.1/../../../../arm-atollic-eabi/lib/armv7e-m/fpu\libc_nano.a(lib_a-calloc.o)
                0x08004e7c                calloc
 .text.__libc_init_array
                0x08004e8c       0x48 c:/program files (x86)/atollic/truestudio for stm32 9.3.0/armtools/bin/../lib/gcc/arm-atollic-eabi/6.3.1/../../../../arm-atollic-eabi/lib/armv7e-m/fpu\libc_nano.a(lib_a-init.o)
                0x08004e8c                __libc_init_array
 .text.free     0x08004ed4       0x10 c:/program files (x86)/atollic/truestudio for stm32 9.3.0/armtools/bin/../lib/gcc/arm-atollic-eabi/6.3.1/../../../../arm-atollic-eabi/lib/armv7e-m/fpu\libc_nano.a(lib_a-malloc.o)
                0x08004ed4                free
 .text.memcpy   0x08004ee4       0x16 c:/program files (x86)/atollic/truestudio for stm32 9.3.0/armtools/bin/../lib/gcc/arm-atollic-eabi/6.3.1/../../../../arm-atollic-eabi/lib/armv7e-m/fpu\libc_nano.a(lib_a-memcpy-stub.o)
                0x08004ee4                memcpy
 .text.memset   0x08004efa       0x10 c:/program files (x86)/atollic/truestudio for stm32 9.3.0/armtools/bin/../lib/gcc/arm-atollic-eabi/6.3.1/../../../../arm-atollic-eabi/lib/armv7e-m/fpu\libc_nano.a(lib_a-memset.o)
                0x08004efa                memset
 .text._calloc_r
                0x08004f0a       0x1c c:/program files (x86)/atollic/truestudio for stm32 9.3.0/armtools/bin/../lib/gcc/arm-atollic-eabi/6.3.1/../../../../arm-atollic-eabi/lib/armv7e-m/fpu\libc_nano.a(lib_a-nano-callocr.o)
                0x08004f0a                _calloc_r
 *fill*         0x08004f26        0x2 
 .text._free_r  0x08004f28       0x9c c:/program files (x86)/atollic/truestudio for stm32 9.3.0/armtools/bin/../lib/gcc/arm-atollic-eabi/6.3.1/../../../../arm-atollic-eabi/lib/armv7e-m/fpu\libc_nano.a(lib_a-nano-freer.o)
                0x08004f28                _free_r
 .text._malloc_r
                0x08004fc4       0xbc c:/program files (x86)/atollic/truestudio for stm32 9.3.0/armtools/bin/../lib/gcc/arm-atollic-eabi/6.3.1/../../../../arm-atollic-eabi/lib/armv7e-m/fpu\libc_nano.a(lib_a-nano-mallocr.o)
                0x08004fc4                _malloc_r
 .text._sbrk_r  0x08005080       0x20 c:/program files (x86)/atollic/truestudio for stm32 9.3.0/armtools/bin/../lib/gcc/arm-atollic-eabi/6.3.1/../../../../arm-atollic-eabi/lib/armv7e-m/fpu\libc_nano.a(lib_a-sbrkr.o)
                0x08005080                _sbrk_r
 .text.__malloc_lock
                0x080050a0        0x2 c:/program files (x86)/atollic/truestudio for stm32 9.3.0/armtools/bin/../lib/gcc/arm-atollic-eabi/6.3.1/../../../../arm-atollic-eabi/lib/armv7e-m/fpu\libc_nano.a(lib_a-mlock.o)
                0x080050a0                __malloc_lock
 .text.__malloc_unlock
                0x080050a2        0x2 c:/program files (x86)/atollic/truestudio for stm32 9.3.0/armtools/bin/../lib/gcc/arm-atollic-eabi/6.3.1/../../../../arm-atollic-eabi/lib/armv7e-m/fpu\libc_nano.a(lib_a-mlock.o)
                0x080050a2                __malloc_unlock
 *fill*         0x080050a4        0x4 
 .text.ceil     0x080050a8      0x108 c:/program files (x86)/atollic/truestudio for stm32 9.3.0/armtools/bin/../lib/gcc/arm-atollic-eabi/6.3.1/../../../../arm-atollic-eabi/lib/armv7e-m/fpu\libm.a(lib_a-s_ceil.o)
                0x080050a8                ceil
 .text.floor    0x080051b0      0x108 c:/program files (x86)/atollic/truestudio for stm32 9.3.0/armtools/bin/../lib/gcc/arm-atollic-eabi/6.3.1/../../../../arm-atollic-eabi/lib/armv7e-m/fpu\libm.a(lib_a-s_floor.o)
                0x080051b0                floor
 .text.log10    0x080052b8      0x100 c:/program files (x86)/atollic/truestudio for stm32 9.3.0/armtools/bin/../lib/gcc/arm-atollic-eabi/6.3.1/../../../../arm-atollic-eabi/lib/armv7e-m/fpu\libm.a(lib_a-w_log10.o)
                0x080052b8                log10
 .text.__ieee754_log10
                0x080053b8      0x11c c:/program files (x86)/atollic/truestudio for stm32 9.3.0/armtools/bin/../lib/gcc/arm-atollic-eabi/6.3.1/../../../../arm-atollic-eabi/lib/armv7e-m/fpu\libm.a(lib_a-e_log10.o)
                0x080053b8                __ieee754_log10
 .text.matherr  0x080054d4        0x4 c:/program files (x86)/atollic/truestudio for stm32 9.3.0/armtools/bin/../lib/gcc/arm-atollic-eabi/6.3.1/../../../../arm-atollic-eabi/lib/armv7e-m/fpu\libm.a(lib_a-s_matherr.o)
                0x080054d4                matherr
 .text.nan      0x080054d8       0x10 c:/program files (x86)/atollic/truestudio for stm32 9.3.0/armtools/bin/../lib/gcc/arm-atollic-eabi/6.3.1/../../../../arm-atollic-eabi/lib/armv7e-m/fpu\libm.a(lib_a-s_nan.o)
                0x080054d8                nan
 .text.__ieee754_log
                0x080054e8      0x3b0 c:/program files (x86)/atollic/truestudio for stm32 9.3.0/armtools/bin/../lib/gcc/arm-atollic-eabi/6.3.1/../../../../arm-atollic-eabi/lib/armv7e-m/fpu\libm.a(lib_a-e_log.o)
                0x080054e8                __ieee754_log
 .text.__errno  0x08005898        0xc c:/program files (x86)/atollic/truestudio for stm32 9.3.0/armtools/bin/../lib/gcc/arm-atollic-eabi/6.3.1/../../../../arm-atollic-eabi/lib/armv7e-m/fpu\libc_nano.a(lib_a-errno.o)
                0x08005898                __errno
 *(.glue_7)
 .glue_7        0x080058a4        0x0 linker stubs
 *(.glue_7t)
 .glue_7t       0x080058a4        0x0 linker stubs
 *(.eh_frame)
 .eh_frame      0x080058a4        0x0 c:/program files (x86)/atollic/truestudio for stm32 9.3.0/armtools/bin/../lib/gcc/arm-atollic-eabi/6.3.1/armv7e-m/fpu/crtbegin.o
 *(.init)
 .init          0x080058a4        0x4 c:/program files (x86)/atollic/truestudio for stm32 9.3.0/armtools/bin/../lib/gcc/arm-atollic-eabi/6.3.1/armv7e-m/fpu/crti.o
                0x080058a4                _init
 .init          0x080058a8        0x8 c:/program files (x86)/atollic/truestudio for stm32 9.3.0/armtools/bin/../lib/gcc/arm-atollic-eabi/6.3.1/armv7e-m/fpu/crtn.o
 *(.fini)
 .fini          0x080058b0        0x4 c:/program files (x86)/atollic/truestudio for stm32 9.3.0/armtools/bin/../lib/gcc/arm-atollic-eabi/6.3.1/armv7e-m/fpu/crti.o
                0x080058b0                _fini
 .fini          0x080058b4        0x8 c:/program files (x86)/atollic/truestudio for stm32 9.3.0/armtools/bin/../lib/gcc/arm-atollic-eabi/6.3.1/armv7e-m/fpu/crtn.o
                0x080058bc                . = ALIGN (0x4)
                0x080058bc                _etext = .

.vfp11_veneer   0x080058bc        0x0
 .vfp11_veneer  0x080058bc        0x0 linker stubs

.v4_bx          0x080058bc        0x0
 .v4_bx         0x080058bc        0x0 linker stubs

.iplt           0x080058bc        0x0
 .iplt          0x080058bc        0x0 c:/program files (x86)/atollic/truestudio for stm32 9.3.0/armtools/bin/../lib/gcc/arm-atollic-eabi/6.3.1/armv7e-m/fpu/crtbegin.o

.rodata         0x080058bc       0xb4
                0x080058bc                . = ALIGN (0x4)
 *(.rodata)
 .rodata        0x080058bc        0x6 Src\app_x-cube-ble1.o
 *fill*         0x080058c2        0x2 
 .rodata        0x080058c4       0x11 Src\ble_handler.o
 *(.rodata*)
 *fill*         0x080058d5        0x3 
 .rodata.MX_BlueNRG_MS_Init.str1.4
                0x080058d8        0x8 Src\app_x-cube-ble1.o
 .rodata.ERR_ID_CHAR_UUID
                0x080058e0       0x10 Src\ble_handler.o
                0x080058e0                ERR_ID_CHAR_UUID
 .rodata.ERR_SERVICE_UUID
                0x080058f0       0x10 Src\ble_handler.o
                0x080058f0                ERR_SERVICE_UUID
 .rodata.MATRIX_DATA_CHAR_UUID
                0x08005900       0x10 Src\ble_handler.o
                0x08005900                MATRIX_DATA_CHAR_UUID
 .rodata.MATRIX_HEADER_CHAR_UUID
                0x08005910       0x10 Src\ble_handler.o
                0x08005910                MATRIX_HEADER_CHAR_UUID
 .rodata.MATRIX_SERVICE_UUID
                0x08005920       0x10 Src\ble_handler.o
                0x08005920                MATRIX_SERVICE_UUID
 .rodata.META_CONTROLLER_SERVICE_UUID
                0x08005930       0x10 Src\ble_handler.o
                0x08005930                META_CONTROLLER_SERVICE_UUID
 .rodata.META_CONTROLLER_TEMP_CHAR_UUID
                0x08005940       0x10 Src\ble_handler.o
                0x08005940                META_CONTROLLER_TEMP_CHAR_UUID
 .rodata.AHBPrescTable
                0x08005950       0x10 Src\system_stm32f4xx.o
                0x08005950                AHBPrescTable
 .rodata.APBPrescTable
                0x08005960        0x8 Src\system_stm32f4xx.o
                0x08005960                APBPrescTable
 .rodata.log10.str1.1
                0x08005968        0x6 c:/program files (x86)/atollic/truestudio for stm32 9.3.0/armtools/bin/../lib/gcc/arm-atollic-eabi/6.3.1/../../../../arm-atollic-eabi/lib/armv7e-m/fpu\libm.a(lib_a-w_log10.o)
                                  0x7 (size before relaxing)
                0x08005970                . = ALIGN (0x4)
 *fill*         0x0800596e        0x2 

.ARM.extab
 *(.ARM.extab* .gnu.linkonce.armextab.*)

.ARM            0x08005970        0x8
                0x08005970                __exidx_start = .
 *(.ARM.exidx*)
 .ARM.exidx     0x08005970        0x8 c:/program files (x86)/atollic/truestudio for stm32 9.3.0/armtools/bin/../lib/gcc/arm-atollic-eabi/6.3.1/armv7e-m/fpu\libgcc.a(_udivmoddi4.o)
                0x08005978                __exidx_end = .

.rel.dyn        0x08005978        0x0
 .rel.iplt      0x08005978        0x0 c:/program files (x86)/atollic/truestudio for stm32 9.3.0/armtools/bin/../lib/gcc/arm-atollic-eabi/6.3.1/armv7e-m/fpu/crtbegin.o

.preinit_array  0x08005978        0x0
                0x08005978                PROVIDE (__preinit_array_start, .)
 *(.preinit_array*)
                0x08005978                PROVIDE (__preinit_array_end, .)

.init_array     0x08005978        0x4
                0x08005978                PROVIDE (__init_array_start, .)
 *(SORT(.init_array.*))
 *(.init_array*)
 .init_array    0x08005978        0x4 c:/program files (x86)/atollic/truestudio for stm32 9.3.0/armtools/bin/../lib/gcc/arm-atollic-eabi/6.3.1/armv7e-m/fpu/crtbegin.o
                0x0800597c                PROVIDE (__init_array_end, .)

.fini_array     0x0800597c        0x4
                [!provide]                PROVIDE (__fini_array_start, .)
 *(SORT(.fini_array.*))
 *(.fini_array*)
 .fini_array    0x0800597c        0x4 c:/program files (x86)/atollic/truestudio for stm32 9.3.0/armtools/bin/../lib/gcc/arm-atollic-eabi/6.3.1/armv7e-m/fpu/crtbegin.o
                [!provide]                PROVIDE (__fini_array_end, .)
                0x08005980                _sidata = LOADADDR (.data)

.data           0x20000000      0x424 load address 0x08005980
                0x20000000                . = ALIGN (0x4)
                0x20000000                _sdata = .
 *(.data)
 *(.data*)
 .data.uwTickFreq
                0x20000000        0x1 Drivers\STM32F4xx_HAL_Driver\Src\stm32f4xx_hal.o
                0x20000000                uwTickFreq
 *fill*         0x20000001        0x3 
 .data.uwTickPrio
                0x20000004        0x4 Drivers\STM32F4xx_HAL_Driver\Src\stm32f4xx_hal.o
                0x20000004                uwTickPrio
 .data.DEFAULT_MATRIX
                0x20000008      0x150 Src\ble_handler.o
                0x20000008                DEFAULT_MATRIX
 .data.isDefaultMatrix
                0x20000158        0x4 Src\ble_handler.o
                0x20000158                isDefaultMatrix
 .data.matrix   0x2000015c        0x4 Src\ble_handler.o
                0x2000015c                matrix
 .data.matrixVelocity
                0x20000160        0x4 Src\ble_handler.o
                0x20000160                matrixVelocity
 .data.matrix_len
                0x20000164        0x2 Src\ble_handler.o
                0x20000164                matrix_len
 .data.set_connectable
                0x20000166        0x1 Src\ble_handler.o
                0x20000166                set_connectable
 *fill*         0x20000167        0x1 
 .data.shouldResetOffset
                0x20000168        0x4 Src\ble_handler.o
                0x20000168                shouldResetOffset
 .data.DIG_EIGHT
                0x2000016c       0x2a Src\matrix_handler.o
                0x2000016c                DIG_EIGHT
 *fill*         0x20000196        0x2 
 .data.DIG_FIVE
                0x20000198       0x2a Src\matrix_handler.o
                0x20000198                DIG_FIVE
 *fill*         0x200001c2        0x2 
 .data.DIG_FOUR
                0x200001c4       0x2a Src\matrix_handler.o
                0x200001c4                DIG_FOUR
 *fill*         0x200001ee        0x2 
 .data.DIG_NINE
                0x200001f0       0x2a Src\matrix_handler.o
                0x200001f0                DIG_NINE
 *fill*         0x2000021a        0x2 
 .data.DIG_ONE  0x2000021c       0x1c Src\matrix_handler.o
                0x2000021c                DIG_ONE
 .data.DIG_SEVEN
                0x20000238       0x2a Src\matrix_handler.o
                0x20000238                DIG_SEVEN
 *fill*         0x20000262        0x2 
 .data.DIG_SIX  0x20000264       0x2a Src\matrix_handler.o
                0x20000264                DIG_SIX
 *fill*         0x2000028e        0x2 
 .data.DIG_THREE
                0x20000290       0x2a Src\matrix_handler.o
                0x20000290                DIG_THREE
 *fill*         0x200002ba        0x2 
 .data.DIG_TWO  0x200002bc       0x2a Src\matrix_handler.o
                0x200002bc                DIG_TWO
 *fill*         0x200002e6        0x2 
 .data.DIG_ZERO
                0x200002e8       0x2a Src\matrix_handler.o
                0x200002e8                DIG_ZERO
 *fill*         0x20000312        0x2 
 .data.ERROR_MATRIX
                0x20000314       0xa1 Src\matrix_handler.o
                0x20000314                ERROR_MATRIX
 *fill*         0x200003b5        0x3 
 .data.SystemCoreClock
                0x200003b8        0x4 Src\system_stm32f4xx.o
                0x200003b8                SystemCoreClock
 .data._impure_ptr
                0x200003bc        0x4 c:/program files (x86)/atollic/truestudio for stm32 9.3.0/armtools/bin/../lib/gcc/arm-atollic-eabi/6.3.1/../../../../arm-atollic-eabi/lib/armv7e-m/fpu\libc_nano.a(lib_a-impure.o)
                0x200003bc                _impure_ptr
 .data.impure_data
                0x200003c0       0x60 c:/program files (x86)/atollic/truestudio for stm32 9.3.0/armtools/bin/../lib/gcc/arm-atollic-eabi/6.3.1/../../../../arm-atollic-eabi/lib/armv7e-m/fpu\libc_nano.a(lib_a-impure.o)
 .data.__fdlib_version
                0x20000420        0x1 c:/program files (x86)/atollic/truestudio for stm32 9.3.0/armtools/bin/../lib/gcc/arm-atollic-eabi/6.3.1/../../../../arm-atollic-eabi/lib/armv7e-m/fpu\libm.a(lib_a-s_lib_ver.o)
                0x20000420                __fdlib_version
                0x20000424                . = ALIGN (0x4)
 *fill*         0x20000421        0x3 
                0x20000424                _edata = .

.igot.plt       0x20000424        0x0 load address 0x08005da4
 .igot.plt      0x20000424        0x0 c:/program files (x86)/atollic/truestudio for stm32 9.3.0/armtools/bin/../lib/gcc/arm-atollic-eabi/6.3.1/armv7e-m/fpu/crtbegin.o
                0x20000424                . = ALIGN (0x4)

.bss            0x20000428      0x5a4 load address 0x08005da4
                0x20000428                _sbss = .
                0x20000428                __bss_start__ = _sbss
 *(.bss)
 .bss           0x20000428       0x1c c:/program files (x86)/atollic/truestudio for stm32 9.3.0/armtools/bin/../lib/gcc/arm-atollic-eabi/6.3.1/armv7e-m/fpu/crtbegin.o
 *(.bss*)
 .bss.hciContext
                0x20000444       0x20 Middlewares\ST\BlueNRG-MS\hci\hci_tl_patterns\Basic\hci_tl.o
 .bss.hciReadPacketBuffer
                0x20000464      0x2bc Middlewares\ST\BlueNRG-MS\hci\hci_tl_patterns\Basic\hci_tl.o
 .bss.bnrg_expansion_board
                0x20000720        0x1 Src\app_x-cube-ble1.o
                0x20000720                bnrg_expansion_board
 *fill*         0x20000721        0x3 
 .bss.connected
                0x20000724        0x4 Src\ble_handler.o
                0x20000724                connected
 .bss.connection_handle
                0x20000728        0x2 Src\ble_handler.o
                0x20000728                connection_handle
 .bss.last_temperature
                0x2000072a        0x1 Src\ble_handler.o
                0x2000072a                last_temperature
 .bss.matrix_msgnum
                0x2000072b        0x1 Src\ble_handler.o
                0x2000072b                matrix_msgnum
 .bss.msg_received
                0x2000072c        0x4 Src\ble_handler.o
                0x2000072c                msg_received
 .bss.new_matrixVelocity
                0x20000730        0x4 Src\ble_handler.o
                0x20000730                new_matrixVelocity
 .bss.new_matrix_len
                0x20000734        0x2 Src\ble_handler.o
                0x20000734                new_matrix_len
 .bss.notification_enabled
                0x20000736        0x1 Src\ble_handler.o
                0x20000736                notification_enabled
 *fill*         0x20000737        0x1 
 .bss.v_sense   0x20000738        0x8 Src\ble_handler.o
                0x20000738                v_sense
 .bss.error_id  0x20000740        0x2 Src\error_handler.o
                0x20000740                error_id
 *fill*         0x20000742        0x2 
 .bss.id_has_changed
                0x20000744        0x4 Src\error_handler.o
                0x20000744                id_has_changed
 .bss.last_id   0x20000748        0x2 Src\error_handler.o
                0x20000748                last_id
 *fill*         0x2000074a        0x2 
 .bss.read_char_buf.8242
                0x2000074c       0xff Src\hci_tl_interface.o
 *fill*         0x2000084b        0x1 
 .bss.isBright  0x2000084c        0x4 Src\matrix_handler.o
                0x2000084c                isBright
 .bss.offset    0x20000850        0x4 Src\matrix_handler.o
                0x20000850                offset
 .bss.heap_end.9444
                0x20000854        0x4 Src\syscalls.o
 .bss.__malloc_free_list
                0x20000858        0x4 c:/program files (x86)/atollic/truestudio for stm32 9.3.0/armtools/bin/../lib/gcc/arm-atollic-eabi/6.3.1/../../../../arm-atollic-eabi/lib/armv7e-m/fpu\libc_nano.a(lib_a-nano-mallocr.o)
                0x20000858                __malloc_free_list
 .bss.__malloc_sbrk_start
                0x2000085c        0x4 c:/program files (x86)/atollic/truestudio for stm32 9.3.0/armtools/bin/../lib/gcc/arm-atollic-eabi/6.3.1/../../../../arm-atollic-eabi/lib/armv7e-m/fpu\libc_nano.a(lib_a-nano-mallocr.o)
                0x2000085c                __malloc_sbrk_start
 *(COMMON)
 COMMON         0x20000860        0x4 Drivers\STM32F4xx_HAL_Driver\Src\stm32f4xx_hal.o
                0x20000860                uwTick
 COMMON         0x20000864       0x10 Middlewares\ST\BlueNRG-MS\hci\hci_tl_patterns\Basic\hci_tl.o
                0x20000864                hciReadPktPool
                0x2000086c                hciReadPktRxQueue
 COMMON         0x20000874       0x5c Src\ble_handler.o
                0x20000874                matrixServHandle
                0x20000876                metaControllerTempCharHandle
                0x20000878                errHandle
                0x2000087a                errIdCharHandle
                0x2000087c                hadc1
                0x200008c4                metaControllerHandle
                0x200008c6                matrixHeaderCharHandle
                0x200008c8                matrixDataCharHandle
                0x200008cc                new_matrix
 COMMON         0x200008d0        0xc Src\hci_tl_interface.o
                0x200008d0                hexti0
 COMMON         0x200008dc       0x94 Src\main.o
                0x200008dc                hi2c1
                0x20000930                huart2
 COMMON         0x20000970       0x58 Src\nucleo_f411re_bus.o
                0x20000970                hspi1
 COMMON         0x200009c8        0x4 c:/program files (x86)/atollic/truestudio for stm32 9.3.0/armtools/bin/../lib/gcc/arm-atollic-eabi/6.3.1/../../../../arm-atollic-eabi/lib/armv7e-m/fpu\libc_nano.a(lib_a-reent.o)
                0x200009c8                errno
                0x200009cc                . = ALIGN (0x4)
                0x200009cc                _ebss = .
                0x200009cc                __bss_end__ = _ebss

._user_heap_stack
                0x200009cc      0x600 load address 0x08005da4
                0x200009cc                . = ALIGN (0x4)
                0x200009cc                PROVIDE (end, .)
                [!provide]                PROVIDE (_end, .)
                0x20000bcc                . = (. + _Min_Heap_Size)
 *fill*         0x200009cc      0x200 
                0x20000fcc                . = (. + _Min_Stack_Size)
 *fill*         0x20000bcc      0x400 
                0x20000fcc                . = ALIGN (0x4)

/DISCARD/
 libc.a(*)
 libm.a(*)
 libgcc.a(*)

.ARM.attributes
                0x00000000       0x30
 *(.ARM.attributes)
 .ARM.attributes
                0x00000000       0x22 c:/program files (x86)/atollic/truestudio for stm32 9.3.0/armtools/bin/../lib/gcc/arm-atollic-eabi/6.3.1/armv7e-m/fpu/crti.o
 .ARM.attributes
                0x00000022       0x34 c:/program files (x86)/atollic/truestudio for stm32 9.3.0/armtools/bin/../lib/gcc/arm-atollic-eabi/6.3.1/armv7e-m/fpu/crtbegin.o
 .ARM.attributes
                0x00000056       0x39 Drivers\STM32F4xx_HAL_Driver\Src\stm32f4xx_hal.o
 .ARM.attributes
                0x0000008f       0x39 Drivers\STM32F4xx_HAL_Driver\Src\stm32f4xx_hal_adc.o
 .ARM.attributes
                0x000000c8       0x39 Drivers\STM32F4xx_HAL_Driver\Src\stm32f4xx_hal_cortex.o
 .ARM.attributes
                0x00000101       0x39 Drivers\STM32F4xx_HAL_Driver\Src\stm32f4xx_hal_exti.o
 .ARM.attributes
                0x0000013a       0x39 Drivers\STM32F4xx_HAL_Driver\Src\stm32f4xx_hal_gpio.o
 .ARM.attributes
                0x00000173       0x39 Drivers\STM32F4xx_HAL_Driver\Src\stm32f4xx_hal_i2c.o
 .ARM.attributes
                0x000001ac       0x39 Drivers\STM32F4xx_HAL_Driver\Src\stm32f4xx_hal_rcc.o
 .ARM.attributes
                0x000001e5       0x39 Drivers\STM32F4xx_HAL_Driver\Src\stm32f4xx_hal_spi.o
 .ARM.attributes
                0x0000021e       0x39 Drivers\STM32F4xx_HAL_Driver\Src\stm32f4xx_hal_uart.o
 .ARM.attributes
                0x00000257       0x39 Middlewares\ST\BlueNRG-MS\hci\controller\bluenrg_gap_aci.o
 .ARM.attributes
                0x00000290       0x39 Middlewares\ST\BlueNRG-MS\hci\controller\bluenrg_gatt_aci.o
 .ARM.attributes
                0x000002c9       0x39 Middlewares\ST\BlueNRG-MS\hci\controller\bluenrg_hal_aci.o
 .ARM.attributes
                0x00000302       0x39 Middlewares\ST\BlueNRG-MS\hci\controller\bluenrg_utils_small.o
 .ARM.attributes
                0x0000033b       0x39 Middlewares\ST\BlueNRG-MS\hci\hci_le.o
 .ARM.attributes
                0x00000374       0x39 Middlewares\ST\BlueNRG-MS\hci\hci_tl_patterns\Basic\hci_tl.o
 .ARM.attributes
                0x000003ad       0x39 Middlewares\ST\BlueNRG-MS\utils\ble_list.o
 .ARM.attributes
                0x000003e6       0x39 Src\app_x-cube-ble1.o
 .ARM.attributes
                0x0000041f       0x39 Src\ble_handler.o
 .ARM.attributes
                0x00000458       0x39 Src\dwt_stm32_delay.o
 .ARM.attributes
                0x00000491       0x39 Src\error_handler.o
 .ARM.attributes
                0x000004ca       0x39 Src\hci_tl_interface.o
 .ARM.attributes
                0x00000503       0x39 Src\main.o
 .ARM.attributes
                0x0000053c       0x39 Src\matrix_handler.o
 .ARM.attributes
                0x00000575       0x39 Src\nucleo_f411re_bus.o
 .ARM.attributes
                0x000005ae       0x39 Src\stm32f4xx_hal_msp.o
 .ARM.attributes
                0x000005e7       0x39 Src\stm32f4xx_it.o
 .ARM.attributes
                0x00000620       0x39 Src\syscalls.o
 .ARM.attributes
                0x00000659       0x39 Src\system_stm32f4xx.o
 .ARM.attributes
                0x00000692       0x21 startup\startup_stm32f411xe.o
 .ARM.attributes
                0x000006b3       0x34 c:/program files (x86)/atollic/truestudio for stm32 9.3.0/armtools/bin/../lib/gcc/arm-atollic-eabi/6.3.1/../../../../arm-atollic-eabi/lib/armv7e-m/fpu\libc_nano.a(lib_a-calloc.o)
 .ARM.attributes
                0x000006e7       0x34 c:/program files (x86)/atollic/truestudio for stm32 9.3.0/armtools/bin/../lib/gcc/arm-atollic-eabi/6.3.1/../../../../arm-atollic-eabi/lib/armv7e-m/fpu\libc_nano.a(lib_a-impure.o)
 .ARM.attributes
                0x0000071b       0x34 c:/program files (x86)/atollic/truestudio for stm32 9.3.0/armtools/bin/../lib/gcc/arm-atollic-eabi/6.3.1/../../../../arm-atollic-eabi/lib/armv7e-m/fpu\libc_nano.a(lib_a-init.o)
 .ARM.attributes
                0x0000074f       0x34 c:/program files (x86)/atollic/truestudio for stm32 9.3.0/armtools/bin/../lib/gcc/arm-atollic-eabi/6.3.1/../../../../arm-atollic-eabi/lib/armv7e-m/fpu\libc_nano.a(lib_a-malloc.o)
 .ARM.attributes
                0x00000783       0x34 c:/program files (x86)/atollic/truestudio for stm32 9.3.0/armtools/bin/../lib/gcc/arm-atollic-eabi/6.3.1/../../../../arm-atollic-eabi/lib/armv7e-m/fpu\libc_nano.a(lib_a-memcpy-stub.o)
 .ARM.attributes
                0x000007b7       0x34 c:/program files (x86)/atollic/truestudio for stm32 9.3.0/armtools/bin/../lib/gcc/arm-atollic-eabi/6.3.1/../../../../arm-atollic-eabi/lib/armv7e-m/fpu\libc_nano.a(lib_a-memset.o)
 .ARM.attributes
                0x000007eb       0x34 c:/program files (x86)/atollic/truestudio for stm32 9.3.0/armtools/bin/../lib/gcc/arm-atollic-eabi/6.3.1/../../../../arm-atollic-eabi/lib/armv7e-m/fpu\libc_nano.a(lib_a-nano-callocr.o)
 .ARM.attributes
                0x0000081f       0x34 c:/program files (x86)/atollic/truestudio for stm32 9.3.0/armtools/bin/../lib/gcc/arm-atollic-eabi/6.3.1/../../../../arm-atollic-eabi/lib/armv7e-m/fpu\libc_nano.a(lib_a-nano-freer.o)
 .ARM.attributes
                0x00000853       0x34 c:/program files (x86)/atollic/truestudio for stm32 9.3.0/armtools/bin/../lib/gcc/arm-atollic-eabi/6.3.1/../../../../arm-atollic-eabi/lib/armv7e-m/fpu\libc_nano.a(lib_a-nano-mallocr.o)
 .ARM.attributes
                0x00000887       0x34 c:/program files (x86)/atollic/truestudio for stm32 9.3.0/armtools/bin/../lib/gcc/arm-atollic-eabi/6.3.1/../../../../arm-atollic-eabi/lib/armv7e-m/fpu\libc_nano.a(lib_a-reent.o)
 .ARM.attributes
                0x000008bb       0x34 c:/program files (x86)/atollic/truestudio for stm32 9.3.0/armtools/bin/../lib/gcc/arm-atollic-eabi/6.3.1/../../../../arm-atollic-eabi/lib/armv7e-m/fpu\libc_nano.a(lib_a-sbrkr.o)
 .ARM.attributes
                0x000008ef       0x34 c:/program files (x86)/atollic/truestudio for stm32 9.3.0/armtools/bin/../lib/gcc/arm-atollic-eabi/6.3.1/../../../../arm-atollic-eabi/lib/armv7e-m/fpu\libc_nano.a(lib_a-mlock.o)
 .ARM.attributes
                0x00000923       0x34 c:/program files (x86)/atollic/truestudio for stm32 9.3.0/armtools/bin/../lib/gcc/arm-atollic-eabi/6.3.1/../../../../arm-atollic-eabi/lib/armv7e-m/fpu\libm.a(lib_a-s_ceil.o)
 .ARM.attributes
                0x00000957       0x34 c:/program files (x86)/atollic/truestudio for stm32 9.3.0/armtools/bin/../lib/gcc/arm-atollic-eabi/6.3.1/../../../../arm-atollic-eabi/lib/armv7e-m/fpu\libm.a(lib_a-s_floor.o)
 .ARM.attributes
                0x0000098b       0x34 c:/program files (x86)/atollic/truestudio for stm32 9.3.0/armtools/bin/../lib/gcc/arm-atollic-eabi/6.3.1/../../../../arm-atollic-eabi/lib/armv7e-m/fpu\libm.a(lib_a-w_log10.o)
 .ARM.attributes
                0x000009bf       0x34 c:/program files (x86)/atollic/truestudio for stm32 9.3.0/armtools/bin/../lib/gcc/arm-atollic-eabi/6.3.1/../../../../arm-atollic-eabi/lib/armv7e-m/fpu\libm.a(lib_a-e_log10.o)
 .ARM.attributes
                0x000009f3       0x34 c:/program files (x86)/atollic/truestudio for stm32 9.3.0/armtools/bin/../lib/gcc/arm-atollic-eabi/6.3.1/../../../../arm-atollic-eabi/lib/armv7e-m/fpu\libm.a(lib_a-s_lib_ver.o)
 .ARM.attributes
                0x00000a27       0x34 c:/program files (x86)/atollic/truestudio for stm32 9.3.0/armtools/bin/../lib/gcc/arm-atollic-eabi/6.3.1/../../../../arm-atollic-eabi/lib/armv7e-m/fpu\libm.a(lib_a-s_matherr.o)
 .ARM.attributes
                0x00000a5b       0x34 c:/program files (x86)/atollic/truestudio for stm32 9.3.0/armtools/bin/../lib/gcc/arm-atollic-eabi/6.3.1/../../../../arm-atollic-eabi/lib/armv7e-m/fpu\libm.a(lib_a-s_nan.o)
 .ARM.attributes
                0x00000a8f       0x34 c:/program files (x86)/atollic/truestudio for stm32 9.3.0/armtools/bin/../lib/gcc/arm-atollic-eabi/6.3.1/../../../../arm-atollic-eabi/lib/armv7e-m/fpu\libm.a(lib_a-e_log.o)
 .ARM.attributes
                0x00000ac3       0x34 c:/program files (x86)/atollic/truestudio for stm32 9.3.0/armtools/bin/../lib/gcc/arm-atollic-eabi/6.3.1/../../../../arm-atollic-eabi/lib/armv7e-m/fpu\libc_nano.a(lib_a-errno.o)
 .ARM.attributes
                0x00000af7       0x22 c:/program files (x86)/atollic/truestudio for stm32 9.3.0/armtools/bin/../lib/gcc/arm-atollic-eabi/6.3.1/armv7e-m/fpu\libgcc.a(_arm_addsubdf3.o)
 .ARM.attributes
                0x00000b19       0x22 c:/program files (x86)/atollic/truestudio for stm32 9.3.0/armtools/bin/../lib/gcc/arm-atollic-eabi/6.3.1/armv7e-m/fpu\libgcc.a(_arm_muldivdf3.o)
 .ARM.attributes
                0x00000b3b       0x22 c:/program files (x86)/atollic/truestudio for stm32 9.3.0/armtools/bin/../lib/gcc/arm-atollic-eabi/6.3.1/armv7e-m/fpu\libgcc.a(_arm_cmpdf2.o)
 .ARM.attributes
                0x00000b5d       0x22 c:/program files (x86)/atollic/truestudio for stm32 9.3.0/armtools/bin/../lib/gcc/arm-atollic-eabi/6.3.1/armv7e-m/fpu\libgcc.a(_arm_unorddf2.o)
 .ARM.attributes
                0x00000b7f       0x22 c:/program files (x86)/atollic/truestudio for stm32 9.3.0/armtools/bin/../lib/gcc/arm-atollic-eabi/6.3.1/armv7e-m/fpu\libgcc.a(_arm_fixdfsi.o)
 .ARM.attributes
                0x00000ba1       0x22 c:/program files (x86)/atollic/truestudio for stm32 9.3.0/armtools/bin/../lib/gcc/arm-atollic-eabi/6.3.1/armv7e-m/fpu\libgcc.a(_aeabi_uldivmod.o)
 .ARM.attributes
                0x00000bc3       0x34 c:/program files (x86)/atollic/truestudio for stm32 9.3.0/armtools/bin/../lib/gcc/arm-atollic-eabi/6.3.1/armv7e-m/fpu\libgcc.a(_udivmoddi4.o)
 .ARM.attributes
                0x00000bf7       0x22 c:/program files (x86)/atollic/truestudio for stm32 9.3.0/armtools/bin/../lib/gcc/arm-atollic-eabi/6.3.1/armv7e-m/fpu\libgcc.a(_dvmd_tls.o)
 .ARM.attributes
                0x00000c19       0x22 c:/program files (x86)/atollic/truestudio for stm32 9.3.0/armtools/bin/../lib/gcc/arm-atollic-eabi/6.3.1/armv7e-m/fpu/crtn.o
OUTPUT(VoiceLEDController.elf elf32-littlearm)

.debug_info     0x00000000    0x25def
 .debug_info    0x00000000      0x95f Drivers\STM32F4xx_HAL_Driver\Src\stm32f4xx_hal.o
 .debug_info    0x0000095f      0xdb7 Drivers\STM32F4xx_HAL_Driver\Src\stm32f4xx_hal_adc.o
 .debug_info    0x00001716      0xeab Drivers\STM32F4xx_HAL_Driver\Src\stm32f4xx_hal_cortex.o
 .debug_info    0x000025c1      0x4c3 Drivers\STM32F4xx_HAL_Driver\Src\stm32f4xx_hal_exti.o
 .debug_info    0x00002a84      0x798 Drivers\STM32F4xx_HAL_Driver\Src\stm32f4xx_hal_gpio.o
 .debug_info    0x0000321c     0x3282 Drivers\STM32F4xx_HAL_Driver\Src\stm32f4xx_hal_i2c.o
 .debug_info    0x0000649e      0xa63 Drivers\STM32F4xx_HAL_Driver\Src\stm32f4xx_hal_rcc.o
 .debug_info    0x00006f01     0x1b2e Drivers\STM32F4xx_HAL_Driver\Src\stm32f4xx_hal_spi.o
 .debug_info    0x00008a2f     0x1727 Drivers\STM32F4xx_HAL_Driver\Src\stm32f4xx_hal_uart.o
 .debug_info    0x0000a156     0x33d5 Middlewares\ST\BlueNRG-MS\hci\controller\bluenrg_gap_aci.o
 .debug_info    0x0000d52b     0x371b Middlewares\ST\BlueNRG-MS\hci\controller\bluenrg_gatt_aci.o
 .debug_info    0x00010c46     0x14bb Middlewares\ST\BlueNRG-MS\hci\controller\bluenrg_hal_aci.o
 .debug_info    0x00012101     0x1017 Middlewares\ST\BlueNRG-MS\hci\controller\bluenrg_utils_small.o
 .debug_info    0x00013118     0x258b Middlewares\ST\BlueNRG-MS\hci\hci_le.o
 .debug_info    0x000156a3     0x1873 Middlewares\ST\BlueNRG-MS\hci\hci_tl_patterns\Basic\hci_tl.o
 .debug_info    0x00016f16      0xfa4 Middlewares\ST\BlueNRG-MS\utils\ble_list.o
 .debug_info    0x00017eba     0x134a Src\app_x-cube-ble1.o
 .debug_info    0x00019204     0x1e31 Src\ble_handler.o
 .debug_info    0x0001b035      0x245 Src\dwt_stm32_delay.o
 .debug_info    0x0001b27a      0x122 Src\error_handler.o
 .debug_info    0x0001b39c     0x1906 Src\hci_tl_interface.o
 .debug_info    0x0001cca2     0x243f Src\main.o
 .debug_info    0x0001f0e1     0x1cf4 Src\matrix_handler.o
 .debug_info    0x00020dd5      0xcea Src\nucleo_f411re_bus.o
 .debug_info    0x00021abf     0x1a92 Src\stm32f4xx_hal_msp.o
 .debug_info    0x00023551      0xf6c Src\stm32f4xx_it.o
 .debug_info    0x000244bd     0x1341 Src\syscalls.o
 .debug_info    0x000257fe      0x534 Src\system_stm32f4xx.o
 .debug_info    0x00025d32       0xbd startup\startup_stm32f411xe.o

.debug_abbrev   0x00000000     0x41a8
 .debug_abbrev  0x00000000      0x217 Drivers\STM32F4xx_HAL_Driver\Src\stm32f4xx_hal.o
 .debug_abbrev  0x00000217      0x205 Drivers\STM32F4xx_HAL_Driver\Src\stm32f4xx_hal_adc.o
 .debug_abbrev  0x0000041c      0x323 Drivers\STM32F4xx_HAL_Driver\Src\stm32f4xx_hal_cortex.o
 .debug_abbrev  0x0000073f      0x21f Drivers\STM32F4xx_HAL_Driver\Src\stm32f4xx_hal_exti.o
 .debug_abbrev  0x0000095e      0x1e2 Drivers\STM32F4xx_HAL_Driver\Src\stm32f4xx_hal_gpio.o
 .debug_abbrev  0x00000b40      0x28e Drivers\STM32F4xx_HAL_Driver\Src\stm32f4xx_hal_i2c.o
 .debug_abbrev  0x00000dce      0x26e Drivers\STM32F4xx_HAL_Driver\Src\stm32f4xx_hal_rcc.o
 .debug_abbrev  0x0000103c      0x244 Drivers\STM32F4xx_HAL_Driver\Src\stm32f4xx_hal_spi.o
 .debug_abbrev  0x00001280      0x27a Drivers\STM32F4xx_HAL_Driver\Src\stm32f4xx_hal_uart.o
 .debug_abbrev  0x000014fa      0x286 Middlewares\ST\BlueNRG-MS\hci\controller\bluenrg_gap_aci.o
 .debug_abbrev  0x00001780      0x29a Middlewares\ST\BlueNRG-MS\hci\controller\bluenrg_gatt_aci.o
 .debug_abbrev  0x00001a1a      0x246 Middlewares\ST\BlueNRG-MS\hci\controller\bluenrg_hal_aci.o
 .debug_abbrev  0x00001c60      0x1e7 Middlewares\ST\BlueNRG-MS\hci\controller\bluenrg_utils_small.o
 .debug_abbrev  0x00001e47      0x277 Middlewares\ST\BlueNRG-MS\hci\hci_le.o
 .debug_abbrev  0x000020be      0x369 Middlewares\ST\BlueNRG-MS\hci\hci_tl_patterns\Basic\hci_tl.o
 .debug_abbrev  0x00002427      0x286 Middlewares\ST\BlueNRG-MS\utils\ble_list.o
 .debug_abbrev  0x000026ad      0x239 Src\app_x-cube-ble1.o
 .debug_abbrev  0x000028e6      0x3ab Src\ble_handler.o
 .debug_abbrev  0x00002c91      0x141 Src\dwt_stm32_delay.o
 .debug_abbrev  0x00002dd2       0xb6 Src\error_handler.o
 .debug_abbrev  0x00002e88      0x2aa Src\hci_tl_interface.o
 .debug_abbrev  0x00003132      0x2fd Src\main.o
 .debug_abbrev  0x0000342f      0x369 Src\matrix_handler.o
 .debug_abbrev  0x00003798      0x1fc Src\nucleo_f411re_bus.o
 .debug_abbrev  0x00003994      0x21b Src\stm32f4xx_hal_msp.o
 .debug_abbrev  0x00003baf      0x1ed Src\stm32f4xx_it.o
 .debug_abbrev  0x00003d9c      0x2ec Src\syscalls.o
 .debug_abbrev  0x00004088      0x10e Src\system_stm32f4xx.o
 .debug_abbrev  0x00004196       0x12 startup\startup_stm32f411xe.o

.debug_loc      0x00000000     0xfa7a
 .debug_loc     0x00000000      0x108 Drivers\STM32F4xx_HAL_Driver\Src\stm32f4xx_hal.o
 .debug_loc     0x00000108      0x982 Drivers\STM32F4xx_HAL_Driver\Src\stm32f4xx_hal_adc.o
 .debug_loc     0x00000a8a      0x616 Drivers\STM32F4xx_HAL_Driver\Src\stm32f4xx_hal_cortex.o
 .debug_loc     0x000010a0      0x294 Drivers\STM32F4xx_HAL_Driver\Src\stm32f4xx_hal_exti.o
 .debug_loc     0x00001334      0x408 Drivers\STM32F4xx_HAL_Driver\Src\stm32f4xx_hal_gpio.o
 .debug_loc     0x0000173c     0x366d Drivers\STM32F4xx_HAL_Driver\Src\stm32f4xx_hal_i2c.o
 .debug_loc     0x00004da9      0x3e6 Drivers\STM32F4xx_HAL_Driver\Src\stm32f4xx_hal_rcc.o
 .debug_loc     0x0000518f     0x19ad Drivers\STM32F4xx_HAL_Driver\Src\stm32f4xx_hal_spi.o
 .debug_loc     0x00006b3c     0x1547 Drivers\STM32F4xx_HAL_Driver\Src\stm32f4xx_hal_uart.o
 .debug_loc     0x00008083     0x20c1 Middlewares\ST\BlueNRG-MS\hci\controller\bluenrg_gap_aci.o
 .debug_loc     0x0000a144     0x2627 Middlewares\ST\BlueNRG-MS\hci\controller\bluenrg_gatt_aci.o
 .debug_loc     0x0000c76b      0x2bf Middlewares\ST\BlueNRG-MS\hci\controller\bluenrg_hal_aci.o
 .debug_loc     0x0000ca2a       0x3c Middlewares\ST\BlueNRG-MS\hci\controller\bluenrg_utils_small.o
 .debug_loc     0x0000ca66      0x963 Middlewares\ST\BlueNRG-MS\hci\hci_le.o
 .debug_loc     0x0000d3c9      0x496 Middlewares\ST\BlueNRG-MS\hci\hci_tl_patterns\Basic\hci_tl.o
 .debug_loc     0x0000d85f      0x131 Middlewares\ST\BlueNRG-MS\utils\ble_list.o
 .debug_loc     0x0000d990       0x9e Src\app_x-cube-ble1.o
 .debug_loc     0x0000da2e      0x7b4 Src\ble_handler.o
 .debug_loc     0x0000e1e2       0x83 Src\dwt_stm32_delay.o
 .debug_loc     0x0000e265      0x1a1 Src\hci_tl_interface.o
 .debug_loc     0x0000e406       0x44 Src\main.o
 .debug_loc     0x0000e44a      0xd3d Src\matrix_handler.o
 .debug_loc     0x0000f187      0x262 Src\nucleo_f411re_bus.o
 .debug_loc     0x0000f3e9      0x15c Src\stm32f4xx_hal_msp.o
 .debug_loc     0x0000f545      0x3f7 Src\syscalls.o
 .debug_loc     0x0000f93c      0x13e Src\system_stm32f4xx.o

.debug_aranges  0x00000000     0x13c8
 .debug_aranges
                0x00000000       0xf0 Drivers\STM32F4xx_HAL_Driver\Src\stm32f4xx_hal.o
 .debug_aranges
                0x000000f0       0xe8 Drivers\STM32F4xx_HAL_Driver\Src\stm32f4xx_hal_adc.o
 .debug_aranges
                0x000001d8       0xa8 Drivers\STM32F4xx_HAL_Driver\Src\stm32f4xx_hal_cortex.o
 .debug_aranges
                0x00000280       0x60 Drivers\STM32F4xx_HAL_Driver\Src\stm32f4xx_hal_exti.o
 .debug_aranges
                0x000002e0       0x58 Drivers\STM32F4xx_HAL_Driver\Src\stm32f4xx_hal_gpio.o
 .debug_aranges
                0x00000338      0x290 Drivers\STM32F4xx_HAL_Driver\Src\stm32f4xx_hal_i2c.o
 .debug_aranges
                0x000005c8       0x88 Drivers\STM32F4xx_HAL_Driver\Src\stm32f4xx_hal_rcc.o
 .debug_aranges
                0x00000650      0x1d0 Drivers\STM32F4xx_HAL_Driver\Src\stm32f4xx_hal_spi.o
 .debug_aranges
                0x00000820      0x1d0 Drivers\STM32F4xx_HAL_Driver\Src\stm32f4xx_hal_uart.o
 .debug_aranges
                0x000009f0      0x168 Middlewares\ST\BlueNRG-MS\hci\controller\bluenrg_gap_aci.o
 .debug_aranges
                0x00000b58      0x178 Middlewares\ST\BlueNRG-MS\hci\controller\bluenrg_gatt_aci.o
 .debug_aranges
                0x00000cd0       0x68 Middlewares\ST\BlueNRG-MS\hci\controller\bluenrg_hal_aci.o
 .debug_aranges
                0x00000d38       0x20 Middlewares\ST\BlueNRG-MS\hci\controller\bluenrg_utils_small.o
 .debug_aranges
                0x00000d58      0x110 Middlewares\ST\BlueNRG-MS\hci\hci_le.o
 .debug_aranges
                0x00000e68       0x60 Middlewares\ST\BlueNRG-MS\hci\hci_tl_patterns\Basic\hci_tl.o
 .debug_aranges
                0x00000ec8       0x78 Middlewares\ST\BlueNRG-MS\utils\ble_list.o
 .debug_aranges
                0x00000f40       0x28 Src\app_x-cube-ble1.o
 .debug_aranges
                0x00000f68       0x98 Src\ble_handler.o
 .debug_aranges
                0x00001000       0x28 Src\dwt_stm32_delay.o
 .debug_aranges
                0x00001028       0x38 Src\error_handler.o
 .debug_aranges
                0x00001060       0x58 Src\hci_tl_interface.o
 .debug_aranges
                0x000010b8       0x58 Src\main.o
 .debug_aranges
                0x00001110       0x88 Src\matrix_handler.o
 .debug_aranges
                0x00001198       0x60 Src\nucleo_f411re_bus.o
 .debug_aranges
                0x000011f8       0x50 Src\stm32f4xx_hal_msp.o
 .debug_aranges
                0x00001248       0x68 Src\stm32f4xx_it.o
 .debug_aranges
                0x000012b0       0xc8 Src\syscalls.o
 .debug_aranges
                0x00001378       0x28 Src\system_stm32f4xx.o
 .debug_aranges
                0x000013a0       0x28 startup\startup_stm32f411xe.o

.debug_ranges   0x00000000     0x1438
 .debug_ranges  0x00000000       0xe0 Drivers\STM32F4xx_HAL_Driver\Src\stm32f4xx_hal.o
 .debug_ranges  0x000000e0       0xd8 Drivers\STM32F4xx_HAL_Driver\Src\stm32f4xx_hal_adc.o
 .debug_ranges  0x000001b8       0xf8 Drivers\STM32F4xx_HAL_Driver\Src\stm32f4xx_hal_cortex.o
 .debug_ranges  0x000002b0       0x50 Drivers\STM32F4xx_HAL_Driver\Src\stm32f4xx_hal_exti.o
 .debug_ranges  0x00000300       0x48 Drivers\STM32F4xx_HAL_Driver\Src\stm32f4xx_hal_gpio.o
 .debug_ranges  0x00000348      0x298 Drivers\STM32F4xx_HAL_Driver\Src\stm32f4xx_hal_i2c.o
 .debug_ranges  0x000005e0       0x90 Drivers\STM32F4xx_HAL_Driver\Src\stm32f4xx_hal_rcc.o
 .debug_ranges  0x00000670      0x1c0 Drivers\STM32F4xx_HAL_Driver\Src\stm32f4xx_hal_spi.o
 .debug_ranges  0x00000830      0x1c0 Drivers\STM32F4xx_HAL_Driver\Src\stm32f4xx_hal_uart.o
 .debug_ranges  0x000009f0      0x158 Middlewares\ST\BlueNRG-MS\hci\controller\bluenrg_gap_aci.o
 .debug_ranges  0x00000b48      0x168 Middlewares\ST\BlueNRG-MS\hci\controller\bluenrg_gatt_aci.o
 .debug_ranges  0x00000cb0       0x70 Middlewares\ST\BlueNRG-MS\hci\controller\bluenrg_hal_aci.o
 .debug_ranges  0x00000d20       0x10 Middlewares\ST\BlueNRG-MS\hci\controller\bluenrg_utils_small.o
 .debug_ranges  0x00000d30      0x100 Middlewares\ST\BlueNRG-MS\hci\hci_le.o
 .debug_ranges  0x00000e30       0x70 Middlewares\ST\BlueNRG-MS\hci\hci_tl_patterns\Basic\hci_tl.o
 .debug_ranges  0x00000ea0       0x68 Middlewares\ST\BlueNRG-MS\utils\ble_list.o
 .debug_ranges  0x00000f08       0x18 Src\app_x-cube-ble1.o
 .debug_ranges  0x00000f20       0xb8 Src\ble_handler.o
 .debug_ranges  0x00000fd8       0x18 Src\dwt_stm32_delay.o
 .debug_ranges  0x00000ff0       0x28 Src\error_handler.o
 .debug_ranges  0x00001018       0x48 Src\hci_tl_interface.o
 .debug_ranges  0x00001060       0x48 Src\main.o
 .debug_ranges  0x000010a8      0x1a0 Src\matrix_handler.o
 .debug_ranges  0x00001248       0x50 Src\nucleo_f411re_bus.o
 .debug_ranges  0x00001298       0x40 Src\stm32f4xx_hal_msp.o
 .debug_ranges  0x000012d8       0x58 Src\stm32f4xx_it.o
 .debug_ranges  0x00001330       0xd0 Src\syscalls.o
 .debug_ranges  0x00001400       0x18 Src\system_stm32f4xx.o
 .debug_ranges  0x00001418       0x20 startup\startup_stm32f411xe.o

.debug_line     0x00000000     0xa567
 .debug_line    0x00000000      0x424 Drivers\STM32F4xx_HAL_Driver\Src\stm32f4xx_hal.o
 .debug_line    0x00000424      0x6d8 Drivers\STM32F4xx_HAL_Driver\Src\stm32f4xx_hal_adc.o
 .debug_line    0x00000afc      0x43f Drivers\STM32F4xx_HAL_Driver\Src\stm32f4xx_hal_cortex.o
 .debug_line    0x00000f3b      0x32d Drivers\STM32F4xx_HAL_Driver\Src\stm32f4xx_hal_exti.o
 .debug_line    0x00001268      0x387 Drivers\STM32F4xx_HAL_Driver\Src\stm32f4xx_hal_gpio.o
 .debug_line    0x000015ef     0x17c1 Drivers\STM32F4xx_HAL_Driver\Src\stm32f4xx_hal_i2c.o
 .debug_line    0x00002db0      0x4bf Drivers\STM32F4xx_HAL_Driver\Src\stm32f4xx_hal_rcc.o
 .debug_line    0x0000326f      0xc4e Drivers\STM32F4xx_HAL_Driver\Src\stm32f4xx_hal_spi.o
 .debug_line    0x00003ebd      0xb8f Drivers\STM32F4xx_HAL_Driver\Src\stm32f4xx_hal_uart.o
 .debug_line    0x00004a4c      0x8e6 Middlewares\ST\BlueNRG-MS\hci\controller\bluenrg_gap_aci.o
 .debug_line    0x00005332      0x9a9 Middlewares\ST\BlueNRG-MS\hci\controller\bluenrg_gatt_aci.o
 .debug_line    0x00005cdb      0x4ab Middlewares\ST\BlueNRG-MS\hci\controller\bluenrg_hal_aci.o
 .debug_line    0x00006186      0x33b Middlewares\ST\BlueNRG-MS\hci\controller\bluenrg_utils_small.o
 .debug_line    0x000064c1      0x77a Middlewares\ST\BlueNRG-MS\hci\hci_le.o
 .debug_line    0x00006c3b      0x4cb Middlewares\ST\BlueNRG-MS\hci\hci_tl_patterns\Basic\hci_tl.o
 .debug_line    0x00007106      0x422 Middlewares\ST\BlueNRG-MS\utils\ble_list.o
 .debug_line    0x00007528      0x43e Src\app_x-cube-ble1.o
 .debug_line    0x00007966      0x5e0 Src\ble_handler.o
 .debug_line    0x00007f46      0x20b Src\dwt_stm32_delay.o
 .debug_line    0x00008151      0x163 Src\error_handler.o
 .debug_line    0x000082b4      0x450 Src\hci_tl_interface.o
 .debug_line    0x00008704      0x59e Src\main.o
 .debug_line    0x00008ca2      0x67c Src\matrix_handler.o
 .debug_line    0x0000931e      0x323 Src\nucleo_f411re_bus.o
 .debug_line    0x00009641      0x45f Src\stm32f4xx_hal_msp.o
 .debug_line    0x00009aa0      0x3f4 Src\stm32f4xx_it.o
 .debug_line    0x00009e94      0x477 Src\syscalls.o
 .debug_line    0x0000a30b      0x1dd Src\system_stm32f4xx.o
 .debug_line    0x0000a4e8       0x7f startup\startup_stm32f411xe.o

.debug_str      0x00000000     0x7062
 .debug_str     0x00000000      0xa46 Drivers\STM32F4xx_HAL_Driver\Src\stm32f4xx_hal.o
                                0xab4 (size before relaxing)
 .debug_str     0x00000a46      0x6c8 Drivers\STM32F4xx_HAL_Driver\Src\stm32f4xx_hal_adc.o
                                0x9ee (size before relaxing)
 .debug_str     0x0000110e      0x4a1 Drivers\STM32F4xx_HAL_Driver\Src\stm32f4xx_hal_cortex.o
                                0xb6d (size before relaxing)
 .debug_str     0x000015af      0x20d Drivers\STM32F4xx_HAL_Driver\Src\stm32f4xx_hal_exti.o
                                0x4b1 (size before relaxing)
 .debug_str     0x000017bc      0x1b0 Drivers\STM32F4xx_HAL_Driver\Src\stm32f4xx_hal_gpio.o
                                0x59d (size before relaxing)
 .debug_str     0x0000196c      0xb21 Drivers\STM32F4xx_HAL_Driver\Src\stm32f4xx_hal_i2c.o
                               0x109d (size before relaxing)
 .debug_str     0x0000248d      0x2c9 Drivers\STM32F4xx_HAL_Driver\Src\stm32f4xx_hal_rcc.o
                                0x770 (size before relaxing)
 .debug_str     0x00002756      0x6d5 Drivers\STM32F4xx_HAL_Driver\Src\stm32f4xx_hal_spi.o
                                0xc74 (size before relaxing)
 .debug_str     0x00002e2b      0x67d Drivers\STM32F4xx_HAL_Driver\Src\stm32f4xx_hal_uart.o
                                0xcb3 (size before relaxing)
 .debug_str     0x000034a8     0x1209 Middlewares\ST\BlueNRG-MS\hci\controller\bluenrg_gap_aci.o
                               0x1d3f (size before relaxing)
 .debug_str     0x000046b1      0xc7c Middlewares\ST\BlueNRG-MS\hci\controller\bluenrg_gatt_aci.o
                               0x1ba5 (size before relaxing)
 .debug_str     0x0000532d      0x248 Middlewares\ST\BlueNRG-MS\hci\controller\bluenrg_hal_aci.o
                                0xe73 (size before relaxing)
 .debug_str     0x00005575      0x1c3 Middlewares\ST\BlueNRG-MS\hci\controller\bluenrg_utils_small.o
                                0xc7b (size before relaxing)
 .debug_str     0x00005738      0x74b Middlewares\ST\BlueNRG-MS\hci\hci_le.o
                               0x16c0 (size before relaxing)
 .debug_str     0x00005e83      0x2d3 Middlewares\ST\BlueNRG-MS\hci\hci_tl_patterns\Basic\hci_tl.o
                                0xeaa (size before relaxing)
 .debug_str     0x00006156       0xf3 Middlewares\ST\BlueNRG-MS\utils\ble_list.o
                                0x801 (size before relaxing)
 .debug_str     0x00006249      0x148 Src\app_x-cube-ble1.o
                                0xe3f (size before relaxing)
 .debug_str     0x00006391      0x3ee Src\ble_handler.o
                               0x13e8 (size before relaxing)
 .debug_str     0x0000677f       0x40 Src\dwt_stm32_delay.o
                                0x2e4 (size before relaxing)
 .debug_str     0x000067bf       0x44 Src\error_handler.o
                                0x243 (size before relaxing)
 .debug_str     0x00006803      0x101 Src\hci_tl_interface.o
                               0x129a (size before relaxing)
 .debug_str     0x00006904       0xc8 Src\main.o
                               0x19b3 (size before relaxing)
 .debug_str     0x000069cc      0x238 Src\matrix_handler.o
                               0x10c9 (size before relaxing)
 .debug_str     0x00006c04       0x86 Src\nucleo_f411re_bus.o
                                0x998 (size before relaxing)
 .debug_str     0x00006c8a       0x1b Src\stm32f4xx_hal_msp.o
                               0x12e3 (size before relaxing)
 .debug_str     0x00006ca5       0xb7 Src\stm32f4xx_it.o
                                0xc33 (size before relaxing)
 .debug_str     0x00006d5c      0x2c1 Src\syscalls.o
                                0xa20 (size before relaxing)
 .debug_str     0x0000701d       0x45 Src\system_stm32f4xx.o
                                0x401 (size before relaxing)

.comment        0x00000000       0x7c
 .comment       0x00000000       0x7c Drivers\STM32F4xx_HAL_Driver\Src\stm32f4xx_hal.o
                                 0x7d (size before relaxing)
 .comment       0x0000007c       0x7d Drivers\STM32F4xx_HAL_Driver\Src\stm32f4xx_hal_adc.o
 .comment       0x0000007c       0x7d Drivers\STM32F4xx_HAL_Driver\Src\stm32f4xx_hal_cortex.o
 .comment       0x0000007c       0x7d Drivers\STM32F4xx_HAL_Driver\Src\stm32f4xx_hal_exti.o
 .comment       0x0000007c       0x7d Drivers\STM32F4xx_HAL_Driver\Src\stm32f4xx_hal_gpio.o
 .comment       0x0000007c       0x7d Drivers\STM32F4xx_HAL_Driver\Src\stm32f4xx_hal_i2c.o
 .comment       0x0000007c       0x7d Drivers\STM32F4xx_HAL_Driver\Src\stm32f4xx_hal_rcc.o
 .comment       0x0000007c       0x7d Drivers\STM32F4xx_HAL_Driver\Src\stm32f4xx_hal_spi.o
 .comment       0x0000007c       0x7d Drivers\STM32F4xx_HAL_Driver\Src\stm32f4xx_hal_uart.o
 .comment       0x0000007c       0x7d Middlewares\ST\BlueNRG-MS\hci\controller\bluenrg_gap_aci.o
 .comment       0x0000007c       0x7d Middlewares\ST\BlueNRG-MS\hci\controller\bluenrg_gatt_aci.o
 .comment       0x0000007c       0x7d Middlewares\ST\BlueNRG-MS\hci\controller\bluenrg_hal_aci.o
 .comment       0x0000007c       0x7d Middlewares\ST\BlueNRG-MS\hci\controller\bluenrg_utils_small.o
 .comment       0x0000007c       0x7d Middlewares\ST\BlueNRG-MS\hci\hci_le.o
 .comment       0x0000007c       0x7d Middlewares\ST\BlueNRG-MS\hci\hci_tl_patterns\Basic\hci_tl.o
 .comment       0x0000007c       0x7d Middlewares\ST\BlueNRG-MS\utils\ble_list.o
 .comment       0x0000007c       0x7d Src\app_x-cube-ble1.o
 .comment       0x0000007c       0x7d Src\ble_handler.o
 .comment       0x0000007c       0x7d Src\dwt_stm32_delay.o
 .comment       0x0000007c       0x7d Src\error_handler.o
 .comment       0x0000007c       0x7d Src\hci_tl_interface.o
 .comment       0x0000007c       0x7d Src\main.o
 .comment       0x0000007c       0x7d Src\matrix_handler.o
 .comment       0x0000007c       0x7d Src\nucleo_f411re_bus.o
 .comment       0x0000007c       0x7d Src\stm32f4xx_hal_msp.o
 .comment       0x0000007c       0x7d Src\stm32f4xx_it.o
 .comment       0x0000007c       0x7d Src\syscalls.o
 .comment       0x0000007c       0x7d Src\system_stm32f4xx.o

.debug_frame    0x00000000     0x3f44
 .debug_frame   0x00000000      0x1ec Drivers\STM32F4xx_HAL_Driver\Src\stm32f4xx_hal.o
 .debug_frame   0x000001ec      0x27c Drivers\STM32F4xx_HAL_Driver\Src\stm32f4xx_hal_adc.o
 .debug_frame   0x00000468      0x15c Drivers\STM32F4xx_HAL_Driver\Src\stm32f4xx_hal_cortex.o
 .debug_frame   0x000005c4       0xb8 Drivers\STM32F4xx_HAL_Driver\Src\stm32f4xx_hal_exti.o
 .debug_frame   0x0000067c       0xd0 Drivers\STM32F4xx_HAL_Driver\Src\stm32f4xx_hal_gpio.o
 .debug_frame   0x0000074c      0x8ec Drivers\STM32F4xx_HAL_Driver\Src\stm32f4xx_hal_i2c.o
 .debug_frame   0x00001038      0x174 Drivers\STM32F4xx_HAL_Driver\Src\stm32f4xx_hal_rcc.o
 .debug_frame   0x000011ac      0x590 Drivers\STM32F4xx_HAL_Driver\Src\stm32f4xx_hal_spi.o
 .debug_frame   0x0000173c      0x4e8 Drivers\STM32F4xx_HAL_Driver\Src\stm32f4xx_hal_uart.o
 .debug_frame   0x00001c24      0x58c Middlewares\ST\BlueNRG-MS\hci\controller\bluenrg_gap_aci.o
 .debug_frame   0x000021b0      0x5cc Middlewares\ST\BlueNRG-MS\hci\controller\bluenrg_gatt_aci.o
 .debug_frame   0x0000277c      0x158 Middlewares\ST\BlueNRG-MS\hci\controller\bluenrg_hal_aci.o
 .debug_frame   0x000028d4       0x30 Middlewares\ST\BlueNRG-MS\hci\controller\bluenrg_utils_small.o
 .debug_frame   0x00002904      0x410 Middlewares\ST\BlueNRG-MS\hci\hci_le.o
 .debug_frame   0x00002d14      0x108 Middlewares\ST\BlueNRG-MS\hci\hci_tl_patterns\Basic\hci_tl.o
 .debug_frame   0x00002e1c       0xe8 Middlewares\ST\BlueNRG-MS\utils\ble_list.o
 .debug_frame   0x00002f04       0x48 Src\app_x-cube-ble1.o
 .debug_frame   0x00002f4c      0x1a8 Src\ble_handler.o
 .debug_frame   0x000030f4       0x48 Src\dwt_stm32_delay.o
 .debug_frame   0x0000313c       0x58 Src\error_handler.o
 .debug_frame   0x00003194       0xfc Src\hci_tl_interface.o
 .debug_frame   0x00003290       0xec Src\main.o
 .debug_frame   0x0000337c      0x19c Src\matrix_handler.o
 .debug_frame   0x00003518       0xfc Src\nucleo_f411re_bus.o
 .debug_frame   0x00003614       0xd8 Src\stm32f4xx_hal_msp.o
 .debug_frame   0x000036ec       0xc0 Src\stm32f4xx_it.o
 .debug_frame   0x000037ac      0x17c Src\syscalls.o
 .debug_frame   0x00003928       0x30 Src\system_stm32f4xx.o
 .debug_frame   0x00003958       0x20 c:/program files (x86)/atollic/truestudio for stm32 9.3.0/armtools/bin/../lib/gcc/arm-atollic-eabi/6.3.1/../../../../arm-atollic-eabi/lib/armv7e-m/fpu\libc_nano.a(lib_a-calloc.o)
 .debug_frame   0x00003978       0x2c c:/program files (x86)/atollic/truestudio for stm32 9.3.0/armtools/bin/../lib/gcc/arm-atollic-eabi/6.3.1/../../../../arm-atollic-eabi/lib/armv7e-m/fpu\libc_nano.a(lib_a-init.o)
 .debug_frame   0x000039a4       0x30 c:/program files (x86)/atollic/truestudio for stm32 9.3.0/armtools/bin/../lib/gcc/arm-atollic-eabi/6.3.1/../../../../arm-atollic-eabi/lib/armv7e-m/fpu\libc_nano.a(lib_a-malloc.o)
 .debug_frame   0x000039d4       0x28 c:/program files (x86)/atollic/truestudio for stm32 9.3.0/armtools/bin/../lib/gcc/arm-atollic-eabi/6.3.1/../../../../arm-atollic-eabi/lib/armv7e-m/fpu\libc_nano.a(lib_a-memcpy-stub.o)
 .debug_frame   0x000039fc       0x20 c:/program files (x86)/atollic/truestudio for stm32 9.3.0/armtools/bin/../lib/gcc/arm-atollic-eabi/6.3.1/../../../../arm-atollic-eabi/lib/armv7e-m/fpu\libc_nano.a(lib_a-memset.o)
 .debug_frame   0x00003a1c       0x2c c:/program files (x86)/atollic/truestudio for stm32 9.3.0/armtools/bin/../lib/gcc/arm-atollic-eabi/6.3.1/../../../../arm-atollic-eabi/lib/armv7e-m/fpu\libc_nano.a(lib_a-nano-callocr.o)
 .debug_frame   0x00003a48       0x38 c:/program files (x86)/atollic/truestudio for stm32 9.3.0/armtools/bin/../lib/gcc/arm-atollic-eabi/6.3.1/../../../../arm-atollic-eabi/lib/armv7e-m/fpu\libc_nano.a(lib_a-nano-freer.o)
 .debug_frame   0x00003a80       0x2c c:/program files (x86)/atollic/truestudio for stm32 9.3.0/armtools/bin/../lib/gcc/arm-atollic-eabi/6.3.1/../../../../arm-atollic-eabi/lib/armv7e-m/fpu\libc_nano.a(lib_a-nano-mallocr.o)
 .debug_frame   0x00003aac       0x5c c:/program files (x86)/atollic/truestudio for stm32 9.3.0/armtools/bin/../lib/gcc/arm-atollic-eabi/6.3.1/../../../../arm-atollic-eabi/lib/armv7e-m/fpu\libc_nano.a(lib_a-reent.o)
 .debug_frame   0x00003b08       0x2c c:/program files (x86)/atollic/truestudio for stm32 9.3.0/armtools/bin/../lib/gcc/arm-atollic-eabi/6.3.1/../../../../arm-atollic-eabi/lib/armv7e-m/fpu\libc_nano.a(lib_a-sbrkr.o)
 .debug_frame   0x00003b34       0x30 c:/program files (x86)/atollic/truestudio for stm32 9.3.0/armtools/bin/../lib/gcc/arm-atollic-eabi/6.3.1/../../../../arm-atollic-eabi/lib/armv7e-m/fpu\libc_nano.a(lib_a-mlock.o)
 .debug_frame   0x00003b64       0x30 c:/program files (x86)/atollic/truestudio for stm32 9.3.0/armtools/bin/../lib/gcc/arm-atollic-eabi/6.3.1/../../../../arm-atollic-eabi/lib/armv7e-m/fpu\libm.a(lib_a-s_ceil.o)
 .debug_frame   0x00003b94       0x30 c:/program files (x86)/atollic/truestudio for stm32 9.3.0/armtools/bin/../lib/gcc/arm-atollic-eabi/6.3.1/../../../../arm-atollic-eabi/lib/armv7e-m/fpu\libm.a(lib_a-s_floor.o)
 .debug_frame   0x00003bc4       0x44 c:/program files (x86)/atollic/truestudio for stm32 9.3.0/armtools/bin/../lib/gcc/arm-atollic-eabi/6.3.1/../../../../arm-atollic-eabi/lib/armv7e-m/fpu\libm.a(lib_a-w_log10.o)
 .debug_frame   0x00003c08       0x38 c:/program files (x86)/atollic/truestudio for stm32 9.3.0/armtools/bin/../lib/gcc/arm-atollic-eabi/6.3.1/../../../../arm-atollic-eabi/lib/armv7e-m/fpu\libm.a(lib_a-e_log10.o)
 .debug_frame   0x00003c40       0x20 c:/program files (x86)/atollic/truestudio for stm32 9.3.0/armtools/bin/../lib/gcc/arm-atollic-eabi/6.3.1/../../../../arm-atollic-eabi/lib/armv7e-m/fpu\libm.a(lib_a-s_matherr.o)
 .debug_frame   0x00003c60       0x20 c:/program files (x86)/atollic/truestudio for stm32 9.3.0/armtools/bin/../lib/gcc/arm-atollic-eabi/6.3.1/../../../../arm-atollic-eabi/lib/armv7e-m/fpu\libm.a(lib_a-s_nan.o)
 .debug_frame   0x00003c80       0x40 c:/program files (x86)/atollic/truestudio for stm32 9.3.0/armtools/bin/../lib/gcc/arm-atollic-eabi/6.3.1/../../../../arm-atollic-eabi/lib/armv7e-m/fpu\libm.a(lib_a-e_log.o)
 .debug_frame   0x00003cc0       0x20 c:/program files (x86)/atollic/truestudio for stm32 9.3.0/armtools/bin/../lib/gcc/arm-atollic-eabi/6.3.1/../../../../arm-atollic-eabi/lib/armv7e-m/fpu\libc_nano.a(lib_a-errno.o)
 .debug_frame   0x00003ce0       0xac c:/program files (x86)/atollic/truestudio for stm32 9.3.0/armtools/bin/../lib/gcc/arm-atollic-eabi/6.3.1/armv7e-m/fpu\libgcc.a(_arm_addsubdf3.o)
 .debug_frame   0x00003d8c       0x50 c:/program files (x86)/atollic/truestudio for stm32 9.3.0/armtools/bin/../lib/gcc/arm-atollic-eabi/6.3.1/armv7e-m/fpu\libgcc.a(_arm_muldivdf3.o)
 .debug_frame   0x00003ddc       0xc4 c:/program files (x86)/atollic/truestudio for stm32 9.3.0/armtools/bin/../lib/gcc/arm-atollic-eabi/6.3.1/armv7e-m/fpu\libgcc.a(_arm_cmpdf2.o)
 .debug_frame   0x00003ea0       0x20 c:/program files (x86)/atollic/truestudio for stm32 9.3.0/armtools/bin/../lib/gcc/arm-atollic-eabi/6.3.1/armv7e-m/fpu\libgcc.a(_arm_unorddf2.o)
 .debug_frame   0x00003ec0       0x24 c:/program files (x86)/atollic/truestudio for stm32 9.3.0/armtools/bin/../lib/gcc/arm-atollic-eabi/6.3.1/armv7e-m/fpu\libgcc.a(_arm_fixdfsi.o)
 .debug_frame   0x00003ee4       0x2c c:/program files (x86)/atollic/truestudio for stm32 9.3.0/armtools/bin/../lib/gcc/arm-atollic-eabi/6.3.1/armv7e-m/fpu\libgcc.a(_aeabi_uldivmod.o)
 .debug_frame   0x00003f10       0x34 c:/program files (x86)/atollic/truestudio for stm32 9.3.0/armtools/bin/../lib/gcc/arm-atollic-eabi/6.3.1/armv7e-m/fpu\libgcc.a(_udivmoddi4.o)
