:020000040800F2
:1000000000000220294E0008914D0008934D000881
:10001000954D0008974D0008994D0008000000001C
:100020000000000000000000000000009B4D0008E0
:100030009D4D0008000000009F4D0008A14D0008E4
:10004000794E0008794E0008794E0008794E000874
:10005000794E0008794E0008A94D0008794E000835
:10006000794E0008794E0008794E0008794E000854
:10007000794E0008794E0008794E0008794E000844
:10008000794E0008794E0008794E00080000000003
:10009000000000000000000000000000794E000891
:1000A000794E0008794E0008794E0008794E000814
:1000B000794E0008794E0008794E0008794E000804
:1000C000794E0008794E0008794E0008794E0008F4
:1000D000794E0008794E0008794E000800000000B3
:1000E000794E0008794E0008794E000800000000A3
:1000F000000000000000000000000000794E000831
:1001000000000000794E0008794E0008794E000882
:1001100000000000000000000000000000000000DF
:10012000794E0008794E0008794E0008794E000893
:10013000794E0008000000000000000000000000F0
:10014000000000000000000000000000794E0008E0
:10015000794E0008794E0008794E0008794E000863
:10016000794E0008794E00080000000000000000F1
:10017000000000000000000000000000000000007F
:1001800000000000794E00080000000000000000A0
:08019000794E0008794E0008C9
:1001980010B5054C237833B9044B13B10448AFF3B9
:1001A80000800123237010BD2804002000000000F7
:1001B800A458000808B5034B1BB103490348AFF323
:1001C800008008BD000000002C040020A45800088E
:1001D80081F0004102E000BF83F0004330B54FEAF0
:1001E80041044FEA430594EA050F08BF90EA020F5D
:1001F8001FBF54EA000C55EA020C7FEA645C7FEAF0
:10020800655C00F0E2804FEA5454D4EB5555B8BF12
:100218006D420CDD2C4480EA020281EA030382EA83
:10022800000083EA010180EA020281EA0303362D15
:1002380088BF30BD11F0004F4FEA01314FF4801CE8
:100248004CEA113102D0404261EB410113F0004FFA
:100258004FEA03334CEA133302D0524263EB4303B1
:1002680094EA050F00F0A780A4F10104D5F1200E4F
:100278000DDB02FA0EFC22FA05F2801841F10001AA
:1002880003FA0EF2801843FA05F359410EE0A5F17E
:1002980020050EF1200E012A03FA0EFC28BF4CF0AF
:1002A800020C43FA05F3C01851EBE37101F0004565
:1002B80007D54FF0000EDCF1000C7EEB00006EEB72
:1002C8000101B1F5801F1BD3B1F5001F0CD34908FC
:1002D8005FEA30004FEA3C0C04F101044FEA445253
:1002E80012F5800F80F09A80BCF1004F08BF5FEADA
:1002F800500C50F1000041EB045141EA050130BDBA
:100308005FEA4C0C404141EB010111F4801FA4F15C
:100318000104E9D191F0000F04BF01460020B1FAB1
:1003280081F308BF2033A3F10B03B3F120020CDAE9
:100338000C3208DD02F1140CC2F10C0201FA0CF0C7
:1003480021FA02F10CE002F11402D8BFC2F1200C2C
:1003580001FA02F120FA0CFCDCBF41EA0C019040E2
:10036800E41AA2BF01EB0451294330BD6FEA04042B
:100378001F3C1CDA0C340EDC04F11404C4F1200216
:1003880020FA04F001FA02F340EA030021FA04F328
:1003980045EA030130BDC4F10C04C4F1200220FA7F
:1003A80002F001FA04F340EA0300294630BD21FABD
:1003B80004F0294630BD94F0000F83F4801306BF83
:1003C80081F480110134013D4EE77FEA645C18BF77
:1003D8007FEA655C29D094EA050F08BF90EA020F0E
:1003E80005D054EA000C04BF1946104630BD91EA06
:1003F800030F1EBF0021002030BD5FEA545C05D109
:100408004000494128BF41F0004130BD14F5800447
:100418003CBF01F5801130BD01F0004545F0FE41BB
:1004280041F470014FF0000030BD7FEA645C1ABFF0
:10043800194610467FEA655C1CBF0B46024650EA27
:10044800013406BF52EA033591EA030F41F4002153
:1004580030BD00BF90F0000F04BF0021704730B5D9
:100468004FF4806404F132044FF000054FF00001AE
:1004780050E700BF90F0000F04BF0021704730B56F
:100488004FF4806404F1320410F0004548BF404244
:100498004FF000013EE700BF42004FEAE2014FEA99
:1004A80031014FEA02701FBF12F07F4393F07F4F74
:1004B80081F06051704792F0000F14BF93F07F4FA6
:1004C800704730B54FF4607401F0004521F00041E9
:1004D80020E700BF50EA010208BF704730B54FF06F
:1004E80000050AE050EA010208BF704730B511F074
:1004F800004502D5404261EB41014FF4806404F1AC
:1005080032045FEA915C3FF4DCAE4FF003025FEA2D
:10051800DC0C18BF03325FEADC0C18BF033202EBB5
:10052800DC02C2F1200300FA03FC20FA02F001FA0F
:1005380003FE40EA0E0021FA02F11444C1E600BFAE
:1005480070B54FF0FF0C4CF4E06C1CEA11541DBF61
:100558001CEA135594EA0C0F95EA0C0F00F0DEF82C
:100568002C4481EA030621EA4C5123EA4C5350EA11
:10057800013518BF52EA033541F4801143F4801362
:1005880038D0A0FB02CE4FF00005E1FB02E506F0F3
:100598000042E0FB03E54FF00006E1FB03569CF048
:1005A800000F18BF4EF0010EA4F1FF04B6F5007F4E
:1005B80064F5407404D25FEA4E0E6D4146EB0606C0
:1005C80042EAC62141EA55514FEAC52040EA5E5049
:1005D8004FEACE2EB4F1FD0C88BFBCF5E06F1ED8F3
:1005E800BEF1004F08BF5FEA500E50F1000041EB2A
:1005F800045170BD06F0004646EA010140EA0200D7
:1006080081EA0301B4EB5C04C2BFD4EB0C0541EAF8
:10061800045170BD41F480114FF0000E013C00F30D
:10062800AB8014F1360FDEBF002001F0004170BD31
:10063800C4F10004203C35DA0C341BDC04F114044A
:10064800C4F1200500FA05F320FA04F001FA05F2D6
:1006580040EA020001F0004221F0004110EBD370A3
:1006680021FA04F642EB06015EEA430E08BF20EACF
:10067800D37070BDC4F10C04C4F1200500FA04F372
:1006880020FA05F001FA04F240EA020001F0004104
:1006980010EBD37041F100015EEA430E08BF20EA77
:1006A800D37070BDC4F1200500FA05F24EEA020EBF
:1006B80020FA04F301FA05F243EA020321FA04F0EE
:1006C80001F0004121FA04F220EA020000EBD370A5
:1006D8005EEA430E08BF20EAD37070BD94F0000FA5
:1006E8000FD101F00046400041EB010111F4801FD9
:1006F80008BF013CF7D041EA060195F0000F18BF8A
:10070800704703F00046520043EB030313F4801FC5
:1007180008BF013DF7D043EA0603704794EA0C0F7F
:100728000CEA135518BF95EA0C0F0CD050EA410695
:1007380018BF52EA4306D1D181EA030101F0004112
:100748004FF0000070BD50EA410606BF104619463A
:1007580052EA430619D094EA0C0F02D150EA013646
:1007680013D195EA0C0F05D152EA03361CBF104687
:1007780019460AD181EA030101F0004141F0FE4126
:1007880041F470014FF0000070BD41F0FE4141F4AA
:10079800780170BD70B54FF0FF0C4CF4E06C1CEAAA
:1007A80011541DBF1CEA135594EA0C0F95EA0C0F5F
:1007B80000F0A7F8A4EB050481EA030E52EA03351A
:1007C8004FEA013100F088804FEA03334FF080553B
:1007D80045EA131343EA12634FEA022245EA111568
:1007E80045EA10654FEA00260EF000419D4208BF19
:1007F800964244F1FD0404F5407402D25B084FEAC6
:100808003202B61A65EB03055B084FEA32024FF471
:1008180080104FF4002CB6EB020E75EB030E22BFCE
:10082800B61A754640EA0C005B084FEA3202B6EB8E
:10083800020E75EB030E22BFB61A754640EA5C003D
:100848005B084FEA3202B6EB020E75EB030E22BFCD
:10085800B61A754640EA9C005B084FEA3202B6EBCE
:10086800020E75EB030E22BFB61A754640EADC008D
:1008780055EA060E18D04FEA051545EA16754FEAEF
:1008880006164FEAC30343EA52734FEAC2025FEA0D
:100898001C1CC0D111F4801F0BD141EA00014FF09C
:1008A80000004FF0004CB6E711F4801F04BF01436D
:1008B8000020B4F1FD0C88BFBCF5E06F3FF6AFAE89
:1008C800B5EB030C04BFB6EB020C5FEA500C50F119
:1008D800000041EB045170BD0EF0004E4EEA11319C
:1008E80014EB5C04C2BFD4EB0C0541EA045170BDA3
:1008F80041F480114FF0000E013C90E645EA060EE7
:100908008DE60CEA135594EA0C0F08BF95EA0C0F14
:100918003FF43BAF94EA0C0F0AD150EA01347FF45C
:1009280034AF95EA0C0F7FF425AF104619462CE733
:1009380095EA0C0F06D152EA03353FF4FDAE104696
:10094800194622E750EA410618BF52EA43067FF4E7
:10095800C5AE50EA41047FF40DAF52EA43057FF477
:10096800EBAE12E74FF0FF3C06E000BF4FF0010C82
:1009780002E000BF4FF0010C4DF804CD4FEA410CE6
:100988007FEA6C5C4FEA430C18BF7FEA6C5C1BD0B3
:1009980001B050EA410C0CBF52EA430C91EA030F34
:1009A80002BF90EA020F0020704710F1000F91EA91
:1009B800030F58BF994208BF90422CBFD8176FEA5F
:1009C800E37040F0010070474FEA410C7FEA6C5C2D
:1009D80002D150EA013C07D14FEA430C7FEA6C5C34
:1009E800D6D152EA033CD3D05DF8040B704700BF60
:1009F8008446104662468C461946634600E000BFAE
:100A080001B5FFF7B7FF002848BF10F1000F01BD7F
:100A18004DF808EDFFF7F4FF0CBF012000205DF84A
:100A280008FB00BF4DF808EDFFF7EAFF34BF0120CF
:100A380000205DF808FB00BF4DF808EDFFF7E0FF68
:100A480094BF012000205DF808FB00BF4DF808EDB9
:100A5800FFF7CEFF94BF012000205DF808FB00BF20
:100A68004DF808EDFFF7C4FF34BF012000205DF802
:100A780008FB00BF4FEA410C7FEA6C5C02D150EAE8
:100A8800013C0AD14FEA430C7FEA6C5C02D152EA7E
:100A9800033C02D14FF0000070474FF0010070474F
:100AA8004FEA410212F5001215D211D56FF478738E
:100AB800B3EB625212D94FEAC12343F0004343EA31
:100AC800505311F0004F23FA02F018BF404270470C
:100AD8004FF00000704750EA013005D111F0004096
:100AE80008BF6FF0004070474FF00000704700BF2C
:100AF80053B94AB9002908BF00281CBF4FF0FF317D
:100B08004FF0FF3000F07AB9ADF1080C6DE904CE72
:100B180000F006F8DDF804E0DDE9022304B07047D0
:100B28002DE9F0478C460D460446089E002B51D10E
:100B38008A4217466DD9B2FA82FEBEF1000F0BD079
:100B4800CEF1200C01FA0EF520FA0CFC02FA0EF791
:100B58004CEA050C00FA0EF44FEA174A250CBCFBC8
:100B6800FAF81FFA87F90AFB18CC45EA0C4508FB86
:100B780009F3AB420AD9ED1908F1FF3280F023815D
:100B8800AB4240F22081A8F102083D44ED1AA4B21C
:100B9800B5FBFAF00AFB105544EA054400FB09F9D5
:100BA800A14509D9E41900F1FF3380F00A81A14574
:100BB80040F2078102383C44A4EB090440EA0840AB
:100BC8000021002E61D024FA0EF4002334607360F3
:100BD800BDE8F0878B4207D9002E54D0002186E863
:100BE80021000846BDE8F087B3FA83F1002940F0F8
:100BF8008E80AB4202D3824200F2FA80841A65EBFF
:100C080003050120AC46002E3FD086E81010BDE851
:100C1800F08712B90127B7FBF2F7B7FA87FEBEF1E2
:100C2800000F34D1EB1B3A0C1FFA87FC0121B3FBF0
:100C3800F2F8250C02FB183345EA03450CFB08F3D0
:100C4800AB4207D9ED1908F1FF3002D2AB4200F2EE
:100C5800D1808046ED1AA3B2B5FBF2F002FB105525
:100C680043EA05440CFB00FCA44507D9E41900F14C
:100C7800FF3302D2A44500F2B8801846A4EB0C0456
:100C880040EA08409DE731463046BDE8F087CEF19E
:100C9800200405FA0EF307FA0EF720FA04F83A0CC6
:100CA80025FA04F448EA0308B4FBF2F14FEA1845C0
:100CB80002FB11441FFA87FC45EA044501FB0CF3CB
:100CC800AB4200FA0EF409D9ED1901F1FF3080F0BA
:100CD8008A80AB4240F2878002393D44EB1A1FFA02
:100CE80088F5B3FBF2F002FB103345EA034500FB3D
:100CF8000CF3AB4207D9ED1900F1FF386FD2AB42C4
:100D08006DD902383D44EB1A40EA01418FE7C1F141
:100D1800200722FA07F88B4005FA01F448EA030392
:100D280020FA07FE4FEA134CFD404EEA040EB5FBCD
:100D3800FCF94FEA1E440CFB19551FFA83F844EAE4
:100D4800054509FB08F4AC4202FA01F200FA01FA7F
:100D580008D9ED1809F1FF3043D2AC4241D9A9F1C5
:100D680002091D442D1B1FFA8EFEB5FBFCF00CFB7F
:100D780010554EEA054400FB08F8A04507D9E418C9
:100D880000F1FF3529D2A04527D902381C4440EA92
:100D98000940A4EB0804A0FB02894C45C6464D4611
:100DA80015D312D056B1BAEB0E0364EB050404FA5E
:100DB80007F7CB401F43CC40376074600021BDE883
:100DC800F0871846F8E69046E0E6C245EAD2B8EB66
:100DD800020E69EB03050138E4E72846D7E74046E9
:100DE80091E78146BEE7014678E702383C4445E78B
:100DF800084608E7A8F102083D442BE7704700BF02
:100E080010B504460E4B18784FF47A73B3FBF0F321
:100E18000C4A1068B0FBF3F000F03CFB68B90F2CEB
:100E280001D9012010BD002221464FF0FF3000F00B
:100E3800F1FA054B1C60002010BD012010BD00BF59
:100E480000000020B80300200400002008B50B4B68
:100E58001A6842F400721A601A6842F480621A60D2
:100E68001A6842F480721A60032000F0C1FA002068
:100E7800FFF7C6FF03F0C0FE002008BD003C02409B
:100E8800034A1168034B1B780B441360704700BF7B
:100E98006008002000000020014B1868704700BF60
:100EA8006008002038B50446FFF7F6FF0546B4F1A0
:100EB800FF3F02D0044B1B781C44FFF7EDFF401B9B
:100EC8008442FAD838BD00BF000000204A4B5A6857
:100ED80022F440325A605A6841680A435A600268EC
:100EE800536823F48073536002685368016943EAC6
:100EF800012353600268536823F04073536002680B
:100F0800536881680B4353600268936823F4006355
:100F1800936002689368C1680B439360826A374B99
:100F28009A424BD00268936823F07063936002681A
:100F38009368816A0B4393600268936823F0405377
:100F4800936002689368C16A0B4393600268936870
:100F580023F00203936002689368017E43EA410329
:100F6800936090F82030002B33D10268536823F443
:100F7800006353600268D36A23F47003D362016884
:100F8800CB6AC269013A43EA0253CB6202689368AA
:100F980023F4007393600268936890F8301043EA72
:100FA800412393600268936823F480639360026826
:100FB8009368416943EA81239360704702689368A4
:100FC80023F0706393600268936823F04053936042
:100FD800BCE70268536843F40063536002685368CF
:100FE80023F46043536001684B68426A013A43EA5C
:100FF80042334B60BEE700BF002301400100000FF1
:1010080038B310B50446036C43B1236C13F0100FCA
:101018000BD00120002384F83C3010BD03F00CFEF7
:101028000023636484F83C30EFE7236C23F488538F
:1010380023F0020343F0020323642046FFF746FF30
:1010480000206064236C23F0030343F0010323644E
:10105800E0E701207047000082B00023019390F878
:101068003C30012B63D0012380F83C3003689A6838
:1010780012F0010F13D19A6842F001029A60304BC6
:101088001B68304AA2FB03239B0C03EB4303019329
:1010980002E0019B013B0193019B002BF9D10268FF
:1010A800936813F0010F45D0036C23F4E06323F039
:1010B800010343F480730364536813F4806F05D00D
:1010C800036C23F4405343F480530364036C13F418
:1010D800805F19D0436C23F006034364002380F833
:1010E8003C306FF022031360174B5B6813F01F0F3F
:1010F8000DD103689A6812F0405F1DD19A6842F0DA
:1011080080429A60002013E000234364E6E7036806
:101118000E4A934201D000200AE09A6812F0405F1C
:101128000CD19A6842F080429A60002000E00220C8
:1011380002B070470020FBE70020F9E70020F7E73E
:10114800B803002083DE1B43002301400020014038
:1011580090F83C30012B19D0012380F83C3002680C
:10116800936823F00103936003689B6813F0010FF1
:1011780007D1036C23F4885323F0010343F00103E0
:101188000364002380F83C301846704702207047FB
:1011980003689A6812F4806F03D09B6813F4807F09
:1011A8001CD170B50D460446FFF776FE0646236847
:1011B8001A6812F0020F1AD1B5F1FF3FF7D025B126
:1011C800FFF76AFE801B8542F1D2236C43F00403CB
:1011D8002364002384F83C30032070BD036C43F083
:1011E80020030364002380F83C30012070476FF02F
:1011F80012021A60236C43F40073236423689A680C
:1012080012F0405F17D1227EBAB9DA6A12F4700F71
:1012180003D09B6813F4806F11D1236C23F480737F
:101228002364236C13F4805F0BD1236C43F0010318
:101238002364002070BD002070BD002070BD002018
:1012480070BD002070BD0368D86C704730B482B0A0
:101258000023019390F83C30012B00F0BD8001235E
:1012680080F83C300B68092B3ED90568EA689BB2C8
:1012780003EB43031E3B072404FA03F322EA0303A8
:10128800EB600568EA688C680B8803EB43031E3B38
:1012980004FA03F31343EB604B68062B3AD805684E
:1012A8006A6B03EB8303053B1F2404FA03F322EA6A
:1012B80003036B6305686A6B4B6803EB8303053BA9
:1012C8000C8804FA03F313436B630268434B9A4296
:1012D80050D00268414B9A4259D0002380F83C30E4
:1012E800184602B030BC704705682A699BB203EB08
:1012F8004303072404FA03F322EA03032B61056876
:101308002A698C680B8803EB430304FA03F313433D
:101318002B61C1E70C2B16D805682A6B03EB8303F6
:10132800233B1F2404FA03F322EA03032B63056813
:101338002A6B4B6803EB8303233B0C8804FA03F303
:1013480013432B63C1E70568EA6A03EB8303413B58
:101358001F2404FA03F322EA0303EB620568EA6A2E
:101368004B6803EB8303413B0C8804FA03F31343F4
:10137800EB62AAE70B68122BABD1194B5A6822F41F
:1013880000025A605A6842F480025A60A1E70B686A
:10139800144A934201D0112B9FD1114B5A6822F461
:1013A80080025A605A6842F400025A600A680D4B7B
:1013B8009A4292D10C4B1B680C4AA2FB03239B0C4C
:1013C80003EB83035A00019202E0019B013B019366
:1013D800019B002BF9D180E7022082E70020014021
:1013E8000023014012000010B803002083DE1B43D5
:1013F800074AD36823F4E0631B041B0C000200F4C3
:10140800E060184340F0BF6040F40030D06070479F
:1014180000ED00E030B4164BDB68C3F30223C3F1E0
:101428000704042C28BF04241D1D062D17D9033BCF
:10143800012505FA04F4013C2140994005FA03F31B
:10144800013B1340194300280BDB0901C9B200F125
:10145800604000F5614080F8001330BC70470023FD
:10146800E6E700F00F000901C9B2024B1954F4E78E
:1014780000ED00E014ED00E0002808DB420900F070
:101488001F00012303FA00F0014B43F822007047C4
:1014980000E100E00138B0F1807F0AD2064B5860C5
:1014A800F021064A82F823100020986007221A606B
:1014B80070470120704700BF10E000E000ED00E039
:1014C80011B94260002070470120704710B10160D7
:1014D800002070470120704708B5054B5B692BB1A8
:1014E8000268034B5A61436803B1984708BD00BFBF
:1014F800003C0140F0B583B000248FE0E6080836D0
:1015080050F8262004F0070E4FEA8E0E0F2707FA30
:101518000EF722EA07020F6907FA0EF73A4340F876
:1015280026208BE086681640CF6807FA0EF73E4300
:101538008660466826EA03034E68C6F30016A6408E
:1015480033434360C3681A408B6803FA0EF31A43A7
:10155800C2604B6813F0805F5FD0002301934B4B50
:101568005A6C42F480425A645B6C03F480430193E2
:10157800019BA208961C464B53F8263004F003063C
:10158800B6000F27B74023EA0703424FB84272D08C
:1015980007F58067B84270D007F58067B8426ED00B
:1015A80007F58067B8426CD007F58067B84260D00D
:1015B800072707FA06F633430232354E46F822303B
:1015C800354B1A68EB4302EA03064F6817F4803F6D
:1015D80001D045EA0206304A1660526803EA02065C
:1015E8004F6817F4003F01D045EA02062A4A5660C0
:1015F800926803EA02064F6817F4801F01D045EA93
:101608000206254A9660D26813404E6816F4001FF9
:1016180001D045EA0203204AD36001340F2C32D8A6
:101628000123A3400A6803EA0205AB42F5D14A68E0
:10163800022A3FF463AF122A3FF460AF06684FEA0C
:10164800440E032202FA0EF2D24316404F6807F006
:10165800030707FA0EF73E4306604E68771E012F10
:101668007FF660AF112E3FF45DAF122E7FF46AAFA4
:1016780058E704279DE700279BE7012799E70227FA
:1016880097E7032795E703B0F0BD00BF0038024095
:101698000038014000000240003C014000230F2BAD
:1016A80074D8F0B529E0042700E0002707FA05F50B
:1016B800AE4252D005685E000324B440E44325409E
:1016C8000560DD08083550F8256003F007074FEA84
:1016D800870E0F2707FA0EF726EA070640F8256057
:1016E800856825408560456825EA02024260C2682F
:1016F8001440C46001330F2B47D801229A4002EAF4
:101708000104A242F6D14FEA930E0EF10206204DD3
:1017180055F8266003F00305AD000F2707FA05FC0E
:1017280006EA0C061B4FB842BFD007F58067B842DF
:101738000DD007F58067B8420BD007F58067B8422F
:1017480009D007F58067B842ADD00727AEE7012773
:10175800ACE70227AAE70327A8E70D4E0EF102051A
:1017680056F8257027EA0C0746F825700A4D2E68AA
:10177800E44326402E606E6826406E60AE682640C0
:10178800AE60EE683440EC6094E7F0BD704700BF8F
:101798000038014000000240003C01400369194242
:1017A80001D1002070470120704712B909048161F6
:1017B80070478161704703685A6912F4806F11D0CD
:1017C8006FF480625A6100230363202280F83D2071
:1017D80080F83E30026C42F00402026480F83C302B
:1017E8000120704700207047F8B506460C4617469A
:1017F8001D4622E0FFF750FB069BC01A854200D326
:10180800DDB900233363202286F83D2086F83E3078
:10181800326C42F02002326486F83C300120F8BD78
:1018280033685B6924EA03039BB2B3FA83F35B0969
:10183800BB420FD1B5F1FF3FDCD1C4F30743012B05
:10184800EED033689B6924EA03039BB2B3FA83F3AF
:101858005B09EDE70020F8BDF8B504460D461646CD
:101868001F463CE01A6842F400721A6023686FF45D
:1018780080625A6100232363202284F83D2084F883
:101888003E30226C42F00402226484F83C3001208D
:10189800F8BDFFF701FBC01B864200D3FEB9002349
:1018A8002363202284F83D2084F83E30226C42F0E5
:1018B8002002226484F83C300120F8BD23685B696B
:1018C80025EA03039BB2003318BF0123A3B12368A1
:1018D8005A6912F4806FC5D1B6F1FF3FD9D1C5F36B
:1018E8000743012BEAD023689B6925EA03039BB2CF
:1018F800003318BF0123E9E70020F8BDF0B583B035
:1019080004460F4615461E46C36A082B0DD0012B08
:101918000BD013F5803F08D0036B122B0AD1026855
:10192800136843F48073136004E02268136843F477
:101938008073136000962B4600224FF00111204659
:10194800FFF752FF18BB2369B3F5804F11D0226807
:10195800FB1103F0060343F0F003136133462A46F4
:101968000E492046FFF778FFA8B92368FFB21F6128
:1019780003E0236807F0FE071F6133462A4608493B
:101988002046FFF769FF034610B1012300E0012359
:10199800184603B0F0BD0123FAE700BF08000100B4
:1019A8000200010070B504460D46164623685B69BF
:1019B80013F0800F1CD12046FFF7FDFED0B9B5F11A
:1019C800FF3FF3D0FFF768FA801B854201D3002D53
:1019D800ECD100232363202284F83D2084F83E3094
:1019E800226C42F02002226484F83C30012070BD51
:1019F800002070BD012070BD70B504460D46164626
:101A080023685B6913F0040F1CD12046FFF7D3FE4F
:101A1800D0B9B5F1FF3FF3D0FFF73EFA801B8542FE
:101A280001D3002DECD100232363202284F83D202C
:101A380084F83E30226C42F02002226484F83C3064
:101A4800012070BD002070BD012070BD002800F08D
:101A5800BE80F8B5044690F83D30002B6BD02423A7
:101A680084F83D302268136823F00103136000F006
:101A780021FD6268584B9A4262D8584B98428CBFF5
:101A880000230123002B40F0A480554BA3FB002327
:101A98009A0C21684B6823F03F0313434B60256879
:101AA800296A21F03F0166684B4B9E424ED8531C71
:101AB8000B432B622268D16921F44F4121F0FF01C9
:101AC8006368454DAB424BD801385B00B0FBF3F37C
:101AD8000133C3F30B03042B38BF04230B43D36137
:101AE80021680B6823F0C003E269206A02431343AC
:101AF8000B6021688B6823F4034323F0FF032269FA
:101B0800E068024313438B602168CB6823F0FF032E
:101B18006269A06902431343CB602268136843F0EB
:101B28000103136000202064202384F83D302063E3
:101B380084F83E00F8BD80F83C3003F0B1F88EE739
:101B4800284B98428CBF002301239BE74FF49673E0
:101B580003FB02F3244AA2FB03239B090133A7E7F3
:101B6800A668BEB9451E03EB4307B5FBF7F501357B
:101B7800C5F30B05B5FA85F56D0935BBC6B901384E
:101B880003EB4303B0FBF3F30133C3F30B0343F459
:101B98000043A3E7451E03EB830707EB8707B5FB65
:101BA800F7F50135C5F30B05B5FA85F56D09E4E7D9
:101BB800013803EB830303EB8303B0FBF3F3013337
:101BC800C3F30B0343F4404388E7012386E701206E
:101BD80070470120F8BD00BFA08601007F841E0069
:101BE80083DE1B43FF083D00D34D62102DE9F04111
:101BF80084B004460D4690461F46FFF74DF994F809
:101C08003D30DBB2202B04D00225284604B0BDE8C5
:101C1800F08106460090192301224F492046FFF71C
:101C2800E3FD08B10225F0E794F83C30012B00F001
:101C38008E80012384F83C3023681A6812F0010F63
:101C480003D11A6842F001021A602268136823F46B
:101C580000631360212384F83D30102384F83E305C
:101C680000232364C4F824806785638D23853B4B58
:101C7800E36233460A9A29462046FFF73FFE0546A7
:101C8800002866D10023039323685A6903929B694D
:101C98000393039B12E0236C042B01D00125B4E7C6
:101CA8002268136843F4007313600125ADE73246D8
:101CB8000A992046FFF7A0FE00282ED1238D002B7D
:101CC80037D032460A992046FFF76CFE0028E2D149
:101CD8002368626A12781A61616A4B1C6362638DB9
:101CE8009BB2013B9BB26385238D013B9BB223854D
:101CF8002268506910F0040FD9D0002BD7D04B7848
:101D08001361636A01336362638D9BB2013B9BB2CB
:101D18006385238D013B2385C9E7236C042B01D000
:101D2800012572E72268136843F4007313600125E4
:101D38006BE72268136843F400731360202384F868
:101D48003D30002384F83E3084F83C305DE70225BE
:101D58005BE7012559E700BF020010000000FFFF04
:101D68002DE9F04385B004460F4690461D46FFF71F
:101D780093F894F83D30DBB2202B04D002231846A8
:101D880005B0BDE8F08306460090192301225449A6
:101D98002046FFF729FD08B10223F0E794F83C300C
:101DA800012B00F09480012384F83C3023681A68E2
:101DB80012F0010F03D11A6842F001021A6022687A
:101DC800136823F400631360242384F83D30002350
:101DD8002364A3F58033E3624FF0010935E0A023C3
:101DE80084F83D3023685A69C2F340025969C1F347
:101DF800802194F83D30DBB2A02B09D042B939B923
:101E0800FFF74AF8801B8542E9D3002DEAD1E6E7BF
:101E1800202384F83D3023685A6912F0020F32D12A
:101E28001A6842F400721A6023686FF480625A617B
:101E38000096192301222A492046FFF7D5FC0028DD
:101E48004BD109F10109C14539D22268136843F41D
:101E58008073136000962B4600224FF00111204634
:101E6800FFF7C2FC002834D1236807F0FE021A618C
:101E7800FFF712F8064623685A69C2F34002596907
:101E8800C1F38021B5E71A6842F400721A60002392
:101E9800039323685A6903929B690393039B0096F3
:101EA800192301220E492046FFF79EFC034690B9EC
:101EB800202284F83D20002284F83C205FE720237C
:101EC80084F83D30002384F83C30012357E702238F
:101ED80055E7012353E7012351E701234FE700BFEB
:101EE80002001000002800F0BB8170B582B00446E3
:101EF800036813F0010F3BD0A74B9B6803F00C035A
:101F0800042B2CD0A44B9B6803F00C03082B21D086
:101F18006368B3F5803F4FD0B3F5A02F52D09E4BE6
:101F28001A6822F480321A601A6822F480221A6031
:101F38006368002B50D0FEF7AFFF0546964B1B6831
:101F480013F4003F14D1FEF7A7FF401B6428F5D90E
:101F580003208AE1904B5B6813F4800FD8D08E4B36
:101F68001B6813F4003F03D06368002B00F07A81EC
:101F7800236813F0020F55D0874B9B6813F00C0FA2
:101F88003ED0854B9B6803F00C03082B33D0E368E5
:101F9800002B68D00122814B1A60FEF77DFF0546B1
:101FA8007D4B1B6813F0020F54D1FEF775FF401BE1
:101FB8000228F5D9032058E1774A136843F480339F
:101FC8001360B5E7744B1A6842F480221A601A68E5
:101FD80042F480321A60ABE7FEF75EFF05466E4BAF
:101FE8001B6813F4003FC3D0FEF756FF401B64285C
:101FF800F5D9032039E1684B5B6813F4800FC6D12B
:10200800654B1B6813F0020F04D0E368012B01D065
:1020180001202AE1604A136823F0F803216943EAA2
:10202800C1031360236813F0080F40D0636963B3DA
:1020380001225B4B1A60FEF72FFF0546564B5B6F7C
:1020480013F0020F33D1FEF727FF401B0228F5D902
:1020580003200AE1504A136823F0F803216943EA90
:10206800C1031360DEE700224C4B1A60FEF714FF31
:102078000546494B1B6813F0020FD3D0FEF70CFF3F
:10208800401B0228F5D90320EFE00022444B1A60D8
:10209800FEF702FF0546404B5B6F13F0020F06D0B8
:1020A800FEF7FAFE401B0228F5D90320DDE023687D
:1020B80013F0040F79D0384B1B6C13F0805F33D1C9
:1020C80000230193344B1A6C42F080521A641B6C43
:1020D80003F080530193019B0125324B1B6813F4D5
:1020E800807F23D0A368012B34D0052B38D02A4B0E
:1020F8001A6F22F001021A671A6F22F004021A6797
:10210800A368002B36D0FEF7C7FE0646224B1B6F8E
:1021180013F0020F48D1FEF7BFFE801B41F288334F
:102128009842F3D90320A0E00025D6E71D4A13689A
:1021380043F480731360FEF7AFFE0646194B1B6825
:1021480013F4807FCED1FEF7A7FE801B0228F5D9B5
:1021580003208AE0104A136F43F001031367CFE7A7
:102168000D4B1A6F42F004021A671A6F42F001020F
:102178001A67C5E7FEF790FE0646074B1B6F13F07C
:10218800020F11D0FEF788FE801B41F28833984277
:10219800F3D9032069E000BF00380240000047423D
:1021A800800E474200700040E5B9A369002B5BD060
:1021B800304A926802F00C02082A58D0022B17D035
:1021C80000222D4B1A60FEF767FE0446294B1B6858
:1021D80013F0007F42D0FEF75FFE001B0228F5D9FE
:1021E800032042E0234A136C23F080531364DCE796
:1021F8000022214B1A60FEF74FFE05461D4B1B6857
:1022080013F0007F06D0FEF747FE401B0228F5D9E1
:1022180003202AE0E369226A1343626A43EA8213CD
:10222800A26A5208013A43EA0243E26A43EA0263B5
:10223800104A53600122104B1A60FEF72DFE044627
:102248000C4B1B6813F0007F06D1FEF725FE001B20
:102258000228F5D9032008E0002006E0002004E069
:1022680001207047012000E0002002B070BD01206D
:10227800FBE700BF0038024060004742F8B5314B29
:102288009B6803F00C03042B59D0082B01D02E486F
:10229800F8BD2C4B5A6802F03F025B6813F4800FBC
:1022A8002AD0284B5B68C3F388131E4600275C01BD
:1022B8000025E41A65EB0705A90141EA9461A0012C
:1022C800001B61EB0501CB0043EA5073C400A01961
:1022D80043EB07014B0243EAD05344022046194618
:1022E8000023FEF705FC174B5B68C3F3014301337A
:1022F8005B00B0FBF3F0F8BD124B5B68C3F38813C7
:102308001E4600275C010025E41A65EB0705A901B4
:1023180041EA9461A001001B61EB0501CB0043EA8F
:102328005073C400A01943EB07018B0243EA905392
:102338008402204619460023FEF7DAFBD3E7034858
:10234800F8BD00BF003802400024F40000127A00F3
:10235800002800F09D8070B504464F4B1B6803F0C1
:102368000F038B4209D2CBB24B4A1370136803F0A8
:102378000F03994201D0012070BD236813F0020FAA
:1023880017D013F0040F04D0444A936843F4E05381
:102398009360236813F0080F04D0404A936843F40D
:1023A800604393603D4A936823F0F003A0680343B9
:1023B80093600D46236813F0010F32D06368012B38
:1023C80021D09A1E012A25D9344A126812F0020F28
:1023D80060D032498A6822F0030213438B60FEF70B
:1023E8005BFD06462D4B9B6803F00C036268B3EB5C
:1023F800820F16D0FEF750FD801B41F288339842B9
:10240800F0D9032070BD254A126812F4003FE0D1CC
:10241800012070BD214A126812F0007FD9D1012035
:1024280070BD1D4B1B6803F00F039D4209D2EAB231
:10243800194B1A701B6803F00F039D4201D001204D
:1024480070BD236813F0040F06D0144A936823F470
:10245800E053E1680B439360236813F0080F07D03B
:102468000E4A936823F46043216943EAC1039360E9
:10247800FFF704FF094B9B68C3F30313084AD35CB7
:10248800D840084B18600020FEF7BAFC002070BD49
:1024980001207047012070BD003C02400038024016
:1024A80050590008B8030020014B1868704700BF56
:1024B800B803002008B5FFF7F7FF044B9B68C3F388
:1024C8008223034AD35CD84008BD00BF00380240CD
:1024D8006059000808B5FFF7E7FF044B9B68C3F392
:1024E8004233034AD35CD84008BD00BF00380240DD
:1024F80060590008F8B505460F4616461C462B6875
:102508009B6837EA03030CBF01230023B34237D08B
:10251800B4F1FF3FF3D0FEF7BFFC069BC01A84421C
:1025280001D9002CEBD12A68536823F0E0035360EB
:102538006B68B3F5827F0BD0AB6AB3F5005F14D03C
:10254800012385F85130002385F850300320F8BD69
:10255800AB68B3F5004F02D0B3F5806FECD12A68B1
:10256800136823F040031360E6E72A68136823F42E
:10257800005313602A68136843F400531360DFE7BD
:102588000020F8BD10B582B0044600920B46002228
:102598008021FFF7AFFF034620B1636D43F02003AE
:1025A80063650323184602B010BD704700283BD06E
:1025B80010B504460023836290F85130002B2ED0CA
:1025C800022384F851302268136823F04003136013
:1025D80022686368A1680B43E1680B4321690B43D8
:1025E80061690B43A16901F400710B43E1690B4375
:1025F800216A0B43A16A0B4313602268638B03F0C3
:102608000403616A0B4353602268D36923F40063AF
:10261800D36100206065012384F8513010BD80F833
:102628005030FFF7C2FFCBE7012070472DE9F04398
:1026380083B00A9D90F85040012C04D1022318461B
:1026480003B0BDE8F0831E4690460F4604460123BA
:1026580080F85030FEF720FC814694F85130DBB208
:102668006268012B12D0B2F5827F07D002230122C3
:1026780084F85120002284F85020E0E7A268002A5C
:1026880040F0E280042B01D00223F0E7002F00F095
:10269800DD80B8F1000F00F0DB80002E00F0DA805A
:1026A80094F85130DBB2042B02D0052384F8513062
:1026B80000236365C4F83880E687A6872763E68623
:1026C800A6862364636423681A6812F0400F03D156
:1026D8001A6842F040021A60E368B3F5006F11D03F
:1026E80063680BB1012E0BD12368226B12781A7321
:1026F800236B01332363E38E9BB2013B9BB2E386DA
:1027080001266CE063680BB1012E0BD12368226BA4
:102718001288DA60236B02332363E38E9BB2013B9A
:102728009BB2E38601261CE023689A6812F0010F29
:102738000ED0E28F92B25AB1A26BDB681380A36B02
:102748000233A363E38F9BB2013B9BB2E38701266D
:10275800FEF7A2FBA0EB0900A84202D3B5F1FF3FA8
:102768007AD1E38E9BB21BB9E38F9BB2002B54D076
:1027780023689A6812F0020FD6D0E28E92B2002A2D
:10278800D2D0002ED0D0226B1288DA60236B0233AD
:102798002363E38E9BB2013B9BB2E3860026C3E72B
:1027A80023689A6812F0010F0ED0E28F92B25AB1E4
:1027B800A26BDB681370A36B0133A363E38F9BB237
:1027C800013B9BB2E3870126FEF766FBA0EB0900FD
:1027D800854202D8B5F1FF3F40D1002D40D0E38EAD
:1027E8009BB213B9E38F9BB2BBB123689A6812F00E
:1027F800020FD5D0E28E92B2002AD1D0002ECFD0CF
:10280800226B12781A73236B01332363E38E9BB216
:10281800013B9BB2E3860026C2E74A46294620468A
:10282800FFF7B0FE034618B12023636501231EE7B6
:10283800A268002A7FF41BAF01922268D168019137
:1028480092680192019A12E7022310E701230EE72A
:1028580001230CE701230AE7032308E7032306E71C
:10286800032304E790F85100704700002DE9F04772
:1028780004460268136923F44053C1680B4313618B
:1028880083680269134342691343C26913430168A9
:10289800CA6822F4164222F00C021343CB60026885
:1028A800536923F4407381690B435361C369B3F5DA
:1028B800004F62D0D0F80080BB4B984500F01B81D8
:1028C80003F58063984500F01681FFF7F3FD00EBF0
:1028D800800000EB80006568AD00B0FBF5F5B34FF4
:1028E800A7FB05356D092E01FFF7E4FD00EB80001D
:1028F80000EB80006568AD00B0FBF5FAFFF7DAFD84
:1029080000EB800000EB80006568AD00B0FBF5F5DA
:10291800A7FB05356D094FF0640909FB15A52D01C5
:102928003235A7FB05356D0905F0F0053544FFF78D
:10293800C1FD00EB800000EB80006668B600B0FBCC
:10294800F6F6FFF7B7FD00EB800000EB8000636848
:102958009B00B0FBF3F0A7FB0030400909FB1069AE
:102968004FEA091909F13209A7FB0937C7F34317D9
:102978002F44C8F80870BDE8F087D0F8008003F14C
:10298800804303F5104398455CD003F58063984570
:1029980058D0FFF78FFD00EB800000EB80006568E2
:1029A8006D00B0FBF5F5814FA7FB05356D092E01CC
:1029B800FFF780FD00EB800000EB800065686D008C
:1029C800B0FBF5FAFFF776FD00EB800000EB800026
:1029D80065686D00B0FBF5F5A7FB05356D094FF08F
:1029E800640909FB15A5ED003235A7FB05356D090E
:1029F8006D0005F4F8753544FFF75CFD00EB8000C9
:102A080000EB800066687600B0FBF6F6FFF752FD33
:102A180000EB800000EB800063685B00B0FBF3F321
:102A2800A7FB03235B0909FB13694FEAC90909F1ED
:102A38003209A7FB0937C7F342172F44C8F80870B3
:102A4800BDE8F087FFF746FD00EB800000EB800053
:102A580065686D00B0FBF5F5544FA7FB05356D09AA
:102A68002E01FFF737FD00EB800000EB8000656862
:102A78006D00B0FBF5FAFFF72DFD00EB800000EBD1
:102A8800800065686D00B0FBF5F5A7FB05356D099D
:102A98004FF0640909FB15A5ED003235A7FB053594
:102AA8006D096D0005F4F8753544FFF713FD00EB6B
:102AB800800000EB800066687600B0FBF6F6FFF752
:102AC80009FD00EB800000EB800063685B00B0FB51
:102AD800F3F3A7FB03235B0909FB13694FEAC90951
:102AE80009F13209A7FB0937C7F342172F44C8F881
:102AF8000870BDE8F087FFF7EDFC00EB800000EB05
:102B080080006568AD00B0FBF5F5284FA7FB0535DB
:102B18006D092E01FFF7DEFC00EB800000EB800062
:102B28006568AD00B0FBF5FAFFF7D4FC00EB800058
:102B380000EB80006568AD00B0FBF5F5A7FB053537
:102B48006D094FF0640909FB15A52D013235A7FB66
:102B580005356D0905F0F0053544FFF7BBFC00EBC2
:102B6800800000EB80006668B600B0FBF6F6FFF761
:102B7800B1FC00EB800000EB800063689B00B0FBB9
:102B8800F3F3A7FB03235B0909FB13694FEA091950
:102B980009F13209A7FB0937C7F343172F44C8F8CF
:102BA8000870BDE8F08700BF001001401F85EB5199
:102BB80058B310B5044690F839300BB3242384F881
:102BC80039302268D36823F40053D3602046FFF7D6
:102BD8004DFE2268136923F49043136122685369F8
:102BE80023F02A0353612268D36843F40053D36067
:102BF8000020E063202384F8393084F83A3010BD8F
:102C080080F8383002F086F8D8E70120704710B510
:102C18008AB01C468DF80C008DF80D108DF80E202A
:102C280001AB00210191CDF8071005913F22ADF8C5
:102C380010208A22ADF8122003AA069203220792D6
:102C480008930723099304A800F0A0FB00280EDBD3
:102C58009DF8040060B9BDF805302380BDF8072051
:102C68000C9B1A80BDF809200D9B1A8000E0FF20FC
:102C78000AB010BD70B58AB00E4615461C468DF8D0
:102C88000C0001AB00210191CDF8071005913F22FE
:102C9800ADF810208A22ADF8122003AA069201226C
:102CA800079208930723099304A800F06FFB0028F4
:102CB8000CDB9DF8040050B9BDF805303380BDF831
:102CC80007302B80BDF80930238000E0FF200AB0D0
:102CD80070BD70B592B09DF85C609DF86440351980
:102CE8000E35282D02D9422012B070BD8DF804008F
:102CF800ADF80510ADF807208DF809309DF858306B
:102D08008DF80A308DF80B6001AD3246189903A88A
:102D180002F0E4F806F1080312AA52FA83F303F862
:102D2800444C0936F6B222461A99A81902F0D6F888
:102D38003444E4B212AB2344BDF86C2023F8442C8D
:102D4800A31C12AA52FA83F3BDF8702023F8442C6E
:102D58000434E4B200210D913F23ADF830308323D1
:102D6800ADF832300E950F940DF12F031093012317
:102D780011930CA800F00AFB002802DB9DF82F0035
:102D8800B2E7FF20B0E710B58EB08DF804008DF8DB
:102D98000510146850689168D268CDF80640CDF8DF
:102DA8000A00CDF80E10CDF812208DF816309DF8D7
:102DB80040308DF817309DF844308DF81830129B4C
:102DC800CDF819309DF84C308DF81D30002109914F
:102DD8003F23ADF820308623ADF8223001AB0A93AB
:102DE8001A230B930DF103030C9301230D9308A8E9
:102DF80000F0CCFA002803DB9DF803000EB010BDEC
:102E0800FF20FBE700B589B08DF80400002103918D
:102E18003F23ADF808308F23ADF80A3001AB049397
:102E2800012305930DF103020692079302A800F00F
:102E3800ADFA002804DB9DF8030009B05DF804FB37
:102E4800FF20FAE700B589B00021039104910591AC
:102E58003F23ADF8083040F20113ADF80A300DF108
:102E6800070306930123079302A800F08FFA0028AE
:102E780004DB9DF8070009B05DF804FBFF20FAE7C2
:102E880070B58CB016461D468DF80000012830D06C
:102E9800102422460DF1010002F020F8631C0CAA50
:102EA800134403F8306CA31C134403F8305C033458
:102EB80005AB0021ADF814108DF8161007913F22CC
:102EC800ADF818204FF48172ADF81A20CDF820D053
:102ED80009940A9303230B9306A800F057FA0028D5
:102EE80009DB9DF8140038B9BDF81520109B1A802D
:102EF80002E00224CDE7FF200CB070BD70B58EB0A3
:102F080016461D46ADF800008DF80210012950D074
:102F18001024224631460DF1030001F0DFFFE31CC7
:102F28000EAA134403F8385C231D13449DF8482067
:102F380003F8382C631D0EAA13449DF84C2003F89F
:102F4800382CA31D0EAA13449DF8502003F8382CE2
:102F5800E31D0EAA13449DF8542003F8382C04F1FD
:102F680008030EAA13449DF8582003F8382C093496
:102F780007AB0021ADF81C108DF81E1009913F22F7
:102F8800ADF820204FF48272ADF82220CDF828D079
:102F98000B940C9303230D9308A800F0F7F900286D
:102FA80009DB9DF81C0038B9BDF81D20179B1A8055
:102FB80002E00224ADE7FF200EB070BD10B5A8B046
:102FC8009C1D802C02DD422028B010BD1C46ADF8A7
:102FD8000400ADF806108DF808208DF809301A465F
:102FE8002A990DF10A0001F079FFA31DDBB2002137
:102FF80023913F22ADF888204FF48372ADF88A20E0
:1030080001AA249225930DF1870326930123279380
:1030180022A800F0BBF9002802DB9DF88700D3E75F
:10302800FF20D1E700B589B0ADF804000021039175
:103038003F23ADF8083040F22713ADF80A3001AB52
:103048000493022305930DF10303069301230793C9
:1030580002A800F09BF9002804DB9DF8030009B0E2
:103068005DF804FBFF20FAE78B1C802B01DD422072
:10307800704710B5A8B013460C468DF804008DF8BB
:1030880005100A4619460DF1060001F027FF023423
:10309800E4B2002123913F23ADF888300C23ADF82A
:1030A8008A3001AB249325940DF1870326930123DD
:1030B800279322A800F06AF9002803DB9DF887000F
:1030C80028B010BDFF20FBE700B589B08DF80400DB
:1030D8008DF80510002103913F23ADF808300F2328
:1030E800ADF80A3001AB0493022305930DF10303F5
:1030F80006930123079302A800F048F9002804DB8F
:103108009DF8030009B05DF804FBFF20FAE730B52D
:1031180085B005460C4602AB00930DF10A030DF18C
:103128000E0203A90DF10F0000F034F8C0B298B9EF
:10313800BDF80C301A0A2A701B029AB2BDF8083082
:103148001B091B0103F0F00313431BB2BDF8082051
:1031580002F00F021343238005B030BD00B589B0DB
:1031680000210391049105910323ADF80830ADF8CF
:103178000A300DF1070306930123079302A800F014
:1031880005F9002804DB9DF8070009B05DF804FB89
:10319800FF20FAE7F0B58BB007460E4615461C46E9
:1031A80001AB0021019102918DF80C100591069157
:1031B80007910422ADF810200122ADF812200893DF
:1031C8000923099304A800F0E1F8002814DB9DF80E
:1031D800040090B99DF805303B70BDF80630338087
:1031E8009DF808302B70BDF809302380BDF80B20FE
:1031F800109B1A80002000E0FF200BB0F0BD30B516
:1032080091B004460D462022002102A801F071FE6B
:103218008DF808401F2C1FD8224629460DF10900B9
:1032280001F05CFE00210B910823ADF8283009233A
:10323800ADF82A3002AB0C9320230D930DF1070350
:103248000E9301230F930AA800F0A0F8002805DBCD
:103258009DF8070011B030BD1F22DEE7FF20F9E717
:10326800037A042B01D001207047827A90F88830C5
:10327800033B9A4201D002207047002070470000AB
:1032880010B5A2B01446C1F3090141EA8021ADF896
:10329800041001218DF80810BDF80410ADF80910CC
:1032A8008DF80B20194603A801F018FE034B1B6983
:1032B80013B1211D02A8984722B010BD4404002074
:1032C80000B583B007E001A9074800F08EF901991D
:1032D800064800F072F9054800F0ABF90128F2DD64
:1032E80003B05DF804FB00BF6C08002064080020F0
:1032F80030B583B005460C4607E001A9204600F02A
:1033080086F90199284600F04CF9204600F03DF96D
:103318000028F2D003B030BD10B508B1104AD06112
:1033280000F0C0FE0F4800F02DF90F4800F02AF910
:10333800002408E08C210D4B01FB0431094800F002
:103348003CF90134E4B2042CF4D9054B1B680BB1E9
:1033580000209847024B9B6803B1984710BD00BFF7
:1033680044040020640800206C0800206404002045
:103378000268054B1A60C268DA6002691A618269DC
:103388009A6182689A6070474404002070B584B0DE
:1033980005460C46B0F90230C3F30903028843EA34
:1033A80082239EB20023039301A800F0EBF8FFF7F5
:1033B80087FFAB682A7B69882888FFF761FF002CA4
:1033C80040F08480FDF768FD0446FDF765FD001BAD
:1033D800B0F57A7F5DD83E4800F0D7F80028F4D1E0
:1033E80003A93B4800F001F9039B1A7A042A0FD07D
:1033F800384800F0CAF820B1354800F0C6F800286F
:103408005DD1039901A800F0D8F800230393D9E708
:1034180003F10B0193F88820033A587A0F282ED02D
:1034280013D9102835D03E28E2D1D87A6968884265
:10343800DED1013A69698A4228BF0A466A6103F106
:103448000C01286901F04AFD0FE00E28D0D19989B6
:103458008E421ED1033A69698A4228BF0A466A61C8
:1034680003F10E01286901F039FD0399194800F0AC
:1034780098F801A91648FFF73BFF002014E0B3F8BD
:103488000D00864205D168680F280FD0DB7A002B23
:10349800AED0039911B10F4800F083F801A90C4888
:1034A800FFF726FF4FF0FF3004B070BD6B699A42FA
:1034B80028BF1A466A61286901F010FDD5E703990B
:1034C800044800F07AF8002303937BE70020EBE739
:1034D8006C0800206408002000B583B00023019325
:1034E80003E001990A4800F068F80A4800F04DF82E
:1034F80058B901A9074800F078F8074BDB69002B99
:10350800EFD0019808309847EBE703B05DF804FB6B
:10351800640800206C0800204404002010B582B024
:1035280000230193144800F030F808B102B010BD30
:1035380001A9114800F059F8104BDB68002BF5D0B1
:103548008021019808309847C0B280B1019C84F866
:1035580088002046FFF784FE20B92146084800F07D
:103568002CF8E3E72146044800F01BF8DEE7019950
:10357800014800F016F8D9E7640800204404002048
:103588006C080020006040607047EFF3108372B64B
:103598000268904203D0002083F31088704701200E
:1035A800FAE7EFF3108372B602680A6048600160B8
:1035B8000A68516083F310887047EFF3108372B67E
:1035C800086042684A6041604A68116083F3108865
:1035D8007047EFF3108372B64268016811600268A1
:1035E8004168516083F31088704738B50C46EFF393
:1035F800108572B603680B600068FFF7EAFF22685F
:10360800002313602268536085F3108838BD38B5ED
:103618000C46EFF3108572B643680B604068FFF7FD
:10362800D8FF2268002313602268536085F310884E
:1036380038BDEFF3108172B60368002201E0013251
:103648001B688342FBD181F3108810467047000045
:1036580000B58DB0424B93E803000A90ADF82C10EA
:1036680000214048FFF758FE0DF116010DF1190031
:10367800FFF74DFDFFF772FD6420FDF713FC9DF881
:103688001930302B05D90122374B1A7002238DF8D7
:103698002D300CAB13E903000890ADF8241008AAEC
:1036A80006210020FFF7E0FC18B14FF4967000F0F7
:1036B800C5FBFFF7C7FB18B140F22D1000F0BEFBA9
:1036C800294B1B78012B20D10DF11A03019307AB6D
:1036D80000930DF11E03072200210120FFF797FA3E
:1036E80018B14FF4977000F0A9FBBDF81C10BDF895
:1036F8001E001E4B009307230022FFF75FFC68B1F2
:1037080040F22F1000F09AFBFEE70DF11A0307AA0A
:103718000DF11E010120FFF7ADFAE1E7012003904A
:10372800134B0293002101911023009307230A46AB
:10373800FFF729FB48B900F031F858B904210120F6
:10374800FFF7C2FC0DB05DF804FB4FF4987000F071
:1037580075FBF0E74FF49B7000F070FBEEE700BFDD
:10376800BC580008013D000820070020D858000870
:1037780040E2010008B5084B1B7833B9FFF7ACFEEF
:1037880000F020F900F09EF808BD00F03FF9002293
:10379800014B1A70F2E700BF6601002000B587B040
:1037A8003A4B00930A23012239490220FFF768FBAC
:1037B80020B14723184607B05DF804FB334B18883F
:1037C800344B0593002304931022039201220292A2
:1037D80001930C23009304232F4A0221FFF78EFB49
:1037E80008B14723E6E7294B18882C4B059300239B
:1037F8000493102203920122029201930C23009356
:103808001423274A0221FFF779FB08B14723D1E7A0
:10381800244B00930A23012223490220FFF730FB9F
:1038280008B14723C6E71F4B1888204B0593002390
:103838000493102203920293019302210091012321
:103848001B4AFFF75BFB08B14723B3E7194B00930B
:103858000A23012218490220FFF712FB08B1472367
:10386800A8E7144B1888154B0593002304931022DE
:10387800039202930193022100910B46104AFFF72D
:103888003DFB0346002895D0472393E774080020A2
:1038980020590008C608002010590008C808002050
:1038A80000590008C4080020305900087608002094
:1038B8004059000878080020F05800087A080020CD
:1038C800E058000830B52DED028B85B0344C204609
:1038D800FDF7C2FB4FF47A712046FDF759FC00282A
:1038E80058D12046FDF7AFFCFCF7B4FD2D4BC3E9DA
:1038F80000012B48FDF72CFC2B4B1B8807EE903A58
:10390800F8EE677A294B1B8808EE103AB8EE488A19
:1039180077EEC87A9FED267AC7EE276A16EE900AE8
:10392800FCF7BAFD04460D4618EE100AFCF7B4FD84
:1039380002460B461B49D1E90001FCF74DFC024643
:103948000B4620462946FCF7FBFD0022194BFCF7E5
:1039580045FCFDF7A5F840B28DF80F00164B93F91A
:10396800003098421AD0154B1888154B19880DF15C
:103978000F03009301230022FFF720FB9DF80F207F
:103988000D4B1A70034600B14723184605B0BDEC2D
:10399800028B30BD7A2000F051FAAAE70023F4E741
:1039A8007C080020380700202E7AFF1F2C7AFF1F82
:1039B8000000A04200003E402A070020C408002062
:1039C8007608002000B585B000F05CFA20B9002325
:1039D800184605B05DF804FB00F04EFA030A8DF8AE
:1039E8000C308DF80D00074B1888074B198803AB6E
:1039F800009302230022FFF7E1FA03460028E7D0EC
:103A08004723E5E7780800207A08002030B58FB012
:103A180000210846FFF7F3FB09AC0C4D0FCD0FC48E
:103A28002B6823700A20FFF7EDF900200690059017
:103A380009AB04931123039302900190009003466D
:103A480002460146FFF745F90FB030BDC4580008DB
:103A58000122054B1A60054B1980052300E0013B44
:103A6800002BFCD1704700BF240700202807002046
:103A78000023044A13600121034A1170034A13709A
:103A8800704700BF24070020660100203607002089
:103A980008B5034B188800B908BDFFF7C3FAFBE760
:103AA8002807002010B514461378507840EA032000
:103AB8000E4B1880012101F0DDF90D4B1860A2783A
:103AC8000C4B1A7000220C4B1A60E378042B04D9B3
:103AD8004FF4FA72094B1A6010BD01334FF47A7231
:103AE80092FBF3F3054A136010BD00BF34070020B2
:103AF800CC0800202B0700202C07002030070020CE
:103B08002DE9F84F1746724A136801331360714A5A
:103B18001078834202D0142000242CE001386E4B28
:103B28001B886FF09F0202FB0030FCF7A3FC002209
:103B38004FF07F53FCF704FD41EC100B01F0B0FA95
:103B480051EC100BFCF7ACFFE6E7421E944201D0A3
:103B580000221AE05A1E604B1B886FF09F0505FB78
:103B68000232A2EBC402C2F108020EE0012A70DDA3
:103B7800002A7CDD0134A04240F38780554B1B7836
:103B8800534A11688B42E0D000223B5D03F00109E3
:103B9800C3F3400AC3F38005C3F3C006C3F3001E92
:103BA800C3F3401CC3F38018DB09013901EB810121
:103BB8004FEA810BA3444949096801F83B30062ABA
:103BC8000CDC434B1968013901EB81018B0023445C
:103BD800DB0001334149096801F80380052A0CDC40
:103BE8003B4B1968013901EB81018B002344DB0051
:103BF80002333A49096801F803C0042A0CDC344B43
:103C08001968013901EB81018B002344DB00033380
:103C18003249096801F803E0032A0BDC2C4B1968C8
:103C2800013901EB81018B002344DB0004332B496C
:103C38000968CE54022A99DC254B1968013901EB31
:103C480081018B002344DB00053324490968CD54E6
:103C58008CE71F4B1968013901EB81018B00234464
:103C6800DB0006331D49096801F803A080E7184BFB
:103C78001A68013A02EB820293002344DB000733FF
:103C8800164A126802F8039074E7124B1A78104B20
:103C98001B689A4201D0BDE8F88F114B1B6893B19D
:103CA80000220F4B1A600D4B1A680E4B1A600E4B10
:103CB8001A680E4B1A60084B1A880D4B1A8001229D
:103CC8000C4B1A60E7E7074B186801F0FFF8EAE7C2
:103CD8002C0700202B07002034070020CC080020E8
:103CE800580100205C0100203007002060010020FE
:103CF80064010020680100200378042B00D070477D
:103D080010B543783E2B07D0FF2B0ED0052B00D0E3
:103D180010BDFFF7ADFE10BDC378012BF8D1B0F888
:103D280005100930FFF794FE10BDB0F8033040F6D7
:103D38000142934208D040F614429342E8D1B0F8C9
:103D48000700FFF7A5FE10BDB0F807400B4B1B8816
:103D580001339C420BD00A4B1B8801339C42D7D1BC
:103D680000F10C02417A2046FFF7CAFED0E700F1C5
:103D78000C02417A2046FFF795FE10BDC6080020C8
:103D8800C8080020014B1868704700BF5C0100207C
:103D9800014B1868704700BF60010020014B18886C
:103DA800704700BF6401002084B008B50DF1080E0B
:103DB8008EE80F0048227146034801F08FF8BDE8ED
:103DC800084004B0704700BF7C080020014B186809
:103DD800704700BF680100200022014B1A6070473D
:103DE8006801002070B5FEF749FA0B4EA6FB0036B5
:103DF800B60CFDF751F80446084B9D68FDF74CF8E2
:103E08008442F6D14FF47A7000FB06F35D1BB5FBD4
:103E1800F6F600FB046070BD83DE1B4310E000E093
:103E280038B50546FFF7DEFF044600E000BFFFF7A0
:103E3800D9FF001BA842F9D338BD0000084B1B88E6
:103E4800834208D00122074B1A60074B1988044A9D
:103E58001180188070470022024B1A60F5E700BFF6
:103E680048070020440700204007002008B500202C
:103E7800FFF7E4FF08BD0000014B1888704700BF3A
:103E880040070020014B1868704700BF4407002016
:103E980070B586B000240094154B1A6B42F00102ED
:103EA8001A631B6B03F001030093009B0126019624
:103EB800104B02930394104D01A92846FDF71AFBF5
:103EC8004FF48073019302960394049401A9284641
:103ED800FDF710FB0223019302960394049401A9B1
:103EE8002846FDF707FB00F06DFE06B070BD00BF69
:103EF80000380240000011100000024010B5084CC4
:103F080001212046FDF7CAFB02212046FDF7C6FB2A
:103F18004FF480712046FDF7C1FB002010BD00BFA3
:103F28000000024010B50A4C00224FF48071204670
:103F3800FDF73BFC0520FCF7B5FF01224FF480712B
:103F48002046FDF732FC0520FCF7ACFF002010BD31
:103F58000000024070B584B006460D46FF238DF878
:103F68000F300B238DF8083000228DF809208DF8CA
:103F78000A208DF80B208DF80C2002211948FDF736
:103F880014FC0522694602A800F0E4FD9DF8003003
:103F9800022B08D00024012202211248FDF705FC5B
:103FA800204604B070BD9DF804209DF8033053EA04
:103FB800022314D0AB4200D81D4600240BE0012296
:103FC8000DF10E010DF10F0000F0C4FD9DF80E304B
:103FD80033550134E4B2A3B29D42F0D8DBE70024A4
:103FE800D9E700BF00000240F0B585B007460E468D
:103FF8000A238DF8083000238DF809308DF80A302F
:104008008DF80B308DF80C30FCF746FF054611E0B3
:104018009DF80130B3421ED26FF001040122022143
:104028001348FDF7C2FBFCF737FF401B0F2819D8D0
:10403800002C19DA002202210D48FDF7B6FB0522F3
:10404800694602A800F086FD9DF80030022BDFD0FB
:104058004FF0FF34E2E732460649384600F07AFD71
:104068000024DBE76FF00204204605B0F0BD00BF76
:10407800000002404C07002008B501210348FDF765
:104088008DFB012814BF0020012008BD000002405C
:1040980008B502E00020FFF741FAFFF7EDFF00281E
:1040A800F8D108BD10B588B0114B0193114B02939C
:1040B800114B0593114B0493114B0393114B079329
:1040C80001A8FFF755F9104C01212046FDF7FEF92C
:1040D8000E4A00212046FDF7F3F90022114606207A
:1040E800FDF798F90620FDF7C7F908B010BD00BF25
:1040F800993E0008053F0008F13F00085D3F0008B1
:104108002D3F0008894B0008D0080020994000087E
:10411800BFF34F8F0549CA6802F4E062044B1343AA
:10412800CB60BFF34F8F00BFFDE700BF00ED00E09D
:104138000400FA052DE9F0418AB00024059406949C
:104148000794089409940194404B1A6B42F00402B6
:104158001A631A6B02F004020192019A02941A6B14
:1041680042F080021A631A6B02F080020292029AED
:1041780003941A6B42F001021A631A6B02F00102EF
:104188000392039A04941A6B42F002021A631B6B9F
:1041980003F002030493049B2D4F22464FF49171C0
:1041A8003846FDF702FB2B4E22464FF4805130462D
:1041B800FDF7FBFADFF8A88022464FF480714046ED
:1041C800FDF7F3FA4FF400530593234B0693079436
:1041D80005A93046FDF78EF90125059503230693B9
:1041E800079405A93046FDF785F905951B4B0693FD
:1041F800079405A93846FDF77DF94FF491730593A7
:1042080006950794089405A93846FDF773F94FF405
:104218008053059306950794089405A93046FDF741
:1042280069F94FF48073059306950794089405A9D6
:104238004046FDF75FF9224621460620FDF7EAF8D9
:104248000620FDF719F90AB0BDE8F08100380240F0
:104258000000024000080240000021100000111078
:104268000004024008B50C480C4B03600C4B43603B
:1042780000238360C3604FF480420261436183611D
:10428800C3610362FDF7E2FB00B908BD8C20FFF7AC
:10429800D5FDFFF73DFF00BFDC08002000540040BB
:1042A800801A060008B50B480B4B03604FF4E13346
:1042B800436000238360C36003610C224261836111
:1042C800C361FEF775FC00B908BD8220FFF7B6FD93
:1042D800FFF71EFF300900200044004000B585B0FC
:1042E800002300930193029303931748174A02602F
:1042F8004FF48032426083600361037680F8203097
:10430800C362134A8262C3600122C26180F83030FE
:104318004261FCF775FE68B90E4B009301230193C7
:104328000023029369460848FCF790FF38B905B0A6
:104338005DF804FB7820FFF781FDFFF7E9FE79209F
:10434800FFF77CFDFFF7E4FE7C0800200020014019
:104358000100000F1200001000B595B030220021B6
:1043680008A800F0C6FD0023039304930593069361
:1043780007930193214A116C41F080511164126C2A
:1043880002F080520192019A02931D4A116841F489
:1043980040411160126802F440420292029A0221DE
:1043A800089101220B9210220C920E910F931092F9
:1043B8004FF4A873119304231293139308A8FDF7DD
:1043C80091FD80B90F2303930221049100230593E3
:1043D8004FF480520692079303A8FDF7B9FF38B946
:1043E80015B05DF804FB6E20FFF728FDFFF790FE7F
:1043F8006F20FFF723FDFFF78BFE00BF0038024058
:10440800007000402DE9F04192B0FCF71FFDFFF766
:10441800A3FFFFF78FFEFFF725FFFFF743FFFFF727
:104428005DFFFFF715F9324C0A230222702120465E
:10443800FDF796FC05460A23022272212046FDF765
:104448008FFC06460A23022274212046FDF788FCC9
:1044580080460A23022276212046FDF781FC074682
:104468000A23022278212046FDF77AFC2DB926B9C5
:10447800B8F1000F01D107B920B18D20FFF7DEFC9C
:10448800FFF746FE1B4E6C4606F110050FCD0FC414
:104498000FCD0FC40FCD0FC495E8030084E80300C7
:1044A80096E80F00FFF780FC114C442204F110013C
:1044B800684600F013FD94E80F0000F01FF806E0CE
:1044C800012000F02DF8FFF755F900F0EFFAFFF79B
:1044D800CDFC4FF400510848FDF760F90028F2D1EF
:1044E80000F024F80028EBD0002000F019F8EAE7E3
:1044F800DC0800207C0800200008024084B008B5D1
:104508000DF1080E8EE80F0054227146034800F0A2
:10451800E5FCBDE8084004B0704700BFDC08002097
:10452800014B1860704700BF4C080020014B186809
:10453800704700BF4C080020092808D8DFE800F0C1
:10454800050905050505050505052A20704700200C
:1045580070471C2070470000092818D8DFE800F0D1
:10456800051907090B0D0F1113150B4870470B4858
:1045780070470B4870470B4870470B4870470B480B
:1045880070470B4870470B4870470B48704700202E
:1045980070470A48704700BFE8020020BC020020AC
:1045A80090020020C401002098010020640200202D
:1045B800380200206C010020F00100201C020020BD
:1045C80000B585B004AA02F8041D642300930123F2
:1045D80001460348FDF70AFB05B05DF804FB00BF80
:1045E800DC08002008B50139072925D8DFE801F0E3
:1045F80004080C1014181C200121FFF7E1FF08BD66
:104608000221FFF7DDFF08BD0421FFF7D9FF08BD30
:104618000821FFF7D5FF08BD1021FFF7D1FF08BD1E
:104628002021FFF7CDFF08BD4021FFF7C9FF08BDD6
:104638008021FFF7C5FF08BD0021FFF7C1FF08BDB6
:1046480069B308B5013A072A25D8DFE802F004085B
:104658000C1014181C200121FFF7B2FF08BD02211D
:10466800FFF7AEFF08BD0421FFF7AAFF08BD082128
:10467800FFF7A6FF08BD1021FFF7A2FF08BD202104
:10468800FFF79EFF08BD4021FFF79AFF08BD802174
:10469800FFF796FF08BD0021FFF792FF08BD70479E
:1046A800F8B5074600262EE05B00DBB201329442E3
:1046B800FADA05EB860204EBC202BA5C13FB02F3DA
:1046C80051FA83F3D9B20134072C02DC01221346D4
:1046D800EDE7FFF775FF0135032D06DC05F139001D
:1046E8004000C0B200242146EEE7013632460121DF
:1046F8007020FFF7A5FF40F6B830FFF791FB0021C7
:104708007020FFF75DFF062E01DC0025E4E7F8BD09
:104718002DE9F041064600254FF00108722719E0FF
:10472800A0462AE005EB441301342246F15C7020D0
:10473800FFF786FF1420FFF773FB00217020FFF7B7
:104748003FFF062CEEDD00213846FFF74BFF1F2DFB
:1047580019D001351F2D1BDC6B4205F0070403F04F
:10476800070358BF5C4244B9B8F1010FD8D0002103
:104778003846FFF725FF0237FFB2611C3846FFF7BE
:1047880031FF0024DDE700213846FFF719FFE0E795
:10479800BDE8F08170B50646FCF77EFB05460AE0E9
:1047A8003046FFF7B5FFFCF777FB0446FFF7F0FA52
:1047B8002844844207D2044B1B68002BF0D03046B3
:1047C800FFF76EFFEFE770BD4C0800202DE9F843B6
:1047D80000AF4A4E86FB01360E44B610C6EBC6063D
:1047E8008E1B40F086800546444C84FB01342144EE
:1047F8008C10202C1BDC202C51D0E946B8B0E846A0
:10480800C4F12000FBF736FE00223D4BFBF798FE73
:1048180041EC100B00F0C8FC51EC100BFCF740F910
:1048280014F0010F3ED1B646B446324655E0E8468C
:10483800344B1B689C4207D0FFF7C8FA40B9B8B0A0
:104848006846B64631461DE000222E4B1A60F3E753
:1048580000222C4B1A60FFF7BFFAF0E70EF1FF3C7D
:104868000CFB0433EB5C4354013101321F2A07DC93
:10487800244B1B6813449C42F0DD04FB0E33F1E724
:104888000EF1010EBEF1060F01DC3246EEE7FFF72E
:1048980081FF1C4A136801331360C54626E0FFF701
:1048A80079FF23E04FF0010EBEE7002108F802105F
:1048B800013201331F2B0EDC8342F6DBC0F12001ED
:1048C800A1EB0E018B42F0DA191A04FB0C11695C9A
:1048D80008F80210ECE70CF1010CBCF1060F01DC42
:1048E8003346E7E74046FFF755FFCD46BD46BDE8EE
:1048F800F883C820FFF7A2FAF8E700BF932449928B
:104908000000E03F500800202DE9F04F83B000AFD1
:104918000646FBF7AFFD41EC100B00F0C9FC00F0B8
:1049280043FC00225D4B51EC100BFBF757FCFCF7E6
:10493800B7F83860451E4300083323F00703ADEB92
:10494800030DC7F804D04FF0000912E0544CA4FB43
:104958000634E40804EB84025300F31A98B27B6827
:1049680023F81500FFF7E8FD81441FFA89F9A6B27C
:10497800013D002DEADA4D4609F1070323F007034C
:10498800ADEB030D6E464FF0000AD0462EE005FB56
:104998000EF3DFF810C18CFB03BC9C44DB17C3EBA0
:1049A800AC031344434410F801C006F803C00131B6
:1049B80001323C4B83FB04C323444FEAE47CCCEB39
:1049C800A3039A42E3DB0EF1010EBEF1060F01DCF0
:1049D8000022EEE7334B83FB04231A19E317C3EBDA
:1049E800A20398441FFA88F80AF1010A3B689A451D
:1049F8000EDA7B6833F81A309B461846FFF79CFDA1
:104A080004465846FFF7A8FD4FF0000E7146DCE754
:104A180009F1A1011FFA81F9CC4609F1070323F036
:104A28000703ADEB030D68464FF0000E744629E00E
:104A380005FB0EF31B4981FB03189844DB17C3EBF6
:104A4800A8031344173BF35C035501340132154B9B
:104A580083FB0C136344B2EBA30F11DA162AE7DCCD
:104A68000EEB8E030EEB43130E4981FB031898449B
:104A7800DB17C3EBA80313440B49CB5C0355E4E7EE
:104A88000EF1010EBEF1060F01DC0022DFE74946F8
:104A9800FFF79CFE0C37BD46BDE8F08F0000F03FE5
:104AA800CDCCCCCC932449921403002010B5FFF749
:104AB800E3F910B1FFF728FF10BDFFF763F90446CB
:104AC800FFF76CF901462046FFF780FE10BD000095
:104AD800F0B589B0002400941B4B5A6C42F4805204
:104AE8005A645A6C02F480520092009A01941A6B2C
:104AF80042F001021A631A6B02F001020192019A54
:104B080002941A6B42F002021A631B6B03F0020351
:104B18000293029BC023039302270497059403265C
:104B280006960525079503A90848FCF7E3FC082322
:104B38000393049705940696079503A90448FCF780
:104B4800D9FC09B0F0BD00BF0038024000000240A7
:104B58000004024000B583B04FF48053009313461D
:104B68000A4601460548FDF761FD18B9002003B063
:104B78005DF804FB6FF00500F9E700BF700900203D
:104B880008B5FCF789F908BD08B50D4A02604FF46D
:104B98008272426000228260C260026142614FF408
:104BA80000718161C2610262426282620A22C2624B
:104BB800FDF7FCFC034600B10123184608BD00BF01
:104BC8000030014010B50A480A4B0360FDF74AFE61
:104BD80008B1002010BD064C2046FFF779FF20469B
:104BE800FFF7D2FF00B910BD6FF0070010BD00BF7E
:104BF800700900200030014000B583B00021009109
:104C08000C4B5A6C42F480425A645A6C02F480424B
:104C18000092009A01911A6C42F080521A641B6C3F
:104C280003F080530193019B0720FCF7E1FB03B0DD
:104C38005DF804FB0038024000B589B000230393F7
:104C48000493059306930793026803F1804303F5E1
:104C580090339A4202D009B05DF804FB002101911B
:104C680003F58C335A6C42F480725A645A6C02F41D
:104C780080720192019A02911A6B42F004021A633F
:104C88001B6B03F004030293029B0123039303238A
:104C9800049303A90148FCF72DFCDCE70008024057
:104CA80030B589B0002303930493059306930793C3
:104CB8000268154B9A4201D009B030BD0025019514
:104CC800124C236B43F002032363236B03F00203AC
:104CD8000193019BC023039312230493012305939B
:104CE800032306930423079303A90948FCF702FC4E
:104CF8000295236C43F400132364236C03F400131C
:104D08000293029BD8E700BF0054004000380240DD
:104D18000004024000B589B000230393049305936F
:104D2800069307930268164B9A4202D009B05DF8C1
:104D380004FB0021019103F5FA331A6C42F40032A6
:104D48001A641A6C02F400320192019A02911A6BE9
:104D580042F001021A631B6B03F001030293029BEA
:104D68000C2303930223049301230593032306933F
:104D78000723079303A90348FCF7BCFBD6E700BF4A
:104D880000440040000002407047FEE7FEE7FEE7EF
:104D9800FEE770477047704708B5FCF771F808BD23
:104DA80008B50248FCF798FB08BD00BFD0080020F2
:104DB8000346064A126822B1044A10680344136085
:104DC80070470349014A1160F6E700BF5408002004
:104DD800CC0900200F49D1F8883043F47003C1F89A
:104DE80088300D4B1A6842F001021A600020986062
:104DF8001A6822F0847222F480321A60074A5A60D4
:104E08001A6822F480221A60D8604FF000638B6021
:104E1800704700BF00ED00E0003802401030002469
:104E2800DFF834D0002103E00C4B5B5843500431C9
:104E38000B480C4B42189A42F6D30B4A02E0002367
:104E480042F8043B094B9A42F9D3FFF7C3FF00F03D
:104E580019F8FFF7D7FA70470000022080590008B8
:104E6800000000202404002028040020CC09002091
:104E7800FEE70000024B0A460146186800F041B8F8
:104E8800BC03002070B50D4E0D4CA41BA4100025CA
:104E9800A54209D10B4E0C4C00F000FDA41BA41038
:104EA8000025A54205D170BD56F825309847013533
:104EB800EEE756F8253098470135F2E778590008AB
:104EC80078590008785900087C590008024B0146B7
:104ED800186800F025B800BFBC03002010B5431EB9
:104EE8000A44914200D110BD11F8014B03F8014F5B
:104EF800F7E702440346934200D1704703F8011BC9
:104F0800F9E738B502FB01F4214600F057F80546E9
:104F180018B122460021FFF7ECFF284638BD0000F3
:104F280038B50546002945D051F8043C0C1F002B24
:104F3800B8BFE41800F0B0F81F4A1368104633B938
:104F4800636014602846BDE8384000F0A6B8A34264
:104F58000CD921686218934204BF1A685B686360C1
:104F680004BF521822600460ECE713465A680AB17D
:104F7800A242FAD919685818A0420BD120680144F6
:104F8800581882421960DDD1106852685A6001448D
:104F98001960D7E702D90C232B60D3E720682118C2
:104FA8008A4204BF11685268626004BF0918216010
:104FB8005C60C7E738BD00BF5808002070B5CD1C3D
:104FC80025F0030508350C2D38BF0C25002D0646A5
:104FD80001DBA94203D90C233360002070BD00F027
:104FE8005BF8234A1468214691B9224C23681BB9FF
:104FF800304600F041F820602946304600F03CF881
:10500800431C26D10C233360304600F046F8E4E711
:105018000B685B1B1AD40B2B0FD90B60CD50CC1827
:10502800304600F03AF804F10B00231D20F0070089
:10503800C31A1BD05A42E25070BD8C420DBF636840
:105048004B686360136018BF0C46E9E70C46496873
:10505800CAE7C41C24F00304A04205D0211A304634
:1050680000F00AF80130CDD02560D9E770BD00BF47
:10507800580800205C08002038B5064C0023054677
:1050880008462360FFF794FE431C02D1236803B14E
:105098002B6038BDC8090020704770470000000029
:1050A80051EC100B2DE9F041C1F30A57A7F2FF3676
:1050B800132E10EE108A0C4610EE105A31DC002E1A
:1050C80013DA35A3D3E90023FBF788F8002200237D
:1050D800FBF7C6FC30B1002C56DB54EA080457D065
:1050E8002F4C00252146284625E02E4F374101EA5E
:1050F800070303431FD028A3D3E90023FBF76EF867
:1051080000220023FBF7ACFC0028EBD0002CC2BF28
:105118004FF4801343FA06F6A41924EA070400257D
:10512800E0E7332E0BDDB6F5806F04D110EE102AC0
:105138000B46FBF753F841EC100BBDE8F081A7F2E2
:1051480013474FF0FF3323FA07F73842F3D012A37F
:10515800D3E90023FBF742F800220023FBF780FC89
:105168000028BFD0002C02DD142E03D1013425EA1B
:105178000705B7E70123C6F1340603FA06F63544F6
:10518800A84588BFE418F2E700254FF00044A9E7D6
:105198002546A7E7AFF300809C7500883CE4377E7E
:1051A8000000F03FFFFF0F0051EC100B2DE9F0411C
:1051B800C1F30A57A7F2FF36132E10EE108A0C46D9
:1051C80010EE105A35DC002E17DA35A3D3E9002388
:1051D800FBF704F800220023FBF742FC50B1002C37
:1051E8005ADA24F0004353EA08032F4B4FF0000526
:1051F80018BF1C462146284625E02C4F374101EAB6
:10520800070303431FD026A3D3E90023FAF7E6FFD9
:1052180000220023FBF724FC0028EBD0002CBEBFA3
:105228004FF4801343FA06F6A41924EA070400256C
:10523800E0E7332E0BDDB6F5806F04D110EE102AAF
:105248000B46FAF7CBFF41EC100BBDE8F081A7F253
:1052580013474FF0FF3323FA07F73842F3D010A370
:10526800D3E90023FAF7BAFF00220023FBF7F8FB83
:105278000028BFD0002C02DA142E03D1013425EA0D
:105288000705B7E70123C6F1340603FA06F63544E5
:10529800A84588BFE418F2E700252C46AAE700BF16
:1052A8009C7500883CE4377E0000F0BFFFFF0F00CC
:1052B800F0B52DED028B8BB055EC104B00F078F863
:1052C800364BB0EE408AF0EE608A93F90060731CAA
:1052D8005CD022462B4620462946FBF7CBFB0746E7
:1052E800002853D10022002320462946FBF7A4FBBF
:1052F80000284BD02A4B01930897CDE90245CDE908
:105308000445A6B9274B4FF06042CDE90623204655
:10531800002200232946FBF77BFB40BB0123022E1A
:10532800009319D100F0B4FA2123036019E01E4B51
:105338000022CDE906232046002200232946FBF758
:1053480067FB0028EAD002239E42009311D100F0A7
:105358009FFA2223036011E0684600F0B7F800289E
:10536800E0D0124800F0B4F88DED060B06E00223F9
:105378000093684600F0AAF80028E8D0089B1BB103
:1053880000F086FA089B03609DED068BB0EE480A94
:10539800F0EE680A0BB0BDEC028BF0BD20040020D3
:1053A80068590008FFFFEFC70000F0FF6D590008BB
:1053B8002DE9F74355EC104BB5F5801F10EE102A78
:1053C8002B4630DA25F000410A430AD13C49002235
:1053D80000230020FBF7DEF941EC100B03B0BDE819
:1053E800F083002D09DA10EE102A2B4620462946B4
:1053F800FAF7F2FE00220023ECE70022314B29469F
:1054080010EE100AFBF79CF86FF0350204460D46C3
:105418000B462D498B4208DD22462B46204629465D
:10542800FAF7DCFED8E70022F3E71815A0F2FF3000
:1054380010444FEAD0794844C3F31308FBF71AF82D
:10544800C9F57F73033348EA035545EC104B06460C
:105458000F4600F045F814A3D3E900233046394637
:105468008DED000BFBF76CF89DED000B04460D4627
:105478000FA3D3E9002351EC100BFBF761F80246A8
:105488000B4620462946FAF7A9FE0BA3D3E90023C9
:1054980004460D4630463946FBF752F802460B469D
:1054A80020462946BCE700BF362BF111F3FE593DD3
:1054B8000EE526157BCBDB3F00609F501344D33F9E
:1054C800000050C300005043FFFFEF7F00207047EB
:1054D8009FED010B704700BF000000000000F87F3F
:1054E8002DE9F04F51EC100BB1F5801F87B010EE8D
:1054F800103A0D4627DA21F0004213430AD1CC496D
:10550800002200230020FBF745F941EC100B07B0FF
:10551800BDE8F08F002907DA10EE102A0B46FAF7DB
:105528005BFE00220023EEE7C24B0022FBF708F8DF
:105538006FF035030D46C04A954206DD02460B461C
:10554800FAF74CFEE1E70023F5E72C15A4F2FF3447
:10555800C5F313051C4405F5152303F6647303F41A
:10556800801383F07F5282F4401242EA050104EB73
:1055780013540022B14BFAF72FFEAB1CC3F31303ED
:10558800022B82468B464FF000025BDC0023FBF7C0
:105598003FFAD0B1002C00F070812046FAF76AFF7C
:1055A8008FA3D3E9002306460F46FAF7C9FF8EA357
:1055B800D3E9002304460D4630463946FAF7C0FFC2
:1055C80002460B4620462946BAE789A3D3E90023B9
:1055D80050465946FAF7B4FF02460B460020984950
:1055E800FAF7FAFD524606460F465B4650465946BC
:1055F800FAF7A6FF02460B4630463946FAF7A0FFEF
:1056080006460F4634B902460B4650465946FAF745
:10561800E3FD7AE72046FAF72DFF71A3D3E90023CB
:1056280080468946FAF78CFF6FA3D3E90023044626
:105638000D4640464946FAF783FF02460B46304678
:105648003946B2E04FF08043FAF7C8FD02460B46F0
:1056580050465946FBF79EF8CDE900012046FAF777
:1056680009FFDDE90023CDE9020110461946FAF7E2
:1056780067FF02460B46CDE90401FAF761FF5EA316
:10568800D3E9002306460F46FAF75AFF5CA3D3E98D
:105698000023FAF7A3FD32463B46FAF751FF5AA317
:1056A800D3E90023FAF79AFD32463B46FAF748FF5A
:1056B80057A3D3E90023FAF791FDDDE90423FAF7AC
:1056C8003FFF55A3D3E90023CDE90401304639460D
:1056D800FAF736FF52A3D3E90023FAF77FFD3246E3
:1056E8003B46FAF72DFF50A3D3E90023FAF776FDDE
:1056F80032463B46FAF724FFA5F5C22802460B4678
:10570800C5F5D725DDE90401FAF768FDA8F27A485E
:10571800513545EA0805002D06460F4650DD0022A2
:10572800474B50465946FAF70BFF52465B46FAF785
:1057380007FF8046894694B902460B4630463946EB
:10574800FAF74CFDDDE90023FAF7FAFE02460B46AC
:1057580040464946FAF740FD02460B4655E720A366
:10576800D3E90023DDE90201FAF7EAFE42464B4697
:1057780004460D4630463946FAF730FDDDE9002388
:10578800FAF7DEFE18A3D3E9002306460F46DDE943
:105798000201FAF7D5FE02460B4630463946FAF7BB
:1057A8001DFD02460B4640464946FAF715FD52468E
:1057B8005B46FAF711FD02460B462046294626E7C6
:1057C800002C3FD102460B4650465946FAF704FDD5
:1057D800DDE90023FAF7B4FEBEE700BFAFF30080AF
:1057E8000000E0FE422EE63F763C7935EF39EA3D8F
:1057F800555555555555D53F44523EDF12F1C23FD8
:10580800DE03CB966446C73F599322942449D23F7E
:10581800935555555555E53F9FC678D0099AC33FCE
:10582800AF788E1DC571CC3F04FA97999999D93FE5
:10583800000050C300005043FFFFEF7F0000F03F1F
:105848000000E03F0EA3D3E90023DDE90201FAF7E7
:1058580077FE32463B4604460D4650465946FAF70F
:10586800BBFCDDE90023FAF76BFE07A3D3E90023AD
:1058780006460F46DDE90201DDE60020002144E688
:105888000000E0FE422EE63F763C7935EF39EA3DEE
:10589800014B1868704700BFBC030020F8B500BF73
:1058A800F8BC08BC9E467047F8B500BFF8BC08BCF9
:0458B8009E46704751
:1058BC00123400E18003000007A5B0F14925C4BEF5
:1058CC00B90B47151050F577EB000000426C75656D
:1058DC004E524700A5B0F14925C4BEB90B4715106F
:1058EC0071F577EBA5B0F14925C4BEB90B4715107E
:1058FC0070F577EBA5B0F14925C4BEB90B4715106F
:10590C0052F577EBA5B0F14925C4BEB90B4715107C
:10591C0051F577EBA5B0F14925C4BEB90B4715106D
:10592C0050F577EBA5B0F14925C4BEB90B4715105E
:10593C0060F577EBA5B0F14925C4BEB90B4715103E
:10594C0061F577EB00000000000000000102030489
:10595C000607080900000000010203046C6F6731A0
:04596C003000000007
:08597000B8B1FF7F0100000047
:04597800BD01000865
:04597C009901000885
:105980000100000010000000010000000100000103
:1059900001010100000101010000010101000001FD
:1059A00001010101000100000000000101010101ED
:1059B00000010101010000000100000001000100E0
:1059C00000000001000001000001000000010001D2
:1059D00000000000000100000000000100000000C5
:1059E00000010000000100000100000001000100B2
:1059F00000000001000001000001000000000001A3
:105A00000000000000010000000000010000000094
:105A10000001000000010000010000000100010081
:105A20000000000100000100000100000000000172
:105A3000010101000001000000000001010101005E
:105A40000001000000010000010000000100010051
:105A50000000000100000100000100000000000142
:105A60000000000000010000000000010000000034
:105A70000001000000010000000100010000010021
:105A80000000000100000100000100000001000111
:105A90000000000000010000000000010000000004
:105AA00000010000000100000000010000000001F2
:105AB00001010100000101010000010101000001DC
:105AC00001010101000101010101000101010101C8
:105AD0000001010101000000010000000800002099
:105AE000F40100005001010001000000000101016B
:105AF00000000100000001000100000001000001A1
:105B0000010100000100000001000100000001008F
:105B1000000101010000000001010101010001007C
:105B20000000000001000000000001010101000070
:105B3000000000000100000000000100010101015F
:105B40000000000001000000000001000000000053
:105B5000010000010000010101010100000000013D
:105B60000000000000010000000000010000000033
:105B7000000101010000010000000100010000001F
:105B8000010000010101010000000000010000000F
:105B900000000100010101010000000000000100FF
:105BA00000010100010001000000010000000100EF
:105BB00000000100000001000101010101000000DE
:105BC00000000100000000010000000001000000D2
:105BD00000010000000001000000000001000000C2
:105BE00000000000000101010100010000000000B0
:105BF000010000000000010101010000010000009F
:105C0000010001000000010000010101000000008E
:105C1000000101010000010000000100000000007F
:105C2000010000000101000000000000010001006F
:105C3000000001000001010100000000000101015D
:105C40000000010000000100000000000100000051
:105C50000001000000000100000000010000000041
:105C6000010101010100000000010101000001002B
:105C7000000001000100000001000100000001001F
:105C8000010000000100010000000100000101010D
:105C900000000000010101010100000000000000FF
:105CA00000000000000000000000000100000000F3
:105CB00000000000000000000000000000000000E4
:105CC00000000100000000000000000000000000D3
:105CD00000000000000000000001010101000001BF
:105CE00001010001010100000101000001010100AA
:105CF00001000000000001000000010000000100A0
:105D0000000100010000000100000000000100008F
:105D1000000100000001000001000100000001017D
:105D2000010101000100000001000000000101006C
:105D300000010000000000000024F400C003002067
:105D40000000000000000000000000000000000053
:105D50000000000000000000000000000000000043
:105D60000000000000000000000000000000000033
:105D70000000000000000000000000000000000023
:105D80000000000000000000000000000000000013
:105D90000000000000000000000000000000000003
:045DA00001000000FE
:0400000508004E2978
:00000001FF
